{
  "_format": "hh-sol-artifact-1",
  "contractName": "NFT",
  "sourceName": "contracts/ERC721.sol",
  "abi": [
    {
      "inputs": [],
      "stateMutability": "nonpayable",
      "type": "constructor"
    },
    {
      "anonymous": false,
      "inputs": [
        {
          "indexed": true,
          "internalType": "address",
          "name": "owner",
          "type": "address"
        },
        {
          "indexed": true,
          "internalType": "address",
          "name": "approved",
          "type": "address"
        },
        {
          "indexed": true,
          "internalType": "uint256",
          "name": "tokenId",
          "type": "uint256"
        }
      ],
      "name": "Approval",
      "type": "event"
    },
    {
      "anonymous": false,
      "inputs": [
        {
          "indexed": true,
          "internalType": "address",
          "name": "owner",
          "type": "address"
        },
        {
          "indexed": true,
          "internalType": "address",
          "name": "operator",
          "type": "address"
        },
        {
          "indexed": false,
          "internalType": "bool",
          "name": "approved",
          "type": "bool"
        }
      ],
      "name": "ApprovalForAll",
      "type": "event"
    },
    {
      "anonymous": false,
      "inputs": [
        {
          "indexed": true,
          "internalType": "address",
          "name": "from",
          "type": "address"
        },
        {
          "indexed": true,
          "internalType": "address",
          "name": "to",
          "type": "address"
        },
        {
          "indexed": true,
          "internalType": "uint256",
          "name": "tokenId",
          "type": "uint256"
        }
      ],
      "name": "Transfer",
      "type": "event"
    },
    {
      "inputs": [
        {
          "internalType": "address",
          "name": "to",
          "type": "address"
        },
        {
          "internalType": "uint256",
          "name": "tokenId",
          "type": "uint256"
        }
      ],
      "name": "approve",
      "outputs": [],
      "stateMutability": "nonpayable",
      "type": "function"
    },
    {
      "inputs": [
        {
          "internalType": "address",
          "name": "owner",
          "type": "address"
        }
      ],
      "name": "balanceOf",
      "outputs": [
        {
          "internalType": "uint256",
          "name": "",
          "type": "uint256"
        }
      ],
      "stateMutability": "view",
      "type": "function"
    },
    {
      "inputs": [
        {
          "internalType": "uint256",
          "name": "tokenId",
          "type": "uint256"
        }
      ],
      "name": "getApproved",
      "outputs": [
        {
          "internalType": "address",
          "name": "",
          "type": "address"
        }
      ],
      "stateMutability": "view",
      "type": "function"
    },
    {
      "inputs": [],
      "name": "getBaseURI",
      "outputs": [
        {
          "internalType": "string",
          "name": "",
          "type": "string"
        }
      ],
      "stateMutability": "view",
      "type": "function"
    },
    {
      "inputs": [],
      "name": "getOwnerAddress",
      "outputs": [
        {
          "internalType": "address",
          "name": "",
          "type": "address"
        }
      ],
      "stateMutability": "view",
      "type": "function"
    },
    {
      "inputs": [],
      "name": "getReferralAddress",
      "outputs": [
        {
          "internalType": "address",
          "name": "",
          "type": "address"
        }
      ],
      "stateMutability": "view",
      "type": "function"
    },
    {
      "inputs": [
        {
          "internalType": "address",
          "name": "owner",
          "type": "address"
        },
        {
          "internalType": "address",
          "name": "operator",
          "type": "address"
        }
      ],
      "name": "isApprovedForAll",
      "outputs": [
        {
          "internalType": "bool",
          "name": "",
          "type": "bool"
        }
      ],
      "stateMutability": "view",
      "type": "function"
    },
    {
      "inputs": [],
      "name": "name",
      "outputs": [
        {
          "internalType": "string",
          "name": "",
          "type": "string"
        }
      ],
      "stateMutability": "view",
      "type": "function"
    },
    {
      "inputs": [
        {
          "internalType": "uint256",
          "name": "tokenId",
          "type": "uint256"
        }
      ],
      "name": "ownerOf",
      "outputs": [
        {
          "internalType": "address",
          "name": "",
          "type": "address"
        }
      ],
      "stateMutability": "view",
      "type": "function"
    },
    {
      "inputs": [
        {
          "internalType": "address",
          "name": "to",
          "type": "address"
        }
      ],
      "name": "safeMint",
      "outputs": [
        {
          "internalType": "bool",
          "name": "",
          "type": "bool"
        }
      ],
      "stateMutability": "nonpayable",
      "type": "function"
    },
    {
      "inputs": [
        {
          "internalType": "address",
          "name": "from",
          "type": "address"
        },
        {
          "internalType": "address",
          "name": "to",
          "type": "address"
        },
        {
          "internalType": "uint256",
          "name": "tokenId",
          "type": "uint256"
        }
      ],
      "name": "safeTransferFrom",
      "outputs": [],
      "stateMutability": "nonpayable",
      "type": "function"
    },
    {
      "inputs": [
        {
          "internalType": "address",
          "name": "from",
          "type": "address"
        },
        {
          "internalType": "address",
          "name": "to",
          "type": "address"
        },
        {
          "internalType": "uint256",
          "name": "tokenId",
          "type": "uint256"
        },
        {
          "internalType": "bytes",
          "name": "data",
          "type": "bytes"
        }
      ],
      "name": "safeTransferFrom",
      "outputs": [],
      "stateMutability": "nonpayable",
      "type": "function"
    },
    {
      "inputs": [
        {
          "internalType": "address",
          "name": "operator",
          "type": "address"
        },
        {
          "internalType": "bool",
          "name": "approved",
          "type": "bool"
        }
      ],
      "name": "setApprovalForAll",
      "outputs": [],
      "stateMutability": "nonpayable",
      "type": "function"
    },
    {
      "inputs": [
        {
          "internalType": "string",
          "name": "baseURI_",
          "type": "string"
        }
      ],
      "name": "setBaseURI",
      "outputs": [],
      "stateMutability": "nonpayable",
      "type": "function"
    },
    {
      "inputs": [
        {
          "internalType": "address",
          "name": "_owner",
          "type": "address"
        }
      ],
      "name": "setOwner",
      "outputs": [
        {
          "internalType": "bool",
          "name": "",
          "type": "bool"
        }
      ],
      "stateMutability": "nonpayable",
      "type": "function"
    },
    {
      "inputs": [
        {
          "internalType": "address",
          "name": "referral",
          "type": "address"
        }
      ],
      "name": "setReferral",
      "outputs": [
        {
          "internalType": "bool",
          "name": "",
          "type": "bool"
        }
      ],
      "stateMutability": "nonpayable",
      "type": "function"
    },
    {
      "inputs": [
        {
          "internalType": "bytes4",
          "name": "interfaceId",
          "type": "bytes4"
        }
      ],
      "name": "supportsInterface",
      "outputs": [
        {
          "internalType": "bool",
          "name": "",
          "type": "bool"
        }
      ],
      "stateMutability": "view",
      "type": "function"
    },
    {
      "inputs": [],
      "name": "symbol",
      "outputs": [
        {
          "internalType": "string",
          "name": "",
          "type": "string"
        }
      ],
      "stateMutability": "view",
      "type": "function"
    },
    {
      "inputs": [
        {
          "internalType": "uint256",
          "name": "index",
          "type": "uint256"
        }
      ],
      "name": "tokenByIndex",
      "outputs": [
        {
          "internalType": "uint256",
          "name": "",
          "type": "uint256"
        }
      ],
      "stateMutability": "view",
      "type": "function"
    },
    {
      "inputs": [
        {
          "internalType": "address",
          "name": "owner",
          "type": "address"
        },
        {
          "internalType": "uint256",
          "name": "index",
          "type": "uint256"
        }
      ],
      "name": "tokenOfOwnerByIndex",
      "outputs": [
        {
          "internalType": "uint256",
          "name": "",
          "type": "uint256"
        }
      ],
      "stateMutability": "view",
      "type": "function"
    },
    {
      "inputs": [
        {
          "internalType": "uint256",
          "name": "tokenId",
          "type": "uint256"
        }
      ],
      "name": "tokenURI",
      "outputs": [
        {
          "internalType": "string",
          "name": "",
          "type": "string"
        }
      ],
      "stateMutability": "view",
      "type": "function"
    },
    {
      "inputs": [],
      "name": "totalSupply",
      "outputs": [
        {
          "internalType": "uint256",
          "name": "",
          "type": "uint256"
        }
      ],
      "stateMutability": "view",
      "type": "function"
    },
    {
      "inputs": [
        {
          "internalType": "address",
          "name": "from",
          "type": "address"
        },
        {
          "internalType": "address",
          "name": "to",
          "type": "address"
        },
        {
          "internalType": "uint256",
          "name": "tokenId",
          "type": "uint256"
        }
      ],
      "name": "transferFrom",
      "outputs": [],
      "stateMutability": "nonpayable",
      "type": "function"
    }
  ],
  "bytecode": "0x608060405260405180602001604052806000815250600d90805190602001906200002b92919062000133565b503480156200003957600080fd5b506040518060400160405280600581526020017f5175696e740000000000000000000000000000000000000000000000000000008152506040518060400160405280600581526020017f5155494e540000000000000000000000000000000000000000000000000000008152508160009080519060200190620000be92919062000133565b508060019080519060200190620000d792919062000133565b505050620000ea620000f060201b60201c565b62000248565b33600b60006101000a81548173ffffffffffffffffffffffffffffffffffffffff021916908373ffffffffffffffffffffffffffffffffffffffff160217905550565b8280546200014190620001e3565b90600052602060002090601f016020900481019282620001655760008555620001b1565b82601f106200018057805160ff1916838001178555620001b1565b82800160010185558215620001b1579182015b82811115620001b057825182559160200191906001019062000193565b5b509050620001c09190620001c4565b5090565b5b80821115620001df576000816000905550600101620001c5565b5090565b60006002820490506001821680620001fc57607f821691505b6020821081141562000213576200021262000219565b5b50919050565b7f4e487b7100000000000000000000000000000000000000000000000000000000600052602260045260246000fd5b6135e280620002586000396000f3fe608060405234801561001057600080fd5b506004361061014d5760003560e01c806342842e0e116100c357806395d89b411161007c57806395d89b41146103d85780639e5914da146103f6578063a22cb46514610426578063b88d4fde14610442578063c87b56dd1461045e578063e985e9c51461048e5761014d565b806342842e0e146102f25780634f6ccce71461030e57806355f804b31461033e5780636352211e1461035a57806370a082311461038a578063714c5398146103ba5761014d565b806313af40351161011557806313af40351461020a57806318160ddd1461023a57806323b872dd146102585780632f745c591461027457806331c359fa146102a457806340d097c3146102c25761014d565b806301ffc9a71461015257806306fdde0314610182578063081812fc146101a0578063095ea7b3146101d05780630c4f65bd146101ec575b600080fd5b61016c600480360381019061016791906126d2565b6104be565b6040516101799190612b4d565b60405180910390f35b61018a610538565b6040516101979190612b68565b60405180910390f35b6101ba60048036038101906101b59190612765565b6105ca565b6040516101c79190612ae6565b60405180910390f35b6101ea60048036038101906101e59190612696565b610610565b005b6101f4610728565b6040516102019190612ae6565b60405180910390f35b610224600480360381019061021f919061252b565b610752565b6040516102319190612b4d565b60405180910390f35b61024261082e565b60405161024f9190612d6a565b60405180910390f35b610272600480360381019061026d9190612590565b61083b565b005b61028e60048036038101906102899190612696565b61089b565b60405161029b9190612d6a565b60405180910390f35b6102ac610940565b6040516102b99190612ae6565b60405180910390f35b6102dc60048036038101906102d7919061252b565b61096a565b6040516102e99190612b4d565b60405180910390f35b61030c60048036038101906103079190612590565b610a22565b005b61032860048036038101906103239190612765565b610a42565b6040516103359190612d6a565b60405180910390f35b61035860048036038101906103539190612724565b610ad9565b005b610374600480360381019061036f9190612765565b610b83565b6040516103819190612ae6565b60405180910390f35b6103a4600480360381019061039f919061252b565b610c35565b6040516103b19190612d6a565b60405180910390f35b6103c2610ced565b6040516103cf9190612b68565b60405180910390f35b6103e0610d7f565b6040516103ed9190612b68565b60405180910390f35b610410600480360381019061040b919061252b565b610e11565b60405161041d9190612b4d565b60405180910390f35b610440600480360381019061043b919061265a565b610eed565b005b61045c600480360381019061045791906125df565b610f03565b005b61047860048036038101906104739190612765565b610f65565b6040516104859190612b68565b60405180910390f35b6104a860048036038101906104a39190612554565b610fdc565b6040516104b59190612b4d565b60405180910390f35b60007f780e9d63000000000000000000000000000000000000000000000000000000007bffffffffffffffffffffffffffffffffffffffffffffffffffffffff1916827bffffffffffffffffffffffffffffffffffffffffffffffffffffffff19161480610531575061053082611070565b5b9050919050565b60606000805461054790612fc0565b80601f016020809104026020016040519081016040528092919081815260200182805461057390612fc0565b80156105c05780601f10610595576101008083540402835291602001916105c0565b820191906000526020600020905b8154815290600101906020018083116105a357829003601f168201915b5050505050905090565b60006105d582611152565b6004600083815260200190815260200160002060009054906101000a900473ffffffffffffffffffffffffffffffffffffffff169050919050565b600061061b82610b83565b90508073ffffffffffffffffffffffffffffffffffffffff168373ffffffffffffffffffffffffffffffffffffffff16141561068c576040517f08c379a000000000000000000000000000000000000000000000000000000000815260040161068390612cca565b60405180910390fd5b8073ffffffffffffffffffffffffffffffffffffffff166106ab61119d565b73ffffffffffffffffffffffffffffffffffffffff1614806106da57506106d9816106d461119d565b610fdc565b5b610719576040517f08c379a000000000000000000000000000000000000000000000000000000000815260040161071090612c6a565b60405180910390fd5b61072383836111a5565b505050565b6000600b60009054906101000a900473ffffffffffffffffffffffffffffffffffffffff16905090565b6000600b60009054906101000a900473ffffffffffffffffffffffffffffffffffffffff1673ffffffffffffffffffffffffffffffffffffffff163373ffffffffffffffffffffffffffffffffffffffff16146107e4576040517f08c379a00000000000000000000000000000000000000000000000000000000081526004016107db90612cea565b60405180910390fd5b81600b60006101000a81548173ffffffffffffffffffffffffffffffffffffffff021916908373ffffffffffffffffffffffffffffffffffffffff16021790555060019050919050565b6000600880549050905090565b61084c61084661119d565b8261125e565b61088b576040517f08c379a000000000000000000000000000000000000000000000000000000000815260040161088290612d2a565b60405180910390fd5b6108968383836112f3565b505050565b60006108a683610c35565b82106108e7576040517f08c379a00000000000000000000000000000000000000000000000000000000081526004016108de90612b8a565b60405180910390fd5b600660008473ffffffffffffffffffffffffffffffffffffffff1673ffffffffffffffffffffffffffffffffffffffff168152602001908152602001600020600083815260200190815260200160002054905092915050565b6000600c60009054906101000a900473ffffffffffffffffffffffffffffffffffffffff16905090565b6000600c60009054906101000a900473ffffffffffffffffffffffffffffffffffffffff1673ffffffffffffffffffffffffffffffffffffffff163373ffffffffffffffffffffffffffffffffffffffff16146109fc576040517f08c379a00000000000000000000000000000000000000000000000000000000081526004016109f390612d4a565b60405180910390fd5b610a06600a61155a565b610a1982610a14600a611570565b61157e565b60019050919050565b610a3d83838360405180602001604052806000815250610f03565b505050565b6000610a4c61082e565b8210610a8d576040517f08c379a0000000000000000000000000000000000000000000000000000000008152600401610a8490612d0a565b60405180910390fd5b60088281548110610ac7577f4e487b7100000000000000000000000000000000000000000000000000000000600052603260045260246000fd5b90600052602060002001549050919050565b600b60009054906101000a900473ffffffffffffffffffffffffffffffffffffffff1673ffffffffffffffffffffffffffffffffffffffff163373ffffffffffffffffffffffffffffffffffffffff1614610b69576040517f08c379a0000000000000000000000000000000000000000000000000000000008152600401610b6090612cea565b60405180910390fd5b80600d9080519060200190610b7f92919061233a565b5050565b6000806002600084815260200190815260200160002060009054906101000a900473ffffffffffffffffffffffffffffffffffffffff169050600073ffffffffffffffffffffffffffffffffffffffff168173ffffffffffffffffffffffffffffffffffffffff161415610c2c576040517f08c379a0000000000000000000000000000000000000000000000000000000008152600401610c2390612caa565b60405180910390fd5b80915050919050565b60008073ffffffffffffffffffffffffffffffffffffffff168273ffffffffffffffffffffffffffffffffffffffff161415610ca6576040517f08c379a0000000000000000000000000000000000000000000000000000000008152600401610c9d90612c4a565b60405180910390fd5b600360008373ffffffffffffffffffffffffffffffffffffffff1673ffffffffffffffffffffffffffffffffffffffff168152602001908152602001600020549050919050565b6060600d8054610cfc90612fc0565b80601f0160208091040260200160405190810160405280929190818152602001828054610d2890612fc0565b8015610d755780601f10610d4a57610100808354040283529160200191610d75565b820191906000526020600020905b815481529060010190602001808311610d5857829003601f168201915b5050505050905090565b606060018054610d8e90612fc0565b80601f0160208091040260200160405190810160405280929190818152602001828054610dba90612fc0565b8015610e075780601f10610ddc57610100808354040283529160200191610e07565b820191906000526020600020905b815481529060010190602001808311610dea57829003601f168201915b5050505050905090565b6000600b60009054906101000a900473ffffffffffffffffffffffffffffffffffffffff1673ffffffffffffffffffffffffffffffffffffffff163373ffffffffffffffffffffffffffffffffffffffff1614610ea3576040517f08c379a0000000000000000000000000000000000000000000000000000000008152600401610e9a90612cea565b60405180910390fd5b81600c60006101000a81548173ffffffffffffffffffffffffffffffffffffffff021916908373ffffffffffffffffffffffffffffffffffffffff16021790555060019050919050565b610eff610ef861119d565b8383611758565b5050565b610f14610f0e61119d565b8361125e565b610f53576040517f08c379a0000000000000000000000000000000000000000000000000000000008152600401610f4a90612d2a565b60405180910390fd5b610f5f848484846118c5565b50505050565b6060610f7082611152565b6000600d8054610f7f90612fc0565b905011610f9b5760405180602001604052806000815250610fd5565b610fa3611921565b610fb4610faf846119b3565b611a67565b604051602001610fc5929190612ab7565b6040516020818303038152906040525b9050919050565b6000600560008473ffffffffffffffffffffffffffffffffffffffff1673ffffffffffffffffffffffffffffffffffffffff16815260200190815260200160002060008373ffffffffffffffffffffffffffffffffffffffff1673ffffffffffffffffffffffffffffffffffffffff16815260200190815260200160002060009054906101000a900460ff16905092915050565b60007f80ac58cd000000000000000000000000000000000000000000000000000000007bffffffffffffffffffffffffffffffffffffffffffffffffffffffff1916827bffffffffffffffffffffffffffffffffffffffffffffffffffffffff1916148061113b57507f5b5e139f000000000000000000000000000000000000000000000000000000007bffffffffffffffffffffffffffffffffffffffffffffffffffffffff1916827bffffffffffffffffffffffffffffffffffffffffffffffffffffffff1916145b8061114b575061114a82611c14565b5b9050919050565b61115b81611c7e565b61119a576040517f08c379a000000000000000000000000000000000000000000000000000000000815260040161119190612caa565b60405180910390fd5b50565b600033905090565b816004600083815260200190815260200160002060006101000a81548173ffffffffffffffffffffffffffffffffffffffff021916908373ffffffffffffffffffffffffffffffffffffffff160217905550808273ffffffffffffffffffffffffffffffffffffffff1661121883610b83565b73ffffffffffffffffffffffffffffffffffffffff167f8c5be1e5ebec7d5bd14f71427d1e84f3dd0314c0f7b2291e5b200ac8c7c3b92560405160405180910390a45050565b60008061126a83610b83565b90508073ffffffffffffffffffffffffffffffffffffffff168473ffffffffffffffffffffffffffffffffffffffff1614806112ac57506112ab8185610fdc565b5b806112ea57508373ffffffffffffffffffffffffffffffffffffffff166112d2846105ca565b73ffffffffffffffffffffffffffffffffffffffff16145b91505092915050565b8273ffffffffffffffffffffffffffffffffffffffff1661131382610b83565b73ffffffffffffffffffffffffffffffffffffffff1614611369576040517f08c379a000000000000000000000000000000000000000000000000000000000815260040161136090612bca565b60405180910390fd5b600073ffffffffffffffffffffffffffffffffffffffff168273ffffffffffffffffffffffffffffffffffffffff1614156113d9576040517f08c379a00000000000000000000000000000000000000000000000000000000081526004016113d090612c0a565b60405180910390fd5b6113e4838383611cea565b6113ef6000826111a5565b6001600360008573ffffffffffffffffffffffffffffffffffffffff1673ffffffffffffffffffffffffffffffffffffffff168152602001908152602001600020600082825461143f9190612ed6565b925050819055506001600360008473ffffffffffffffffffffffffffffffffffffffff1673ffffffffffffffffffffffffffffffffffffffff16815260200190815260200160002060008282546114969190612e4f565b92505081905550816002600083815260200190815260200160002060006101000a81548173ffffffffffffffffffffffffffffffffffffffff021916908373ffffffffffffffffffffffffffffffffffffffff160217905550808273ffffffffffffffffffffffffffffffffffffffff168473ffffffffffffffffffffffffffffffffffffffff167fddf252ad1be2c89b69c2b068fc378daa952ba7f163c4a11628f55a4df523b3ef60405160405180910390a4611555838383611dfe565b505050565b6001816000016000828254019250508190555050565b600081600001549050919050565b600073ffffffffffffffffffffffffffffffffffffffff168273ffffffffffffffffffffffffffffffffffffffff1614156115ee576040517f08c379a00000000000000000000000000000000000000000000000000000000081526004016115e590612c8a565b60405180910390fd5b6115f781611c7e565b15611637576040517f08c379a000000000000000000000000000000000000000000000000000000000815260040161162e90612bea565b60405180910390fd5b61164360008383611cea565b6001600360008473ffffffffffffffffffffffffffffffffffffffff1673ffffffffffffffffffffffffffffffffffffffff16815260200190815260200160002060008282546116939190612e4f565b92505081905550816002600083815260200190815260200160002060006101000a81548173ffffffffffffffffffffffffffffffffffffffff021916908373ffffffffffffffffffffffffffffffffffffffff160217905550808273ffffffffffffffffffffffffffffffffffffffff16600073ffffffffffffffffffffffffffffffffffffffff167fddf252ad1be2c89b69c2b068fc378daa952ba7f163c4a11628f55a4df523b3ef60405160405180910390a461175460008383611dfe565b5050565b8173ffffffffffffffffffffffffffffffffffffffff168373ffffffffffffffffffffffffffffffffffffffff1614156117c7576040517f08c379a00000000000000000000000000000000000000000000000000000000081526004016117be90612c2a565b60405180910390fd5b80600560008573ffffffffffffffffffffffffffffffffffffffff1673ffffffffffffffffffffffffffffffffffffffff16815260200190815260200160002060008473ffffffffffffffffffffffffffffffffffffffff1673ffffffffffffffffffffffffffffffffffffffff16815260200190815260200160002060006101000a81548160ff0219169083151502179055508173ffffffffffffffffffffffffffffffffffffffff168373ffffffffffffffffffffffffffffffffffffffff167f17307eab39ab6107e8899845ad3d59bd9653f200f220920489ca2b5937696c31836040516118b89190612b4d565b60405180910390a3505050565b6118d08484846112f3565b6118dc84848484611e03565b61191b576040517f08c379a000000000000000000000000000000000000000000000000000000000815260040161191290612baa565b60405180910390fd5b50505050565b6060600d805461193090612fc0565b80601f016020809104026020016040519081016040528092919081815260200182805461195c90612fc0565b80156119a95780601f1061197e576101008083540402835291602001916119a9565b820191906000526020600020905b81548152906001019060200180831161198c57829003601f168201915b5050505050905090565b6000600c60009054906101000a900473ffffffffffffffffffffffffffffffffffffffff1673ffffffffffffffffffffffffffffffffffffffff1663c48510e4836040518263ffffffff1660e01b8152600401611a109190612d6a565b60206040518083038186803b158015611a2857600080fd5b505afa158015611a3c573d6000803e3d6000fd5b505050506040513d601f19601f82011682018060405250810190611a60919061278e565b9050919050565b60606000821415611aaf576040518060400160405280600181526020017f30000000000000000000000000000000000000000000000000000000000000008152509050611c0f565b600082905060005b60008214611ae1578080611aca90613023565b915050600a82611ada9190612ea5565b9150611ab7565b60008167ffffffffffffffff811115611b23577f4e487b7100000000000000000000000000000000000000000000000000000000600052604160045260246000fd5b6040519080825280601f01601f191660200182016040528015611b555781602001600182028036833780820191505090505b5090505b60008514611c0857600182611b6e9190612ed6565b9150600a85611b7d919061306c565b6030611b899190612e4f565b60f81b818381518110611bc5577f4e487b7100000000000000000000000000000000000000000000000000000000600052603260045260246000fd5b60200101907effffffffffffffffffffffffffffffffffffffffffffffffffffffffffffff1916908160001a905350600a85611c019190612ea5565b9450611b59565b8093505050505b919050565b60007f01ffc9a7000000000000000000000000000000000000000000000000000000007bffffffffffffffffffffffffffffffffffffffffffffffffffffffff1916827bffffffffffffffffffffffffffffffffffffffffffffffffffffffff1916149050919050565b60008073ffffffffffffffffffffffffffffffffffffffff166002600084815260200190815260200160002060009054906101000a900473ffffffffffffffffffffffffffffffffffffffff1673ffffffffffffffffffffffffffffffffffffffff1614159050919050565b611cf5838383611f9a565b600073ffffffffffffffffffffffffffffffffffffffff168373ffffffffffffffffffffffffffffffffffffffff161415611d3857611d3381611f9f565b611d77565b8173ffffffffffffffffffffffffffffffffffffffff168373ffffffffffffffffffffffffffffffffffffffff1614611d7657611d758382611fe8565b5b5b600073ffffffffffffffffffffffffffffffffffffffff168273ffffffffffffffffffffffffffffffffffffffff161415611dba57611db581612155565b611df9565b8273ffffffffffffffffffffffffffffffffffffffff168273ffffffffffffffffffffffffffffffffffffffff1614611df857611df78282612298565b5b5b505050565b505050565b6000611e248473ffffffffffffffffffffffffffffffffffffffff16612317565b15611f8d578373ffffffffffffffffffffffffffffffffffffffff1663150b7a02611e4d61119d565b8786866040518563ffffffff1660e01b8152600401611e6f9493929190612b01565b602060405180830381600087803b158015611e8957600080fd5b505af1925050508015611eba57506040513d601f19601f82011682018060405250810190611eb791906126fb565b60015b611f3d573d8060008114611eea576040519150601f19603f3d011682016040523d82523d6000602084013e611eef565b606091505b50600081511415611f35576040517f08c379a0000000000000000000000000000000000000000000000000000000008152600401611f2c90612baa565b60405180910390fd5b805181602001fd5b63150b7a0260e01b7bffffffffffffffffffffffffffffffffffffffffffffffffffffffff1916817bffffffffffffffffffffffffffffffffffffffffffffffffffffffff191614915050611f92565b600190505b949350505050565b505050565b6008805490506009600083815260200190815260200160002081905550600881908060018154018082558091505060019003906000526020600020016000909190919091505550565b60006001611ff584610c35565b611fff9190612ed6565b90506000600760008481526020019081526020016000205490508181146120e4576000600660008673ffffffffffffffffffffffffffffffffffffffff1673ffffffffffffffffffffffffffffffffffffffff168152602001908152602001600020600084815260200190815260200160002054905080600660008773ffffffffffffffffffffffffffffffffffffffff1673ffffffffffffffffffffffffffffffffffffffff168152602001908152602001600020600084815260200190815260200160002081905550816007600083815260200190815260200160002081905550505b6007600084815260200190815260200160002060009055600660008573ffffffffffffffffffffffffffffffffffffffff1673ffffffffffffffffffffffffffffffffffffffff16815260200190815260200160002060008381526020019081526020016000206000905550505050565b600060016008805490506121699190612ed6565b90506000600960008481526020019081526020016000205490506000600883815481106121bf577f4e487b7100000000000000000000000000000000000000000000000000000000600052603260045260246000fd5b906000526020600020015490508060088381548110612207577f4e487b7100000000000000000000000000000000000000000000000000000000600052603260045260246000fd5b90600052602060002001819055508160096000838152602001908152602001600020819055506009600085815260200190815260200160002060009055600880548061227c577f4e487b7100000000000000000000000000000000000000000000000000000000600052603160045260246000fd5b6001900381819060005260206000200160009055905550505050565b60006122a383610c35565b905081600660008573ffffffffffffffffffffffffffffffffffffffff1673ffffffffffffffffffffffffffffffffffffffff168152602001908152602001600020600083815260200190815260200160002081905550806007600084815260200190815260200160002081905550505050565b6000808273ffffffffffffffffffffffffffffffffffffffff163b119050919050565b82805461234690612fc0565b90600052602060002090601f01602090048101928261236857600085556123af565b82601f1061238157805160ff19168380011785556123af565b828001600101855582156123af579182015b828111156123ae578251825591602001919060010190612393565b5b5090506123bc91906123c0565b5090565b5b808211156123d95760008160009055506001016123c1565b5090565b60006123f06123eb84612daa565b612d85565b90508281526020810184848401111561240857600080fd5b612413848285612f7e565b509392505050565b600061242e61242984612ddb565b612d85565b90508281526020810184848401111561244657600080fd5b612451848285612f7e565b509392505050565b60008135905061246881613550565b92915050565b60008135905061247d81613567565b92915050565b6000813590506124928161357e565b92915050565b6000815190506124a78161357e565b92915050565b600082601f8301126124be57600080fd5b81356124ce8482602086016123dd565b91505092915050565b600082601f8301126124e857600080fd5b81356124f884826020860161241b565b91505092915050565b60008135905061251081613595565b92915050565b60008151905061252581613595565b92915050565b60006020828403121561253d57600080fd5b600061254b84828501612459565b91505092915050565b6000806040838503121561256757600080fd5b600061257585828601612459565b925050602061258685828601612459565b9150509250929050565b6000806000606084860312156125a557600080fd5b60006125b386828701612459565b93505060206125c486828701612459565b92505060406125d586828701612501565b9150509250925092565b600080600080608085870312156125f557600080fd5b600061260387828801612459565b945050602061261487828801612459565b935050604061262587828801612501565b925050606085013567ffffffffffffffff81111561264257600080fd5b61264e878288016124ad565b91505092959194509250565b6000806040838503121561266d57600080fd5b600061267b85828601612459565b925050602061268c8582860161246e565b9150509250929050565b600080604083850312156126a957600080fd5b60006126b785828601612459565b92505060206126c885828601612501565b9150509250929050565b6000602082840312156126e457600080fd5b60006126f284828501612483565b91505092915050565b60006020828403121561270d57600080fd5b600061271b84828501612498565b91505092915050565b60006020828403121561273657600080fd5b600082013567ffffffffffffffff81111561275057600080fd5b61275c848285016124d7565b91505092915050565b60006020828403121561277757600080fd5b600061278584828501612501565b91505092915050565b6000602082840312156127a057600080fd5b60006127ae84828501612516565b91505092915050565b6127c081612f0a565b82525050565b6127cf81612f1c565b82525050565b60006127e082612e0c565b6127ea8185612e22565b93506127fa818560208601612f8d565b61280381613159565b840191505092915050565b600061281982612e17565b6128238185612e33565b9350612833818560208601612f8d565b61283c81613159565b840191505092915050565b600061285282612e17565b61285c8185612e44565b935061286c818560208601612f8d565b80840191505092915050565b6000612885602b83612e33565b91506128908261316a565b604082019050919050565b60006128a8603283612e33565b91506128b3826131b9565b604082019050919050565b60006128cb602583612e33565b91506128d682613208565b604082019050919050565b60006128ee601c83612e33565b91506128f982613257565b602082019050919050565b6000612911602483612e33565b915061291c82613280565b604082019050919050565b6000612934601983612e33565b915061293f826132cf565b602082019050919050565b6000612957602983612e33565b9150612962826132f8565b604082019050919050565b600061297a603e83612e33565b915061298582613347565b604082019050919050565b600061299d602083612e33565b91506129a882613396565b602082019050919050565b60006129c0600583612e44565b91506129cb826133bf565b600582019050919050565b60006129e3601883612e33565b91506129ee826133e8565b602082019050919050565b6000612a06602183612e33565b9150612a1182613411565b604082019050919050565b6000612a29601783612e33565b9150612a3482613460565b602082019050919050565b6000612a4c602c83612e33565b9150612a5782613489565b604082019050919050565b6000612a6f602e83612e33565b9150612a7a826134d8565b604082019050919050565b6000612a92601a83612e33565b9150612a9d82613527565b602082019050919050565b612ab181612f74565b82525050565b6000612ac38285612847565b9150612acf8284612847565b9150612ada826129b3565b91508190509392505050565b6000602082019050612afb60008301846127b7565b92915050565b6000608082019050612b1660008301876127b7565b612b2360208301866127b7565b612b306040830185612aa8565b8181036060830152612b4281846127d5565b905095945050505050565b6000602082019050612b6260008301846127c6565b92915050565b60006020820190508181036000830152612b82818461280e565b905092915050565b60006020820190508181036000830152612ba381612878565b9050919050565b60006020820190508181036000830152612bc38161289b565b9050919050565b60006020820190508181036000830152612be3816128be565b9050919050565b60006020820190508181036000830152612c03816128e1565b9050919050565b60006020820190508181036000830152612c2381612904565b9050919050565b60006020820190508181036000830152612c4381612927565b9050919050565b60006020820190508181036000830152612c638161294a565b9050919050565b60006020820190508181036000830152612c838161296d565b9050919050565b60006020820190508181036000830152612ca381612990565b9050919050565b60006020820190508181036000830152612cc3816129d6565b9050919050565b60006020820190508181036000830152612ce3816129f9565b9050919050565b60006020820190508181036000830152612d0381612a1c565b9050919050565b60006020820190508181036000830152612d2381612a3f565b9050919050565b60006020820190508181036000830152612d4381612a62565b9050919050565b60006020820190508181036000830152612d6381612a85565b9050919050565b6000602082019050612d7f6000830184612aa8565b92915050565b6000612d8f612da0565b9050612d9b8282612ff2565b919050565b6000604051905090565b600067ffffffffffffffff821115612dc557612dc461312a565b5b612dce82613159565b9050602081019050919050565b600067ffffffffffffffff821115612df657612df561312a565b5b612dff82613159565b9050602081019050919050565b600081519050919050565b600081519050919050565b600082825260208201905092915050565b600082825260208201905092915050565b600081905092915050565b6000612e5a82612f74565b9150612e6583612f74565b9250827fffffffffffffffffffffffffffffffffffffffffffffffffffffffffffffffff03821115612e9a57612e9961309d565b5b828201905092915050565b6000612eb082612f74565b9150612ebb83612f74565b925082612ecb57612eca6130cc565b5b828204905092915050565b6000612ee182612f74565b9150612eec83612f74565b925082821015612eff57612efe61309d565b5b828203905092915050565b6000612f1582612f54565b9050919050565b60008115159050919050565b60007fffffffff0000000000000000000000000000000000000000000000000000000082169050919050565b600073ffffffffffffffffffffffffffffffffffffffff82169050919050565b6000819050919050565b82818337600083830152505050565b60005b83811015612fab578082015181840152602081019050612f90565b83811115612fba576000848401525b50505050565b60006002820490506001821680612fd857607f821691505b60208210811415612fec57612feb6130fb565b5b50919050565b612ffb82613159565b810181811067ffffffffffffffff8211171561301a5761301961312a565b5b80604052505050565b600061302e82612f74565b91507fffffffffffffffffffffffffffffffffffffffffffffffffffffffffffffffff8214156130615761306061309d565b5b600182019050919050565b600061307782612f74565b915061308283612f74565b925082613092576130916130cc565b5b828206905092915050565b7f4e487b7100000000000000000000000000000000000000000000000000000000600052601160045260246000fd5b7f4e487b7100000000000000000000000000000000000000000000000000000000600052601260045260246000fd5b7f4e487b7100000000000000000000000000000000000000000000000000000000600052602260045260246000fd5b7f4e487b7100000000000000000000000000000000000000000000000000000000600052604160045260246000fd5b6000601f19601f8301169050919050565b7f455243373231456e756d657261626c653a206f776e657220696e646578206f7560008201527f74206f6620626f756e6473000000000000000000000000000000000000000000602082015250565b7f4552433732313a207472616e7366657220746f206e6f6e20455243373231526560008201527f63656976657220696d706c656d656e7465720000000000000000000000000000602082015250565b7f4552433732313a207472616e736665722066726f6d20696e636f72726563742060008201527f6f776e6572000000000000000000000000000000000000000000000000000000602082015250565b7f4552433732313a20746f6b656e20616c7265616479206d696e74656400000000600082015250565b7f4552433732313a207472616e7366657220746f20746865207a65726f2061646460008201527f7265737300000000000000000000000000000000000000000000000000000000602082015250565b7f4552433732313a20617070726f766520746f2063616c6c657200000000000000600082015250565b7f4552433732313a2061646472657373207a65726f206973206e6f74206120766160008201527f6c6964206f776e65720000000000000000000000000000000000000000000000602082015250565b7f4552433732313a20617070726f76652063616c6c6572206973206e6f7420746f60008201527f6b656e206f776e6572206e6f7220617070726f76656420666f7220616c6c0000602082015250565b7f4552433732313a206d696e7420746f20746865207a65726f2061646472657373600082015250565b7f2e6a736f6e000000000000000000000000000000000000000000000000000000600082015250565b7f4552433732313a20696e76616c696420746f6b656e2049440000000000000000600082015250565b7f4552433732313a20617070726f76616c20746f2063757272656e74206f776e6560008201527f7200000000000000000000000000000000000000000000000000000000000000602082015250565b7f5468652063616c6c6572206973206e6f74206f776e6572000000000000000000600082015250565b7f455243373231456e756d657261626c653a20676c6f62616c20696e646578206f60008201527f7574206f6620626f756e64730000000000000000000000000000000000000000602082015250565b7f4552433732313a2063616c6c6572206973206e6f7420746f6b656e206f776e6560008201527f72206e6f7220617070726f766564000000000000000000000000000000000000602082015250565b7f5468652063616c6c6572206973206e6f7420726566657272616c000000000000600082015250565b61355981612f0a565b811461356457600080fd5b50565b61357081612f1c565b811461357b57600080fd5b50565b61358781612f28565b811461359257600080fd5b50565b61359e81612f74565b81146135a957600080fd5b5056fea2646970667358221220dc129f1221baaf3b1c3d2e72005debcd575c26bcdb845ff545733dbd1a040eae64736f6c63430008010033",
  "linkReferences": {},
  "deployedLinkReferences": {}
}