{
  "_format": "hh-sol-artifact-1",
  "contractName": "NFT",
  "sourceName": "contracts/ERC721.sol",
  "abi": [
    {
      "inputs": [],
      "stateMutability": "nonpayable",
      "type": "constructor"
    },
    {
      "anonymous": false,
      "inputs": [
        {
          "indexed": true,
          "internalType": "address",
          "name": "owner",
          "type": "address"
        },
        {
          "indexed": true,
          "internalType": "address",
          "name": "approved",
          "type": "address"
        },
        {
          "indexed": true,
          "internalType": "uint256",
          "name": "tokenId",
          "type": "uint256"
        }
      ],
      "name": "Approval",
      "type": "event"
    },
    {
      "anonymous": false,
      "inputs": [
        {
          "indexed": true,
          "internalType": "address",
          "name": "owner",
          "type": "address"
        },
        {
          "indexed": true,
          "internalType": "address",
          "name": "operator",
          "type": "address"
        },
        {
          "indexed": false,
          "internalType": "bool",
          "name": "approved",
          "type": "bool"
        }
      ],
      "name": "ApprovalForAll",
      "type": "event"
    },
    {
      "anonymous": false,
      "inputs": [
        {
          "indexed": true,
          "internalType": "address",
          "name": "from",
          "type": "address"
        },
        {
          "indexed": true,
          "internalType": "address",
          "name": "to",
          "type": "address"
        },
        {
          "indexed": true,
          "internalType": "uint256",
          "name": "tokenId",
          "type": "uint256"
        }
      ],
      "name": "Transfer",
      "type": "event"
    },
    {
      "inputs": [
        {
          "internalType": "address",
          "name": "to",
          "type": "address"
        },
        {
          "internalType": "uint256",
          "name": "tokenId",
          "type": "uint256"
        }
      ],
      "name": "approve",
      "outputs": [],
      "stateMutability": "nonpayable",
      "type": "function"
    },
    {
      "inputs": [
        {
          "internalType": "address",
          "name": "owner",
          "type": "address"
        }
      ],
      "name": "balanceOf",
      "outputs": [
        {
          "internalType": "uint256",
          "name": "",
          "type": "uint256"
        }
      ],
      "stateMutability": "view",
      "type": "function"
    },
    {
      "inputs": [
        {
          "internalType": "uint256",
          "name": "tokenId",
          "type": "uint256"
        }
      ],
      "name": "getApproved",
      "outputs": [
        {
          "internalType": "address",
          "name": "",
          "type": "address"
        }
      ],
      "stateMutability": "view",
      "type": "function"
    },
    {
      "inputs": [],
      "name": "getBaseURI",
      "outputs": [
        {
          "internalType": "string",
          "name": "",
          "type": "string"
        }
      ],
      "stateMutability": "view",
      "type": "function"
    },
    {
      "inputs": [],
      "name": "getOwnerAddress",
      "outputs": [
        {
          "internalType": "address",
          "name": "",
          "type": "address"
        }
      ],
      "stateMutability": "view",
      "type": "function"
    },
    {
      "inputs": [],
      "name": "getReferralAddress",
      "outputs": [
        {
          "internalType": "address",
          "name": "",
          "type": "address"
        }
      ],
      "stateMutability": "view",
      "type": "function"
    },
    {
      "inputs": [
        {
          "internalType": "address",
          "name": "owner",
          "type": "address"
        },
        {
          "internalType": "address",
          "name": "operator",
          "type": "address"
        }
      ],
      "name": "isApprovedForAll",
      "outputs": [
        {
          "internalType": "bool",
          "name": "",
          "type": "bool"
        }
      ],
      "stateMutability": "view",
      "type": "function"
    },
    {
      "inputs": [],
      "name": "name",
      "outputs": [
        {
          "internalType": "string",
          "name": "",
          "type": "string"
        }
      ],
      "stateMutability": "view",
      "type": "function"
    },
    {
      "inputs": [
        {
          "internalType": "uint256",
          "name": "tokenId",
          "type": "uint256"
        }
      ],
      "name": "ownerOf",
      "outputs": [
        {
          "internalType": "address",
          "name": "",
          "type": "address"
        }
      ],
      "stateMutability": "view",
      "type": "function"
    },
    {
      "inputs": [
        {
          "internalType": "address",
          "name": "to",
          "type": "address"
        }
      ],
      "name": "safeMint",
      "outputs": [
        {
          "internalType": "bool",
          "name": "",
          "type": "bool"
        }
      ],
      "stateMutability": "nonpayable",
      "type": "function"
    },
    {
      "inputs": [
        {
          "internalType": "address",
          "name": "from",
          "type": "address"
        },
        {
          "internalType": "address",
          "name": "to",
          "type": "address"
        },
        {
          "internalType": "uint256",
          "name": "tokenId",
          "type": "uint256"
        }
      ],
      "name": "safeTransferFrom",
      "outputs": [],
      "stateMutability": "nonpayable",
      "type": "function"
    },
    {
      "inputs": [
        {
          "internalType": "address",
          "name": "from",
          "type": "address"
        },
        {
          "internalType": "address",
          "name": "to",
          "type": "address"
        },
        {
          "internalType": "uint256",
          "name": "tokenId",
          "type": "uint256"
        },
        {
          "internalType": "bytes",
          "name": "data",
          "type": "bytes"
        }
      ],
      "name": "safeTransferFrom",
      "outputs": [],
      "stateMutability": "nonpayable",
      "type": "function"
    },
    {
      "inputs": [
        {
          "internalType": "address",
          "name": "operator",
          "type": "address"
        },
        {
          "internalType": "bool",
          "name": "approved",
          "type": "bool"
        }
      ],
      "name": "setApprovalForAll",
      "outputs": [],
      "stateMutability": "nonpayable",
      "type": "function"
    },
    {
      "inputs": [
        {
          "internalType": "string",
          "name": "baseURI_",
          "type": "string"
        }
      ],
      "name": "setBaseURI",
      "outputs": [],
      "stateMutability": "nonpayable",
      "type": "function"
    },
    {
      "inputs": [
        {
          "internalType": "address",
          "name": "referral",
          "type": "address"
        }
      ],
      "name": "setReferral",
      "outputs": [
        {
          "internalType": "bool",
          "name": "",
          "type": "bool"
        }
      ],
      "stateMutability": "nonpayable",
      "type": "function"
    },
    {
      "inputs": [
        {
          "internalType": "bytes4",
          "name": "interfaceId",
          "type": "bytes4"
        }
      ],
      "name": "supportsInterface",
      "outputs": [
        {
          "internalType": "bool",
          "name": "",
          "type": "bool"
        }
      ],
      "stateMutability": "view",
      "type": "function"
    },
    {
      "inputs": [],
      "name": "symbol",
      "outputs": [
        {
          "internalType": "string",
          "name": "",
          "type": "string"
        }
      ],
      "stateMutability": "view",
      "type": "function"
    },
    {
      "inputs": [
        {
          "internalType": "uint256",
          "name": "index",
          "type": "uint256"
        }
      ],
      "name": "tokenByIndex",
      "outputs": [
        {
          "internalType": "uint256",
          "name": "",
          "type": "uint256"
        }
      ],
      "stateMutability": "view",
      "type": "function"
    },
    {
      "inputs": [
        {
          "internalType": "address",
          "name": "owner",
          "type": "address"
        },
        {
          "internalType": "uint256",
          "name": "index",
          "type": "uint256"
        }
      ],
      "name": "tokenOfOwnerByIndex",
      "outputs": [
        {
          "internalType": "uint256",
          "name": "",
          "type": "uint256"
        }
      ],
      "stateMutability": "view",
      "type": "function"
    },
    {
      "inputs": [
        {
          "internalType": "uint256",
          "name": "tokenId",
          "type": "uint256"
        }
      ],
      "name": "tokenURI",
      "outputs": [
        {
          "internalType": "string",
          "name": "",
          "type": "string"
        }
      ],
      "stateMutability": "view",
      "type": "function"
    },
    {
      "inputs": [],
      "name": "totalSupply",
      "outputs": [
        {
          "internalType": "uint256",
          "name": "",
          "type": "uint256"
        }
      ],
      "stateMutability": "view",
      "type": "function"
    },
    {
      "inputs": [
        {
          "internalType": "address",
          "name": "from",
          "type": "address"
        },
        {
          "internalType": "address",
          "name": "to",
          "type": "address"
        },
        {
          "internalType": "uint256",
          "name": "tokenId",
          "type": "uint256"
        }
      ],
      "name": "transferFrom",
      "outputs": [],
      "stateMutability": "nonpayable",
      "type": "function"
    }
  ],
  "bytecode": "0x608060405260405180602001604052806000815250600d90805190602001906200002b92919062000133565b503480156200003957600080fd5b506040518060400160405280600581526020017f5175696e740000000000000000000000000000000000000000000000000000008152506040518060400160405280600581526020017f5155494e540000000000000000000000000000000000000000000000000000008152508160009080519060200190620000be92919062000133565b508060019080519060200190620000d792919062000133565b505050620000ea620000f060201b60201c565b62000248565b33600b60006101000a81548173ffffffffffffffffffffffffffffffffffffffff021916908373ffffffffffffffffffffffffffffffffffffffff160217905550565b8280546200014190620001e3565b90600052602060002090601f016020900481019282620001655760008555620001b1565b82601f106200018057805160ff1916838001178555620001b1565b82800160010185558215620001b1579182015b82811115620001b057825182559160200191906001019062000193565b5b509050620001c09190620001c4565b5090565b5b80821115620001df576000816000905550600101620001c5565b5090565b60006002820490506001821680620001fc57607f821691505b6020821081141562000213576200021262000219565b5b50919050565b7f4e487b7100000000000000000000000000000000000000000000000000000000600052602260045260246000fd5b6134cb80620002586000396000f3fe608060405234801561001057600080fd5b50600436106101425760003560e01c80634f6ccce7116100b857806395d89b411161007c57806395d89b411461039d5780639e5914da146103bb578063a22cb465146103eb578063b88d4fde14610407578063c87b56dd14610423578063e985e9c51461045357610142565b80634f6ccce7146102d357806355f804b3146103035780636352211e1461031f57806370a082311461034f578063714c53981461037f57610142565b806318160ddd1161010a57806318160ddd146101ff57806323b872dd1461021d5780632f745c591461023957806331c359fa1461026957806340d097c31461028757806342842e0e146102b757610142565b806301ffc9a71461014757806306fdde0314610177578063081812fc14610195578063095ea7b3146101c55780630c4f65bd146101e1575b600080fd5b610161600480360381019061015c91906125bb565b610483565b60405161016e9190612a36565b60405180910390f35b61017f6104fd565b60405161018c9190612a51565b60405180910390f35b6101af60048036038101906101aa919061264e565b61058f565b6040516101bc91906129cf565b60405180910390f35b6101df60048036038101906101da919061257f565b6105d5565b005b6101e96106ed565b6040516101f691906129cf565b60405180910390f35b610207610717565b6040516102149190612c53565b60405180910390f35b61023760048036038101906102329190612479565b610724565b005b610253600480360381019061024e919061257f565b610784565b6040516102609190612c53565b60405180910390f35b610271610829565b60405161027e91906129cf565b60405180910390f35b6102a1600480360381019061029c9190612414565b610853565b6040516102ae9190612a36565b60405180910390f35b6102d160048036038101906102cc9190612479565b61090b565b005b6102ed60048036038101906102e8919061264e565b61092b565b6040516102fa9190612c53565b60405180910390f35b61031d6004803603810190610318919061260d565b6109c2565b005b6103396004803603810190610334919061264e565b610a6c565b60405161034691906129cf565b60405180910390f35b61036960048036038101906103649190612414565b610b1e565b6040516103769190612c53565b60405180910390f35b610387610bd6565b6040516103949190612a51565b60405180910390f35b6103a5610c68565b6040516103b29190612a51565b60405180910390f35b6103d560048036038101906103d09190612414565b610cfa565b6040516103e29190612a36565b60405180910390f35b61040560048036038101906104009190612543565b610dd6565b005b610421600480360381019061041c91906124c8565b610dec565b005b61043d6004803603810190610438919061264e565b610e4e565b60405161044a9190612a51565b60405180910390f35b61046d6004803603810190610468919061243d565b610ec5565b60405161047a9190612a36565b60405180910390f35b60007f780e9d63000000000000000000000000000000000000000000000000000000007bffffffffffffffffffffffffffffffffffffffffffffffffffffffff1916827bffffffffffffffffffffffffffffffffffffffffffffffffffffffff191614806104f657506104f582610f59565b5b9050919050565b60606000805461050c90612ea9565b80601f016020809104026020016040519081016040528092919081815260200182805461053890612ea9565b80156105855780601f1061055a57610100808354040283529160200191610585565b820191906000526020600020905b81548152906001019060200180831161056857829003601f168201915b5050505050905090565b600061059a8261103b565b6004600083815260200190815260200160002060009054906101000a900473ffffffffffffffffffffffffffffffffffffffff169050919050565b60006105e082610a6c565b90508073ffffffffffffffffffffffffffffffffffffffff168373ffffffffffffffffffffffffffffffffffffffff161415610651576040517f08c379a000000000000000000000000000000000000000000000000000000000815260040161064890612bb3565b60405180910390fd5b8073ffffffffffffffffffffffffffffffffffffffff16610670611086565b73ffffffffffffffffffffffffffffffffffffffff16148061069f575061069e81610699611086565b610ec5565b5b6106de576040517f08c379a00000000000000000000000000000000000000000000000000000000081526004016106d590612b53565b60405180910390fd5b6106e8838361108e565b505050565b6000600b60009054906101000a900473ffffffffffffffffffffffffffffffffffffffff16905090565b6000600880549050905090565b61073561072f611086565b82611147565b610774576040517f08c379a000000000000000000000000000000000000000000000000000000000815260040161076b90612c13565b60405180910390fd5b61077f8383836111dc565b505050565b600061078f83610b1e565b82106107d0576040517f08c379a00000000000000000000000000000000000000000000000000000000081526004016107c790612a73565b60405180910390fd5b600660008473ffffffffffffffffffffffffffffffffffffffff1673ffffffffffffffffffffffffffffffffffffffff168152602001908152602001600020600083815260200190815260200160002054905092915050565b6000600c60009054906101000a900473ffffffffffffffffffffffffffffffffffffffff16905090565b6000600c60009054906101000a900473ffffffffffffffffffffffffffffffffffffffff1673ffffffffffffffffffffffffffffffffffffffff163373ffffffffffffffffffffffffffffffffffffffff16146108e5576040517f08c379a00000000000000000000000000000000000000000000000000000000081526004016108dc90612c33565b60405180910390fd5b6108ef600a611443565b610902826108fd600a611459565b611467565b60019050919050565b61092683838360405180602001604052806000815250610dec565b505050565b6000610935610717565b8210610976576040517f08c379a000000000000000000000000000000000000000000000000000000000815260040161096d90612bf3565b60405180910390fd5b600882815481106109b0577f4e487b7100000000000000000000000000000000000000000000000000000000600052603260045260246000fd5b90600052602060002001549050919050565b600b60009054906101000a900473ffffffffffffffffffffffffffffffffffffffff1673ffffffffffffffffffffffffffffffffffffffff163373ffffffffffffffffffffffffffffffffffffffff1614610a52576040517f08c379a0000000000000000000000000000000000000000000000000000000008152600401610a4990612bd3565b60405180910390fd5b80600d9080519060200190610a68929190612223565b5050565b6000806002600084815260200190815260200160002060009054906101000a900473ffffffffffffffffffffffffffffffffffffffff169050600073ffffffffffffffffffffffffffffffffffffffff168173ffffffffffffffffffffffffffffffffffffffff161415610b15576040517f08c379a0000000000000000000000000000000000000000000000000000000008152600401610b0c90612b93565b60405180910390fd5b80915050919050565b60008073ffffffffffffffffffffffffffffffffffffffff168273ffffffffffffffffffffffffffffffffffffffff161415610b8f576040517f08c379a0000000000000000000000000000000000000000000000000000000008152600401610b8690612b33565b60405180910390fd5b600360008373ffffffffffffffffffffffffffffffffffffffff1673ffffffffffffffffffffffffffffffffffffffff168152602001908152602001600020549050919050565b6060600d8054610be590612ea9565b80601f0160208091040260200160405190810160405280929190818152602001828054610c1190612ea9565b8015610c5e5780601f10610c3357610100808354040283529160200191610c5e565b820191906000526020600020905b815481529060010190602001808311610c4157829003601f168201915b5050505050905090565b606060018054610c7790612ea9565b80601f0160208091040260200160405190810160405280929190818152602001828054610ca390612ea9565b8015610cf05780601f10610cc557610100808354040283529160200191610cf0565b820191906000526020600020905b815481529060010190602001808311610cd357829003601f168201915b5050505050905090565b6000600b60009054906101000a900473ffffffffffffffffffffffffffffffffffffffff1673ffffffffffffffffffffffffffffffffffffffff163373ffffffffffffffffffffffffffffffffffffffff1614610d8c576040517f08c379a0000000000000000000000000000000000000000000000000000000008152600401610d8390612bd3565b60405180910390fd5b81600c60006101000a81548173ffffffffffffffffffffffffffffffffffffffff021916908373ffffffffffffffffffffffffffffffffffffffff16021790555060019050919050565b610de8610de1611086565b8383611641565b5050565b610dfd610df7611086565b83611147565b610e3c576040517f08c379a0000000000000000000000000000000000000000000000000000000008152600401610e3390612c13565b60405180910390fd5b610e48848484846117ae565b50505050565b6060610e598261103b565b6000600d8054610e6890612ea9565b905011610e845760405180602001604052806000815250610ebe565b610e8c61180a565b610e9d610e988461189c565b611950565b604051602001610eae9291906129a0565b6040516020818303038152906040525b9050919050565b6000600560008473ffffffffffffffffffffffffffffffffffffffff1673ffffffffffffffffffffffffffffffffffffffff16815260200190815260200160002060008373ffffffffffffffffffffffffffffffffffffffff1673ffffffffffffffffffffffffffffffffffffffff16815260200190815260200160002060009054906101000a900460ff16905092915050565b60007f80ac58cd000000000000000000000000000000000000000000000000000000007bffffffffffffffffffffffffffffffffffffffffffffffffffffffff1916827bffffffffffffffffffffffffffffffffffffffffffffffffffffffff1916148061102457507f5b5e139f000000000000000000000000000000000000000000000000000000007bffffffffffffffffffffffffffffffffffffffffffffffffffffffff1916827bffffffffffffffffffffffffffffffffffffffffffffffffffffffff1916145b80611034575061103382611afd565b5b9050919050565b61104481611b67565b611083576040517f08c379a000000000000000000000000000000000000000000000000000000000815260040161107a90612b93565b60405180910390fd5b50565b600033905090565b816004600083815260200190815260200160002060006101000a81548173ffffffffffffffffffffffffffffffffffffffff021916908373ffffffffffffffffffffffffffffffffffffffff160217905550808273ffffffffffffffffffffffffffffffffffffffff1661110183610a6c565b73ffffffffffffffffffffffffffffffffffffffff167f8c5be1e5ebec7d5bd14f71427d1e84f3dd0314c0f7b2291e5b200ac8c7c3b92560405160405180910390a45050565b60008061115383610a6c565b90508073ffffffffffffffffffffffffffffffffffffffff168473ffffffffffffffffffffffffffffffffffffffff16148061119557506111948185610ec5565b5b806111d357508373ffffffffffffffffffffffffffffffffffffffff166111bb8461058f565b73ffffffffffffffffffffffffffffffffffffffff16145b91505092915050565b8273ffffffffffffffffffffffffffffffffffffffff166111fc82610a6c565b73ffffffffffffffffffffffffffffffffffffffff1614611252576040517f08c379a000000000000000000000000000000000000000000000000000000000815260040161124990612ab3565b60405180910390fd5b600073ffffffffffffffffffffffffffffffffffffffff168273ffffffffffffffffffffffffffffffffffffffff1614156112c2576040517f08c379a00000000000000000000000000000000000000000000000000000000081526004016112b990612af3565b60405180910390fd5b6112cd838383611bd3565b6112d860008261108e565b6001600360008573ffffffffffffffffffffffffffffffffffffffff1673ffffffffffffffffffffffffffffffffffffffff16815260200190815260200160002060008282546113289190612dbf565b925050819055506001600360008473ffffffffffffffffffffffffffffffffffffffff1673ffffffffffffffffffffffffffffffffffffffff168152602001908152602001600020600082825461137f9190612d38565b92505081905550816002600083815260200190815260200160002060006101000a81548173ffffffffffffffffffffffffffffffffffffffff021916908373ffffffffffffffffffffffffffffffffffffffff160217905550808273ffffffffffffffffffffffffffffffffffffffff168473ffffffffffffffffffffffffffffffffffffffff167fddf252ad1be2c89b69c2b068fc378daa952ba7f163c4a11628f55a4df523b3ef60405160405180910390a461143e838383611ce7565b505050565b6001816000016000828254019250508190555050565b600081600001549050919050565b600073ffffffffffffffffffffffffffffffffffffffff168273ffffffffffffffffffffffffffffffffffffffff1614156114d7576040517f08c379a00000000000000000000000000000000000000000000000000000000081526004016114ce90612b73565b60405180910390fd5b6114e081611b67565b15611520576040517f08c379a000000000000000000000000000000000000000000000000000000000815260040161151790612ad3565b60405180910390fd5b61152c60008383611bd3565b6001600360008473ffffffffffffffffffffffffffffffffffffffff1673ffffffffffffffffffffffffffffffffffffffff168152602001908152602001600020600082825461157c9190612d38565b92505081905550816002600083815260200190815260200160002060006101000a81548173ffffffffffffffffffffffffffffffffffffffff021916908373ffffffffffffffffffffffffffffffffffffffff160217905550808273ffffffffffffffffffffffffffffffffffffffff16600073ffffffffffffffffffffffffffffffffffffffff167fddf252ad1be2c89b69c2b068fc378daa952ba7f163c4a11628f55a4df523b3ef60405160405180910390a461163d60008383611ce7565b5050565b8173ffffffffffffffffffffffffffffffffffffffff168373ffffffffffffffffffffffffffffffffffffffff1614156116b0576040517f08c379a00000000000000000000000000000000000000000000000000000000081526004016116a790612b13565b60405180910390fd5b80600560008573ffffffffffffffffffffffffffffffffffffffff1673ffffffffffffffffffffffffffffffffffffffff16815260200190815260200160002060008473ffffffffffffffffffffffffffffffffffffffff1673ffffffffffffffffffffffffffffffffffffffff16815260200190815260200160002060006101000a81548160ff0219169083151502179055508173ffffffffffffffffffffffffffffffffffffffff168373ffffffffffffffffffffffffffffffffffffffff167f17307eab39ab6107e8899845ad3d59bd9653f200f220920489ca2b5937696c31836040516117a19190612a36565b60405180910390a3505050565b6117b98484846111dc565b6117c584848484611cec565b611804576040517f08c379a00000000000000000000000000000000000000000000000000000000081526004016117fb90612a93565b60405180910390fd5b50505050565b6060600d805461181990612ea9565b80601f016020809104026020016040519081016040528092919081815260200182805461184590612ea9565b80156118925780601f1061186757610100808354040283529160200191611892565b820191906000526020600020905b81548152906001019060200180831161187557829003601f168201915b5050505050905090565b6000600c60009054906101000a900473ffffffffffffffffffffffffffffffffffffffff1673ffffffffffffffffffffffffffffffffffffffff1663c48510e4836040518263ffffffff1660e01b81526004016118f99190612c53565b60206040518083038186803b15801561191157600080fd5b505afa158015611925573d6000803e3d6000fd5b505050506040513d601f19601f820116820180604052508101906119499190612677565b9050919050565b60606000821415611998576040518060400160405280600181526020017f30000000000000000000000000000000000000000000000000000000000000008152509050611af8565b600082905060005b600082146119ca5780806119b390612f0c565b915050600a826119c39190612d8e565b91506119a0565b60008167ffffffffffffffff811115611a0c577f4e487b7100000000000000000000000000000000000000000000000000000000600052604160045260246000fd5b6040519080825280601f01601f191660200182016040528015611a3e5781602001600182028036833780820191505090505b5090505b60008514611af157600182611a579190612dbf565b9150600a85611a669190612f55565b6030611a729190612d38565b60f81b818381518110611aae577f4e487b7100000000000000000000000000000000000000000000000000000000600052603260045260246000fd5b60200101907effffffffffffffffffffffffffffffffffffffffffffffffffffffffffffff1916908160001a905350600a85611aea9190612d8e565b9450611a42565b8093505050505b919050565b60007f01ffc9a7000000000000000000000000000000000000000000000000000000007bffffffffffffffffffffffffffffffffffffffffffffffffffffffff1916827bffffffffffffffffffffffffffffffffffffffffffffffffffffffff1916149050919050565b60008073ffffffffffffffffffffffffffffffffffffffff166002600084815260200190815260200160002060009054906101000a900473ffffffffffffffffffffffffffffffffffffffff1673ffffffffffffffffffffffffffffffffffffffff1614159050919050565b611bde838383611e83565b600073ffffffffffffffffffffffffffffffffffffffff168373ffffffffffffffffffffffffffffffffffffffff161415611c2157611c1c81611e88565b611c60565b8173ffffffffffffffffffffffffffffffffffffffff168373ffffffffffffffffffffffffffffffffffffffff1614611c5f57611c5e8382611ed1565b5b5b600073ffffffffffffffffffffffffffffffffffffffff168273ffffffffffffffffffffffffffffffffffffffff161415611ca357611c9e8161203e565b611ce2565b8273ffffffffffffffffffffffffffffffffffffffff168273ffffffffffffffffffffffffffffffffffffffff1614611ce157611ce08282612181565b5b5b505050565b505050565b6000611d0d8473ffffffffffffffffffffffffffffffffffffffff16612200565b15611e76578373ffffffffffffffffffffffffffffffffffffffff1663150b7a02611d36611086565b8786866040518563ffffffff1660e01b8152600401611d5894939291906129ea565b602060405180830381600087803b158015611d7257600080fd5b505af1925050508015611da357506040513d601f19601f82011682018060405250810190611da091906125e4565b60015b611e26573d8060008114611dd3576040519150601f19603f3d011682016040523d82523d6000602084013e611dd8565b606091505b50600081511415611e1e576040517f08c379a0000000000000000000000000000000000000000000000000000000008152600401611e1590612a93565b60405180910390fd5b805181602001fd5b63150b7a0260e01b7bffffffffffffffffffffffffffffffffffffffffffffffffffffffff1916817bffffffffffffffffffffffffffffffffffffffffffffffffffffffff191614915050611e7b565b600190505b949350505050565b505050565b6008805490506009600083815260200190815260200160002081905550600881908060018154018082558091505060019003906000526020600020016000909190919091505550565b60006001611ede84610b1e565b611ee89190612dbf565b9050600060076000848152602001908152602001600020549050818114611fcd576000600660008673ffffffffffffffffffffffffffffffffffffffff1673ffffffffffffffffffffffffffffffffffffffff168152602001908152602001600020600084815260200190815260200160002054905080600660008773ffffffffffffffffffffffffffffffffffffffff1673ffffffffffffffffffffffffffffffffffffffff168152602001908152602001600020600084815260200190815260200160002081905550816007600083815260200190815260200160002081905550505b6007600084815260200190815260200160002060009055600660008573ffffffffffffffffffffffffffffffffffffffff1673ffffffffffffffffffffffffffffffffffffffff16815260200190815260200160002060008381526020019081526020016000206000905550505050565b600060016008805490506120529190612dbf565b90506000600960008481526020019081526020016000205490506000600883815481106120a8577f4e487b7100000000000000000000000000000000000000000000000000000000600052603260045260246000fd5b9060005260206000200154905080600883815481106120f0577f4e487b7100000000000000000000000000000000000000000000000000000000600052603260045260246000fd5b906000526020600020018190555081600960008381526020019081526020016000208190555060096000858152602001908152602001600020600090556008805480612165577f4e487b7100000000000000000000000000000000000000000000000000000000600052603160045260246000fd5b6001900381819060005260206000200160009055905550505050565b600061218c83610b1e565b905081600660008573ffffffffffffffffffffffffffffffffffffffff1673ffffffffffffffffffffffffffffffffffffffff168152602001908152602001600020600083815260200190815260200160002081905550806007600084815260200190815260200160002081905550505050565b6000808273ffffffffffffffffffffffffffffffffffffffff163b119050919050565b82805461222f90612ea9565b90600052602060002090601f0160209004810192826122515760008555612298565b82601f1061226a57805160ff1916838001178555612298565b82800160010185558215612298579182015b8281111561229757825182559160200191906001019061227c565b5b5090506122a591906122a9565b5090565b5b808211156122c25760008160009055506001016122aa565b5090565b60006122d96122d484612c93565b612c6e565b9050828152602081018484840111156122f157600080fd5b6122fc848285612e67565b509392505050565b600061231761231284612cc4565b612c6e565b90508281526020810184848401111561232f57600080fd5b61233a848285612e67565b509392505050565b60008135905061235181613439565b92915050565b60008135905061236681613450565b92915050565b60008135905061237b81613467565b92915050565b60008151905061239081613467565b92915050565b600082601f8301126123a757600080fd5b81356123b78482602086016122c6565b91505092915050565b600082601f8301126123d157600080fd5b81356123e1848260208601612304565b91505092915050565b6000813590506123f98161347e565b92915050565b60008151905061240e8161347e565b92915050565b60006020828403121561242657600080fd5b600061243484828501612342565b91505092915050565b6000806040838503121561245057600080fd5b600061245e85828601612342565b925050602061246f85828601612342565b9150509250929050565b60008060006060848603121561248e57600080fd5b600061249c86828701612342565b93505060206124ad86828701612342565b92505060406124be868287016123ea565b9150509250925092565b600080600080608085870312156124de57600080fd5b60006124ec87828801612342565b94505060206124fd87828801612342565b935050604061250e878288016123ea565b925050606085013567ffffffffffffffff81111561252b57600080fd5b61253787828801612396565b91505092959194509250565b6000806040838503121561255657600080fd5b600061256485828601612342565b925050602061257585828601612357565b9150509250929050565b6000806040838503121561259257600080fd5b60006125a085828601612342565b92505060206125b1858286016123ea565b9150509250929050565b6000602082840312156125cd57600080fd5b60006125db8482850161236c565b91505092915050565b6000602082840312156125f657600080fd5b600061260484828501612381565b91505092915050565b60006020828403121561261f57600080fd5b600082013567ffffffffffffffff81111561263957600080fd5b612645848285016123c0565b91505092915050565b60006020828403121561266057600080fd5b600061266e848285016123ea565b91505092915050565b60006020828403121561268957600080fd5b6000612697848285016123ff565b91505092915050565b6126a981612df3565b82525050565b6126b881612e05565b82525050565b60006126c982612cf5565b6126d38185612d0b565b93506126e3818560208601612e76565b6126ec81613042565b840191505092915050565b600061270282612d00565b61270c8185612d1c565b935061271c818560208601612e76565b61272581613042565b840191505092915050565b600061273b82612d00565b6127458185612d2d565b9350612755818560208601612e76565b80840191505092915050565b600061276e602b83612d1c565b915061277982613053565b604082019050919050565b6000612791603283612d1c565b915061279c826130a2565b604082019050919050565b60006127b4602583612d1c565b91506127bf826130f1565b604082019050919050565b60006127d7601c83612d1c565b91506127e282613140565b602082019050919050565b60006127fa602483612d1c565b915061280582613169565b604082019050919050565b600061281d601983612d1c565b9150612828826131b8565b602082019050919050565b6000612840602983612d1c565b915061284b826131e1565b604082019050919050565b6000612863603e83612d1c565b915061286e82613230565b604082019050919050565b6000612886602083612d1c565b91506128918261327f565b602082019050919050565b60006128a9600583612d2d565b91506128b4826132a8565b600582019050919050565b60006128cc601883612d1c565b91506128d7826132d1565b602082019050919050565b60006128ef602183612d1c565b91506128fa826132fa565b604082019050919050565b6000612912601783612d1c565b915061291d82613349565b602082019050919050565b6000612935602c83612d1c565b915061294082613372565b604082019050919050565b6000612958602e83612d1c565b9150612963826133c1565b604082019050919050565b600061297b601a83612d1c565b915061298682613410565b602082019050919050565b61299a81612e5d565b82525050565b60006129ac8285612730565b91506129b88284612730565b91506129c38261289c565b91508190509392505050565b60006020820190506129e460008301846126a0565b92915050565b60006080820190506129ff60008301876126a0565b612a0c60208301866126a0565b612a196040830185612991565b8181036060830152612a2b81846126be565b905095945050505050565b6000602082019050612a4b60008301846126af565b92915050565b60006020820190508181036000830152612a6b81846126f7565b905092915050565b60006020820190508181036000830152612a8c81612761565b9050919050565b60006020820190508181036000830152612aac81612784565b9050919050565b60006020820190508181036000830152612acc816127a7565b9050919050565b60006020820190508181036000830152612aec816127ca565b9050919050565b60006020820190508181036000830152612b0c816127ed565b9050919050565b60006020820190508181036000830152612b2c81612810565b9050919050565b60006020820190508181036000830152612b4c81612833565b9050919050565b60006020820190508181036000830152612b6c81612856565b9050919050565b60006020820190508181036000830152612b8c81612879565b9050919050565b60006020820190508181036000830152612bac816128bf565b9050919050565b60006020820190508181036000830152612bcc816128e2565b9050919050565b60006020820190508181036000830152612bec81612905565b9050919050565b60006020820190508181036000830152612c0c81612928565b9050919050565b60006020820190508181036000830152612c2c8161294b565b9050919050565b60006020820190508181036000830152612c4c8161296e565b9050919050565b6000602082019050612c686000830184612991565b92915050565b6000612c78612c89565b9050612c848282612edb565b919050565b6000604051905090565b600067ffffffffffffffff821115612cae57612cad613013565b5b612cb782613042565b9050602081019050919050565b600067ffffffffffffffff821115612cdf57612cde613013565b5b612ce882613042565b9050602081019050919050565b600081519050919050565b600081519050919050565b600082825260208201905092915050565b600082825260208201905092915050565b600081905092915050565b6000612d4382612e5d565b9150612d4e83612e5d565b9250827fffffffffffffffffffffffffffffffffffffffffffffffffffffffffffffffff03821115612d8357612d82612f86565b5b828201905092915050565b6000612d9982612e5d565b9150612da483612e5d565b925082612db457612db3612fb5565b5b828204905092915050565b6000612dca82612e5d565b9150612dd583612e5d565b925082821015612de857612de7612f86565b5b828203905092915050565b6000612dfe82612e3d565b9050919050565b60008115159050919050565b60007fffffffff0000000000000000000000000000000000000000000000000000000082169050919050565b600073ffffffffffffffffffffffffffffffffffffffff82169050919050565b6000819050919050565b82818337600083830152505050565b60005b83811015612e94578082015181840152602081019050612e79565b83811115612ea3576000848401525b50505050565b60006002820490506001821680612ec157607f821691505b60208210811415612ed557612ed4612fe4565b5b50919050565b612ee482613042565b810181811067ffffffffffffffff82111715612f0357612f02613013565b5b80604052505050565b6000612f1782612e5d565b91507fffffffffffffffffffffffffffffffffffffffffffffffffffffffffffffffff821415612f4a57612f49612f86565b5b600182019050919050565b6000612f6082612e5d565b9150612f6b83612e5d565b925082612f7b57612f7a612fb5565b5b828206905092915050565b7f4e487b7100000000000000000000000000000000000000000000000000000000600052601160045260246000fd5b7f4e487b7100000000000000000000000000000000000000000000000000000000600052601260045260246000fd5b7f4e487b7100000000000000000000000000000000000000000000000000000000600052602260045260246000fd5b7f4e487b7100000000000000000000000000000000000000000000000000000000600052604160045260246000fd5b6000601f19601f8301169050919050565b7f455243373231456e756d657261626c653a206f776e657220696e646578206f7560008201527f74206f6620626f756e6473000000000000000000000000000000000000000000602082015250565b7f4552433732313a207472616e7366657220746f206e6f6e20455243373231526560008201527f63656976657220696d706c656d656e7465720000000000000000000000000000602082015250565b7f4552433732313a207472616e736665722066726f6d20696e636f72726563742060008201527f6f776e6572000000000000000000000000000000000000000000000000000000602082015250565b7f4552433732313a20746f6b656e20616c7265616479206d696e74656400000000600082015250565b7f4552433732313a207472616e7366657220746f20746865207a65726f2061646460008201527f7265737300000000000000000000000000000000000000000000000000000000602082015250565b7f4552433732313a20617070726f766520746f2063616c6c657200000000000000600082015250565b7f4552433732313a2061646472657373207a65726f206973206e6f74206120766160008201527f6c6964206f776e65720000000000000000000000000000000000000000000000602082015250565b7f4552433732313a20617070726f76652063616c6c6572206973206e6f7420746f60008201527f6b656e206f776e6572206e6f7220617070726f76656420666f7220616c6c0000602082015250565b7f4552433732313a206d696e7420746f20746865207a65726f2061646472657373600082015250565b7f2e6a736f6e000000000000000000000000000000000000000000000000000000600082015250565b7f4552433732313a20696e76616c696420746f6b656e2049440000000000000000600082015250565b7f4552433732313a20617070726f76616c20746f2063757272656e74206f776e6560008201527f7200000000000000000000000000000000000000000000000000000000000000602082015250565b7f5468652063616c6c6572206973206e6f74206f776e6572000000000000000000600082015250565b7f455243373231456e756d657261626c653a20676c6f62616c20696e646578206f60008201527f7574206f6620626f756e64730000000000000000000000000000000000000000602082015250565b7f4552433732313a2063616c6c6572206973206e6f7420746f6b656e206f776e6560008201527f72206e6f7220617070726f766564000000000000000000000000000000000000602082015250565b7f5468652063616c6c6572206973206e6f7420726566657272616c000000000000600082015250565b61344281612df3565b811461344d57600080fd5b50565b61345981612e05565b811461346457600080fd5b50565b61347081612e11565b811461347b57600080fd5b50565b61348781612e5d565b811461349257600080fd5b5056fea2646970667358221220aa2cee91f3b9c0578979be5e0880f30163b28562a0135de3d407aa301f03626864736f6c63430008010033",
  "linkReferences": {},
  "deployedLinkReferences": {}
}