{
  "_format": "hh-sol-artifact-1",
  "contractName": "Referral",
  "sourceName": "contracts/Referral.sol",
  "abi": [
    {
      "inputs": [],
      "stateMutability": "nonpayable",
      "type": "constructor"
    },
    {
      "anonymous": false,
      "inputs": [
        {
          "indexed": false,
          "internalType": "address",
          "name": "referer",
          "type": "address"
        },
        {
          "indexed": false,
          "internalType": "uint256",
          "name": "nftlevel",
          "type": "uint256"
        }
      ],
      "name": "e_Purchase",
      "type": "event"
    },
    {
      "anonymous": false,
      "inputs": [
        {
          "indexed": false,
          "internalType": "address",
          "name": "buyer",
          "type": "address"
        }
      ],
      "name": "e_approvedOfAddress",
      "type": "event"
    },
    {
      "anonymous": false,
      "inputs": [
        {
          "indexed": false,
          "internalType": "address",
          "name": "buyer",
          "type": "address"
        }
      ],
      "name": "e_balanceOfAddress",
      "type": "event"
    },
    {
      "anonymous": false,
      "inputs": [
        {
          "indexed": false,
          "internalType": "address[]",
          "name": "buyer",
          "type": "address[]"
        }
      ],
      "name": "e_cheapWithdrawFrom",
      "type": "event"
    },
    {
      "anonymous": false,
      "inputs": [
        {
          "indexed": false,
          "internalType": "uint256",
          "name": "amount",
          "type": "uint256"
        }
      ],
      "name": "e_safeWithdraw",
      "type": "event"
    },
    {
      "anonymous": false,
      "inputs": [
        {
          "indexed": false,
          "internalType": "uint256",
          "name": "level",
          "type": "uint256"
        },
        {
          "indexed": false,
          "internalType": "uint256",
          "name": "percent",
          "type": "uint256"
        },
        {
          "indexed": false,
          "internalType": "uint256",
          "name": "saleLimit",
          "type": "uint256"
        }
      ],
      "name": "e_setLevelData",
      "type": "event"
    },
    {
      "anonymous": false,
      "inputs": [
        {
          "indexed": false,
          "internalType": "address",
          "name": "master",
          "type": "address"
        }
      ],
      "name": "e_setMaster",
      "type": "event"
    },
    {
      "anonymous": false,
      "inputs": [
        {
          "indexed": false,
          "internalType": "uint256",
          "name": "level",
          "type": "uint256"
        }
      ],
      "name": "e_setMaxLevel",
      "type": "event"
    },
    {
      "anonymous": false,
      "inputs": [
        {
          "indexed": false,
          "internalType": "address",
          "name": "nft",
          "type": "address"
        }
      ],
      "name": "e_setNFTAddress",
      "type": "event"
    },
    {
      "anonymous": false,
      "inputs": [
        {
          "indexed": false,
          "internalType": "address",
          "name": "_owner",
          "type": "address"
        }
      ],
      "name": "e_setOwner",
      "type": "event"
    },
    {
      "anonymous": false,
      "inputs": [
        {
          "indexed": false,
          "internalType": "address",
          "name": "token",
          "type": "address"
        }
      ],
      "name": "e_setPaytype",
      "type": "event"
    },
    {
      "anonymous": false,
      "inputs": [
        {
          "indexed": false,
          "internalType": "uint256",
          "name": "nftlevel",
          "type": "uint256"
        },
        {
          "indexed": false,
          "internalType": "uint256",
          "name": "price",
          "type": "uint256"
        }
      ],
      "name": "e_setPrice",
      "type": "event"
    },
    {
      "anonymous": false,
      "inputs": [
        {
          "indexed": false,
          "internalType": "bool",
          "name": "should",
          "type": "bool"
        }
      ],
      "name": "e_setShutdown",
      "type": "event"
    },
    {
      "anonymous": false,
      "inputs": [
        {
          "indexed": false,
          "internalType": "address",
          "name": "user",
          "type": "address"
        },
        {
          "indexed": false,
          "internalType": "address",
          "name": "parent",
          "type": "address"
        },
        {
          "indexed": false,
          "internalType": "uint256",
          "name": "level",
          "type": "uint256"
        },
        {
          "indexed": false,
          "internalType": "uint256",
          "name": "sale",
          "type": "uint256"
        },
        {
          "indexed": false,
          "internalType": "uint256",
          "name": "share",
          "type": "uint256"
        }
      ],
      "name": "e_setUserData",
      "type": "event"
    },
    {
      "anonymous": false,
      "inputs": [],
      "name": "e_shareWithdraw",
      "type": "event"
    },
    {
      "anonymous": false,
      "inputs": [
        {
          "indexed": false,
          "internalType": "address",
          "name": "from",
          "type": "address"
        }
      ],
      "name": "e_withdrawFrom",
      "type": "event"
    },
    {
      "inputs": [
        {
          "internalType": "address",
          "name": "referer",
          "type": "address"
        },
        {
          "internalType": "uint256",
          "name": "nftlevel",
          "type": "uint256"
        }
      ],
      "name": "Purchase",
      "outputs": [
        {
          "internalType": "bool",
          "name": "",
          "type": "bool"
        }
      ],
      "stateMutability": "nonpayable",
      "type": "function"
    },
    {
      "inputs": [
        {
          "internalType": "address[]",
          "name": "buyer",
          "type": "address[]"
        }
      ],
      "name": "cheapWithdrawFrom",
      "outputs": [
        {
          "internalType": "bool",
          "name": "",
          "type": "bool"
        }
      ],
      "stateMutability": "nonpayable",
      "type": "function"
    },
    {
      "inputs": [],
      "name": "fetchAllBuyer",
      "outputs": [
        {
          "internalType": "address[]",
          "name": "",
          "type": "address[]"
        }
      ],
      "stateMutability": "view",
      "type": "function"
    },
    {
      "inputs": [],
      "name": "fetchAllBuyerLength",
      "outputs": [
        {
          "internalType": "uint256",
          "name": "",
          "type": "uint256"
        }
      ],
      "stateMutability": "view",
      "type": "function"
    },
    {
      "inputs": [
        {
          "internalType": "uint256",
          "name": "index",
          "type": "uint256"
        }
      ],
      "name": "fetchBuyerAtIndex",
      "outputs": [
        {
          "internalType": "address",
          "name": "",
          "type": "address"
        }
      ],
      "stateMutability": "view",
      "type": "function"
    },
    {
      "inputs": [
        {
          "internalType": "uint256",
          "name": "level",
          "type": "uint256"
        }
      ],
      "name": "fetchLevelData",
      "outputs": [
        {
          "components": [
            {
              "internalType": "uint256",
              "name": "Percent",
              "type": "uint256"
            },
            {
              "internalType": "uint256",
              "name": "saleLimit",
              "type": "uint256"
            }
          ],
          "internalType": "struct Referral.levelData",
          "name": "",
          "type": "tuple"
        }
      ],
      "stateMutability": "view",
      "type": "function"
    },
    {
      "inputs": [],
      "name": "fetchMasterAddress",
      "outputs": [
        {
          "internalType": "address",
          "name": "",
          "type": "address"
        }
      ],
      "stateMutability": "view",
      "type": "function"
    },
    {
      "inputs": [],
      "name": "fetchMaxLevel",
      "outputs": [
        {
          "internalType": "uint256",
          "name": "",
          "type": "uint256"
        }
      ],
      "stateMutability": "view",
      "type": "function"
    },
    {
      "inputs": [],
      "name": "fetchNFTAddress",
      "outputs": [
        {
          "internalType": "address",
          "name": "",
          "type": "address"
        }
      ],
      "stateMutability": "view",
      "type": "function"
    },
    {
      "inputs": [
        {
          "internalType": "uint256",
          "name": "id",
          "type": "uint256"
        }
      ],
      "name": "fetchNFTLevel",
      "outputs": [
        {
          "internalType": "uint256",
          "name": "",
          "type": "uint256"
        }
      ],
      "stateMutability": "view",
      "type": "function"
    },
    {
      "inputs": [],
      "name": "fetchOwner",
      "outputs": [
        {
          "internalType": "address",
          "name": "",
          "type": "address"
        }
      ],
      "stateMutability": "view",
      "type": "function"
    },
    {
      "inputs": [],
      "name": "fetchPaytype",
      "outputs": [
        {
          "internalType": "address",
          "name": "",
          "type": "address"
        }
      ],
      "stateMutability": "view",
      "type": "function"
    },
    {
      "inputs": [
        {
          "internalType": "uint256",
          "name": "nftlevel",
          "type": "uint256"
        }
      ],
      "name": "fetchPrice",
      "outputs": [
        {
          "internalType": "uint256",
          "name": "",
          "type": "uint256"
        }
      ],
      "stateMutability": "view",
      "type": "function"
    },
    {
      "inputs": [],
      "name": "fetchSafeWithdrawAmount",
      "outputs": [
        {
          "internalType": "uint256",
          "name": "",
          "type": "uint256"
        }
      ],
      "stateMutability": "view",
      "type": "function"
    },
    {
      "inputs": [],
      "name": "fetchShutdown",
      "outputs": [
        {
          "internalType": "bool",
          "name": "",
          "type": "bool"
        }
      ],
      "stateMutability": "view",
      "type": "function"
    },
    {
      "inputs": [
        {
          "internalType": "address",
          "name": "user",
          "type": "address"
        }
      ],
      "name": "fetchUserData",
      "outputs": [
        {
          "components": [
            {
              "internalType": "address",
              "name": "Parent",
              "type": "address"
            },
            {
              "internalType": "uint256",
              "name": "Level",
              "type": "uint256"
            },
            {
              "internalType": "uint256",
              "name": "Sale",
              "type": "uint256"
            },
            {
              "internalType": "uint256",
              "name": "Share",
              "type": "uint256"
            }
          ],
          "internalType": "struct Referral.userData",
          "name": "",
          "type": "tuple"
        }
      ],
      "stateMutability": "view",
      "type": "function"
    },
    {
      "inputs": [
        {
          "internalType": "uint256",
          "name": "amount",
          "type": "uint256"
        }
      ],
      "name": "safeWithdraw",
      "outputs": [
        {
          "internalType": "bool",
          "name": "",
          "type": "bool"
        }
      ],
      "stateMutability": "nonpayable",
      "type": "function"
    },
    {
      "inputs": [
        {
          "internalType": "uint256",
          "name": "level",
          "type": "uint256"
        },
        {
          "internalType": "uint256",
          "name": "percent",
          "type": "uint256"
        },
        {
          "internalType": "uint256",
          "name": "saleLimit",
          "type": "uint256"
        }
      ],
      "name": "setLevelData",
      "outputs": [
        {
          "internalType": "bool",
          "name": "",
          "type": "bool"
        }
      ],
      "stateMutability": "nonpayable",
      "type": "function"
    },
    {
      "inputs": [
        {
          "internalType": "address",
          "name": "master",
          "type": "address"
        }
      ],
      "name": "setMaster",
      "outputs": [
        {
          "internalType": "bool",
          "name": "",
          "type": "bool"
        }
      ],
      "stateMutability": "nonpayable",
      "type": "function"
    },
    {
      "inputs": [
        {
          "internalType": "uint256",
          "name": "level",
          "type": "uint256"
        }
      ],
      "name": "setMaxLevel",
      "outputs": [
        {
          "internalType": "bool",
          "name": "",
          "type": "bool"
        }
      ],
      "stateMutability": "nonpayable",
      "type": "function"
    },
    {
      "inputs": [
        {
          "internalType": "address",
          "name": "nft",
          "type": "address"
        }
      ],
      "name": "setNFTAddress",
      "outputs": [
        {
          "internalType": "bool",
          "name": "",
          "type": "bool"
        }
      ],
      "stateMutability": "nonpayable",
      "type": "function"
    },
    {
      "inputs": [
        {
          "internalType": "address",
          "name": "_owner",
          "type": "address"
        }
      ],
      "name": "setOwner",
      "outputs": [
        {
          "internalType": "bool",
          "name": "",
          "type": "bool"
        }
      ],
      "stateMutability": "nonpayable",
      "type": "function"
    },
    {
      "inputs": [
        {
          "internalType": "address",
          "name": "token",
          "type": "address"
        }
      ],
      "name": "setPaytype",
      "outputs": [
        {
          "internalType": "bool",
          "name": "",
          "type": "bool"
        }
      ],
      "stateMutability": "nonpayable",
      "type": "function"
    },
    {
      "inputs": [
        {
          "internalType": "uint256",
          "name": "nftlevel",
          "type": "uint256"
        },
        {
          "internalType": "uint256",
          "name": "price",
          "type": "uint256"
        }
      ],
      "name": "setPrice",
      "outputs": [
        {
          "internalType": "bool",
          "name": "",
          "type": "bool"
        }
      ],
      "stateMutability": "nonpayable",
      "type": "function"
    },
    {
      "inputs": [
        {
          "internalType": "bool",
          "name": "should",
          "type": "bool"
        }
      ],
      "name": "setShutdown",
      "outputs": [
        {
          "internalType": "bool",
          "name": "",
          "type": "bool"
        }
      ],
      "stateMutability": "nonpayable",
      "type": "function"
    },
    {
      "inputs": [
        {
          "internalType": "address",
          "name": "user",
          "type": "address"
        },
        {
          "internalType": "address",
          "name": "parent",
          "type": "address"
        },
        {
          "internalType": "uint256",
          "name": "level",
          "type": "uint256"
        },
        {
          "internalType": "uint256",
          "name": "sale",
          "type": "uint256"
        },
        {
          "internalType": "uint256",
          "name": "share",
          "type": "uint256"
        }
      ],
      "name": "setUserData",
      "outputs": [
        {
          "internalType": "bool",
          "name": "",
          "type": "bool"
        }
      ],
      "stateMutability": "nonpayable",
      "type": "function"
    },
    {
      "inputs": [],
      "name": "shareWithdraw",
      "outputs": [
        {
          "internalType": "bool",
          "name": "",
          "type": "bool"
        }
      ],
      "stateMutability": "nonpayable",
      "type": "function"
    },
    {
      "inputs": [
        {
          "internalType": "address",
          "name": "from",
          "type": "address"
        }
      ],
      "name": "withdrawFrom",
      "outputs": [
        {
          "internalType": "bool",
          "name": "",
          "type": "bool"
        }
      ],
      "stateMutability": "nonpayable",
      "type": "function"
    }
  ],
  "bytecode": "0x60806040523480156200001157600080fd5b50620000226200002860201b60201c565b6200006b565b33600160006101000a81548173ffffffffffffffffffffffffffffffffffffffff021916908373ffffffffffffffffffffffffffffffffffffffff160217905550565b613a14806200007b6000396000f3fe608060405234801561001057600080fd5b50600436106101c45760003560e01c8063a4377b9f116100f9578063d07de57d11610097578063f01a5cd811610071578063f01a5cd8146105b9578063f714b466146105d7578063f7d9757714610607578063fb473dcf14610637576101c4565b8063d07de57d1461054d578063d963b2661461056b578063de1b048614610589576101c4565b8063c48510e4116100d3578063c48510e41461049f578063c6e994d7146104cf578063c7edb6c3146104ed578063cc1741911461051d576101c4565b8063a4377b9f14610421578063b0fd035b1461043f578063c1819eb61461046f576101c4565b8063344f1ba51161016657806369d037381161014057806369d0373814610373578063725e9130146103a357806373179fee146103c15780639ed12677146103f1576101c4565b8063344f1ba5146102f5578063400af34014610325578063461cc81314610343576101c4565b806320ced446116101a257806320ced446146102475780632499a5331461027757806326fae0d3146102a75780632f8407c2146102d7576101c4565b806313af4035146101c95780631559f782146101f957806316a68ef814610229575b600080fd5b6101e360048036038101906101de9190612d47565b610655565b6040516101f0919061332c565b60405180910390f35b610213600480360381019061020e9190612eb6565b610768565b604051610220919061349d565b60405180910390f35b610231610785565b60405161023e919061349d565b60405180910390f35b610261600480360381019061025c9190612d47565b61078f565b60405161026e9190613482565b60405180910390f35b610291600480360381019061028c9190612de7565b61085c565b60405161029e919061332c565b60405180910390f35b6102c160048036038101906102bc9190612d47565b61133b565b6040516102ce919061332c565b60405180910390f35b6102df611523565b6040516102ec9190613213565b60405180910390f35b61030f600480360381019061030a9190612eb6565b61154d565b60405161031c919061332c565b60405180910390f35b61032d611626565b60405161033a919061349d565b60405180910390f35b61035d60048036038101906103589190612eb6565b611633565b60405161036a9190613213565b60405180910390f35b61038d60048036038101906103889190612d47565b6116a1565b60405161039a919061332c565b60405180910390f35b6103ab6117b4565b6040516103b8919061332c565b60405180910390f35b6103db60048036038101906103d69190612f44565b6117cb565b6040516103e8919061332c565b60405180910390f35b61040b60048036038101906104069190612d70565b6118cd565b604051610418919061332c565b60405180910390f35b610429611a4d565b604051610436919061330a565b60405180910390f35b61045960048036038101906104549190612eb6565b611adb565b604051610466919061332c565b60405180910390f35b61048960048036038101906104849190612e64565b611d7a565b604051610496919061332c565b60405180910390f35b6104b960048036038101906104b49190612eb6565b611e66565b6040516104c6919061349d565b60405180910390f35b6104d7611e83565b6040516104e4919061332c565b60405180910390f35b61050760048036038101906105029190612d47565b61208f565b604051610514919061332c565b60405180910390f35b61053760048036038101906105329190612eb6565b6121a2565b6040516105449190613467565b60405180910390f35b6105556121e3565b6040516105629190613213565b60405180910390f35b61057361220d565b6040516105809190613213565b60405180910390f35b6105a3600480360381019061059e9190612d47565b612237565b6040516105b0919061332c565b60405180910390f35b6105c1612538565b6040516105ce919061349d565b60405180910390f35b6105f160048036038101906105ec9190612e23565b612542565b6040516105fe919061332c565b60405180910390f35b610621600480360381019061061c9190612f08565b6128f3565b60405161062e919061332c565b60405180910390f35b61063f6129e0565b60405161064c9190613213565b60405180910390f35b6000600160009054906101000a900473ffffffffffffffffffffffffffffffffffffffff1673ffffffffffffffffffffffffffffffffffffffff163373ffffffffffffffffffffffffffffffffffffffff16146106e7576040517f08c379a00000000000000000000000000000000000000000000000000000000081526004016106de906133e7565b60405180910390fd5b81600160006101000a81548173ffffffffffffffffffffffffffffffffffffffff021916908373ffffffffffffffffffffffffffffffffffffffff1602179055507ffdd8f913d76d87c69733297d206591d108f08c09451875bad16fa5282395c298826040516107579190613213565b60405180910390a160019050919050565b600060076000838152602001908152602001600020549050919050565b6000600b54905090565b610797612bf0565b600460008373ffffffffffffffffffffffffffffffffffffffff1673ffffffffffffffffffffffffffffffffffffffff1681526020019081526020016000206040518060800160405290816000820160009054906101000a900473ffffffffffffffffffffffffffffffffffffffff1673ffffffffffffffffffffffffffffffffffffffff1673ffffffffffffffffffffffffffffffffffffffff16815260200160018201548152602001600282015481526020016003820154815250509050919050565b6000600160159054906101000a900460ff16156108ae576040517f08c379a00000000000000000000000000000000000000000000000000000000081526004016108a590613407565b60405180910390fd5b600160149054906101000a900460ff16156108fe576040517f08c379a00000000000000000000000000000000000000000000000000000000081526004016108f590613347565b60405180910390fd5b60018060146101000a81548160ff021916908315150217905550600860009054906101000a900473ffffffffffffffffffffffffffffffffffffffff1673ffffffffffffffffffffffffffffffffffffffff163373ffffffffffffffffffffffffffffffffffffffff1614156109a9576040517f08c379a00000000000000000000000000000000000000000000000000000000081526004016109a0906133a7565b60405180910390fd5b3373ffffffffffffffffffffffffffffffffffffffff168373ffffffffffffffffffffffffffffffffffffffff161415610a18576040517f08c379a0000000000000000000000000000000000000000000000000000000008152600401610a0f90613387565b60405180910390fd5b6000600460008573ffffffffffffffffffffffffffffffffffffffff1673ffffffffffffffffffffffffffffffffffffffff168152602001908152602001600020600101541415610a9e576040517f08c379a0000000000000000000000000000000000000000000000000000000008152600401610a9590613427565b60405180910390fd5b600060076000848152602001908152602001600020541415610af5576040517f08c379a0000000000000000000000000000000000000000000000000000000008152600401610aec906133c7565b60405180910390fd5b6000806000600960009054906101000a900473ffffffffffffffffffffffffffffffffffffffff1673ffffffffffffffffffffffffffffffffffffffff166323b872dd3330600760008a8152602001908152602001600020546040518463ffffffff1660e01b8152600401610b6c93929190613257565b602060405180830381600087803b158015610b8657600080fd5b505af1158015610b9a573d6000803e3d6000fd5b505050506040513d601f19601f82011682018060405250810190610bbe9190612e8d565b50600a60009054906101000a900473ffffffffffffffffffffffffffffffffffffffff1673ffffffffffffffffffffffffffffffffffffffff166340d097c3336040518263ffffffff1660e01b8152600401610c1a9190613213565b602060405180830381600087803b158015610c3457600080fd5b505af1158015610c48573d6000803e3d6000fd5b505050506040513d601f19601f82011682018060405250810190610c6c9190612e8d565b50610c776000612a0a565b8460036000610c866000612a20565b8152602001908152602001600020819055506000600460003373ffffffffffffffffffffffffffffffffffffffff1673ffffffffffffffffffffffffffffffffffffffff168152602001908152602001600020600101541415610d2c576001600460003373ffffffffffffffffffffffffffffffffffffffff1673ffffffffffffffffffffffffffffffffffffffff168152602001908152602001600020600101819055505b600073ffffffffffffffffffffffffffffffffffffffff16600460003373ffffffffffffffffffffffffffffffffffffffff1673ffffffffffffffffffffffffffffffffffffffff16815260200190815260200160002060000160009054906101000a900473ffffffffffffffffffffffffffffffffffffffff1673ffffffffffffffffffffffffffffffffffffffff161415610e4c5785915085600460003373ffffffffffffffffffffffffffffffffffffffff1673ffffffffffffffffffffffffffffffffffffffff16815260200190815260200160002060000160006101000a81548173ffffffffffffffffffffffffffffffffffffffff021916908373ffffffffffffffffffffffffffffffffffffffff160217905550610eb2565b600460003373ffffffffffffffffffffffffffffffffffffffff1673ffffffffffffffffffffffffffffffffffffffff16815260200190815260200160002060000160009054906101000a900473ffffffffffffffffffffffffffffffffffffffff1691505b5b60fa83101561110557610ed0600184612a2e90919063ffffffff16565b92506000600460008473ffffffffffffffffffffffffffffffffffffffff1673ffffffffffffffffffffffffffffffffffffffff1681526020019081526020016000209050600060026000836001015481526020019081526020016000209050610f4860018360020154612a2e90919063ffffffff16565b82600201819055505b600b5482600101541015610fad57600260008360010154815260200190815260200160002060010154826002015410610fa357816001016000815480929190610f9990613741565b9190505550610fa8565b610fad565b610f51565b600260008360010154815260200190815260200160002090508060000154831015611048576110226103e8611014600760008b815260200190815260200160002054611006878660000154612a4490919063ffffffff16565b612a5a90919063ffffffff16565b612a7090919063ffffffff16565b82600301600082825461103591906135b3565b9250508190555080600001549250611050565b806000015492505b60026000600b54815260200190815260200160002060000154831415611077575050611105565b600073ffffffffffffffffffffffffffffffffffffffff168260000160009054906101000a900473ffffffffffffffffffffffffffffffffffffffff1673ffffffffffffffffffffffffffffffffffffffff1614156110d7575050611105565b8160000160009054906101000a900473ffffffffffffffffffffffffffffffffffffffff1693505050610eb3565b6111536103e86111456007600089815260200190815260200160002054611137856103e8612a4490919063ffffffff16565b612a5a90919063ffffffff16565b612a7090919063ffffffff16565b60046000600860009054906101000a900473ffffffffffffffffffffffffffffffffffffffff1673ffffffffffffffffffffffffffffffffffffffff1673ffffffffffffffffffffffffffffffffffffffff16815260200190815260200160002060030160008282546111c691906135b3565b92505081905550600560003373ffffffffffffffffffffffffffffffffffffffff1673ffffffffffffffffffffffffffffffffffffffff16815260200190815260200160002060009054906101000a900460ff166112da576001600560003373ffffffffffffffffffffffffffffffffffffffff1673ffffffffffffffffffffffffffffffffffffffff16815260200190815260200160002060006101000a81548160ff0219169083151502179055506006339080600181540180825580915050600190039060005260206000200160009091909190916101000a81548173ffffffffffffffffffffffffffffffffffffffff021916908373ffffffffffffffffffffffffffffffffffffffff1602179055505b7f053c5d59d7260184fb2528f477442d74de71217c757a5e8c340a2d8309808326868660405161130b9291906132e1565b60405180910390a1600193505050506000600160146101000a81548160ff02191690831515021790555092915050565b6000600160009054906101000a900473ffffffffffffffffffffffffffffffffffffffff1673ffffffffffffffffffffffffffffffffffffffff163373ffffffffffffffffffffffffffffffffffffffff16146113cd576040517f08c379a00000000000000000000000000000000000000000000000000000000081526004016113c4906133e7565b60405180910390fd5b600160046000600860009054906101000a900473ffffffffffffffffffffffffffffffffffffffff1673ffffffffffffffffffffffffffffffffffffffff1673ffffffffffffffffffffffffffffffffffffffff1681526020019081526020016000206001018190555081600860006101000a81548173ffffffffffffffffffffffffffffffffffffffff021916908373ffffffffffffffffffffffffffffffffffffffff160217905550600b5460046000600860009054906101000a900473ffffffffffffffffffffffffffffffffffffffff1673ffffffffffffffffffffffffffffffffffffffff1673ffffffffffffffffffffffffffffffffffffffff168152602001908152602001600020600101819055507fb6b84506c65b27dd82d3bbd07c1aa1835f278d78b76836eb187652c5fbcffa5f826040516115129190613213565b60405180910390a160019050919050565b6000600160009054906101000a900473ffffffffffffffffffffffffffffffffffffffff16905090565b6000600160009054906101000a900473ffffffffffffffffffffffffffffffffffffffff1673ffffffffffffffffffffffffffffffffffffffff163373ffffffffffffffffffffffffffffffffffffffff16146115df576040517f08c379a00000000000000000000000000000000000000000000000000000000081526004016115d6906133e7565b60405180910390fd5b81600b819055507fc61df3e970a71753235850dd195e541bada36511a1fe91042b84ad1096cf225a82604051611615919061349d565b60405180910390a160019050919050565b6000600680549050905090565b60006006828154811061166f577f4e487b7100000000000000000000000000000000000000000000000000000000600052603260045260246000fd5b9060005260206000200160009054906101000a900473ffffffffffffffffffffffffffffffffffffffff169050919050565b6000600160009054906101000a900473ffffffffffffffffffffffffffffffffffffffff1673ffffffffffffffffffffffffffffffffffffffff163373ffffffffffffffffffffffffffffffffffffffff1614611733576040517f08c379a000000000000000000000000000000000000000000000000000000000815260040161172a906133e7565b60405180910390fd5b81600a60006101000a81548173ffffffffffffffffffffffffffffffffffffffff021916908373ffffffffffffffffffffffffffffffffffffffff1602179055507fa284800025ed1b3181b996e173d7c5fc02752b2eac143d8d23dcc7deecae9ee9826040516117a39190613213565b60405180910390a160019050919050565b6000600160159054906101000a900460ff16905090565b6000600160009054906101000a900473ffffffffffffffffffffffffffffffffffffffff1673ffffffffffffffffffffffffffffffffffffffff163373ffffffffffffffffffffffffffffffffffffffff161461185d576040517f08c379a0000000000000000000000000000000000000000000000000000000008152600401611854906133e7565b60405180910390fd5b60006002600086815260200190815260200160002090508381600001819055508281600101819055507ffb697c2cca069660e3c569eeda13f1db3b3dd1ba3cb0674c08d434cdef4e1a0f8585856040516118b9939291906134e1565b60405180910390a160019150509392505050565b6000600160009054906101000a900473ffffffffffffffffffffffffffffffffffffffff1673ffffffffffffffffffffffffffffffffffffffff163373ffffffffffffffffffffffffffffffffffffffff161461195f576040517f08c379a0000000000000000000000000000000000000000000000000000000008152600401611956906133e7565b60405180910390fd5b6000600460008873ffffffffffffffffffffffffffffffffffffffff1673ffffffffffffffffffffffffffffffffffffffff1681526020019081526020016000209050858160000160006101000a81548173ffffffffffffffffffffffffffffffffffffffff021916908373ffffffffffffffffffffffffffffffffffffffff1602179055508481600101819055508381600201819055508281600301819055507f2c1d4f56aea402ae7839630ce023cab834adbfa4081a8a337257da9c97206bed8787878787604051611a3795949392919061328e565b60405180910390a1600191505095945050505050565b60606006805480602002602001604051908101604052809291908181526020018280548015611ad157602002820191906000526020600020905b8160009054906101000a900473ffffffffffffffffffffffffffffffffffffffff1673ffffffffffffffffffffffffffffffffffffffff1681526020019060010190808311611a87575b5050505050905090565b6000600160009054906101000a900473ffffffffffffffffffffffffffffffffffffffff1673ffffffffffffffffffffffffffffffffffffffff163373ffffffffffffffffffffffffffffffffffffffff1614611b6d576040517f08c379a0000000000000000000000000000000000000000000000000000000008152600401611b64906133e7565b60405180910390fd5b81600960009054906101000a900473ffffffffffffffffffffffffffffffffffffffff1673ffffffffffffffffffffffffffffffffffffffff166370a08231306040518263ffffffff1660e01b8152600401611bc99190613213565b60206040518083038186803b158015611be157600080fd5b505afa158015611bf5573d6000803e3d6000fd5b505050506040513d601f19601f82011682018060405250810190611c199190612edf565b1015611c5a576040517f08c379a0000000000000000000000000000000000000000000000000000000008152600401611c5190613367565b60405180910390fd5b600960009054906101000a900473ffffffffffffffffffffffffffffffffffffffff1673ffffffffffffffffffffffffffffffffffffffff1663a9059cbb33846040518363ffffffff1660e01b8152600401611cb79291906132e1565b602060405180830381600087803b158015611cd157600080fd5b505af1158015611ce5573d6000803e3d6000fd5b505050506040513d601f19601f82011682018060405250810190611d099190612e8d565b50600c548211611d315781600c6000828254611d259190613694565b92505081905550611d3a565b6000600c819055505b7ff30620ed766039cf960c3d593cbf85cd6f72229d05f93662c8b2433dd73cce8d82604051611d69919061349d565b60405180910390a160019050919050565b6000600160009054906101000a900473ffffffffffffffffffffffffffffffffffffffff1673ffffffffffffffffffffffffffffffffffffffff163373ffffffffffffffffffffffffffffffffffffffff1614611e0c576040517f08c379a0000000000000000000000000000000000000000000000000000000008152600401611e03906133e7565b60405180910390fd5b81600160156101000a81548160ff0219169083151502179055507f6f3d78089a010173684596de08a62db9db6c57cd125d4a57afd37e7e0a206ea782604051611e55919061332c565b60405180910390a160019050919050565b600060036000838152602001908152602001600020549050919050565b6000600160159054906101000a900460ff1615611ed5576040517f08c379a0000000000000000000000000000000000000000000000000000000008152600401611ecc90613407565b60405180910390fd5b600160149054906101000a900460ff1615611f25576040517f08c379a0000000000000000000000000000000000000000000000000000000008152600401611f1c90613347565b60405180910390fd5b60018060146101000a81548160ff0219169083151502179055506000600460003373ffffffffffffffffffffffffffffffffffffffff1673ffffffffffffffffffffffffffffffffffffffff1681526020019081526020016000209050600960009054906101000a900473ffffffffffffffffffffffffffffffffffffffff1673ffffffffffffffffffffffffffffffffffffffff1663a9059cbb3383600301546040518363ffffffff1660e01b8152600401611fe39291906132e1565b602060405180830381600087803b158015611ffd57600080fd5b505af1158015612011573d6000803e3d6000fd5b505050506040513d601f19601f820116820180604052508101906120359190612e8d565b50600081600301819055507fb924346509e802f5688589a966c78583059c9fea4f5f29de703fe6d269b95b2360405160405180910390a160019150506000600160146101000a81548160ff02191690831515021790555090565b6000600160009054906101000a900473ffffffffffffffffffffffffffffffffffffffff1673ffffffffffffffffffffffffffffffffffffffff163373ffffffffffffffffffffffffffffffffffffffff1614612121576040517f08c379a0000000000000000000000000000000000000000000000000000000008152600401612118906133e7565b60405180910390fd5b81600960006101000a81548173ffffffffffffffffffffffffffffffffffffffff021916908373ffffffffffffffffffffffffffffffffffffffff1602179055507fbf693622fd223b281b931bf267bc83534c3e0d707c8a52380e6c574a6e7da6a0826040516121919190613213565b60405180910390a160019050919050565b6121aa612c2e565b60026000838152602001908152602001600020604051806040016040529081600082015481526020016001820154815250509050919050565b6000600a60009054906101000a900473ffffffffffffffffffffffffffffffffffffffff16905090565b6000600960009054906101000a900473ffffffffffffffffffffffffffffffffffffffff16905090565b6000600160009054906101000a900473ffffffffffffffffffffffffffffffffffffffff1673ffffffffffffffffffffffffffffffffffffffff163373ffffffffffffffffffffffffffffffffffffffff16146122c9576040517f08c379a00000000000000000000000000000000000000000000000000000000081526004016122c0906133e7565b60405180910390fd5b600073ffffffffffffffffffffffffffffffffffffffff168273ffffffffffffffffffffffffffffffffffffffff161415612339576040517f08c379a000000000000000000000000000000000000000000000000000000000815260040161233090613447565b60405180910390fd5b600061234483612a86565b9050600061235184612b3a565b905080821161242a57600960009054906101000a900473ffffffffffffffffffffffffffffffffffffffff1673ffffffffffffffffffffffffffffffffffffffff166323b872dd8530856040518463ffffffff1660e01b81526004016123b993929190613257565b602060405180830381600087803b1580156123d357600080fd5b505af11580156123e7573d6000803e3d6000fd5b505050506040513d601f19601f8201168201806040525081019061240b9190612e8d565b5081600c600082825461241e91906135b3565b925050819055506124f6565b600960009054906101000a900473ffffffffffffffffffffffffffffffffffffffff1673ffffffffffffffffffffffffffffffffffffffff166323b872dd8530846040518463ffffffff1660e01b815260040161248993929190613257565b602060405180830381600087803b1580156124a357600080fd5b505af11580156124b7573d6000803e3d6000fd5b505050506040513d601f19601f820116820180604052508101906124db9190612e8d565b5080600c60008282546124ee91906135b3565b925050819055505b7fdab6b41c033365ceeaef7fa89bf33ee2f4bb51221b4a6db9596dbf5794f3efdc846040516125259190613213565b60405180910390a1600192505050919050565b6000600c54905090565b6000600160009054906101000a900473ffffffffffffffffffffffffffffffffffffffff1673ffffffffffffffffffffffffffffffffffffffff163373ffffffffffffffffffffffffffffffffffffffff16146125d4576040517f08c379a00000000000000000000000000000000000000000000000000000000081526004016125cb906133e7565b60405180910390fd5b60005b82518110156128b257600061262b84838151811061261e577f4e487b7100000000000000000000000000000000000000000000000000000000600052603260045260246000fd5b6020026020010151612a86565b9050600061267885848151811061266b577f4e487b7100000000000000000000000000000000000000000000000000000000600052603260045260246000fd5b6020026020010151612b3a565b905080821161279157600960009054906101000a900473ffffffffffffffffffffffffffffffffffffffff1673ffffffffffffffffffffffffffffffffffffffff166323b872dd8685815181106126f8577f4e487b7100000000000000000000000000000000000000000000000000000000600052603260045260246000fd5b602002602001015130856040518463ffffffff1660e01b815260040161272093929190613257565b602060405180830381600087803b15801561273a57600080fd5b505af115801561274e573d6000803e3d6000fd5b505050506040513d601f19601f820116820180604052508101906127729190612e8d565b5081600c600082825461278591906135b3565b9250508190555061289d565b600960009054906101000a900473ffffffffffffffffffffffffffffffffffffffff1673ffffffffffffffffffffffffffffffffffffffff166323b872dd868581518110612808577f4e487b7100000000000000000000000000000000000000000000000000000000600052603260045260246000fd5b602002602001015130846040518463ffffffff1660e01b815260040161283093929190613257565b602060405180830381600087803b15801561284a57600080fd5b505af115801561285e573d6000803e3d6000fd5b505050506040513d601f19601f820116820180604052508101906128829190612e8d565b5080600c600082825461289591906135b3565b925050819055505b505080806128aa90613741565b9150506125d7565b507fe3be3ff4c4b7c765f052cfa41e343b2e51709bdac88894c3a98e6dd96141ccb3826040516128e2919061330a565b60405180910390a160019050919050565b6000600160009054906101000a900473ffffffffffffffffffffffffffffffffffffffff1673ffffffffffffffffffffffffffffffffffffffff163373ffffffffffffffffffffffffffffffffffffffff1614612985576040517f08c379a000000000000000000000000000000000000000000000000000000000815260040161297c906133e7565b60405180910390fd5b8160076000858152602001908152602001600020819055507f1beaf6aec16e45fb798b77276fc3d06258f22188d254a2ad32e700851df6aa3c83836040516129ce9291906134b8565b60405180910390a16001905092915050565b6000600860009054906101000a900473ffffffffffffffffffffffffffffffffffffffff16905090565b6001816000016000828254019250508190555050565b600081600001549050919050565b60008183612a3c91906135b3565b905092915050565b60008183612a529190613694565b905092915050565b60008183612a68919061363a565b905092915050565b60008183612a7e9190613609565b905092915050565b6000600960009054906101000a900473ffffffffffffffffffffffffffffffffffffffff1673ffffffffffffffffffffffffffffffffffffffff166370a08231836040518263ffffffff1660e01b8152600401612ae39190613213565b60206040518083038186803b158015612afb57600080fd5b505afa158015612b0f573d6000803e3d6000fd5b505050506040513d601f19601f82011682018060405250810190612b339190612edf565b9050919050565b6000600960009054906101000a900473ffffffffffffffffffffffffffffffffffffffff1673ffffffffffffffffffffffffffffffffffffffff1663dd62ed3e83306040518363ffffffff1660e01b8152600401612b9992919061322e565b60206040518083038186803b158015612bb157600080fd5b505afa158015612bc5573d6000803e3d6000fd5b505050506040513d601f19601f82011682018060405250810190612be99190612edf565b9050919050565b6040518060800160405280600073ffffffffffffffffffffffffffffffffffffffff1681526020016000815260200160008152602001600081525090565b604051806040016040528060008152602001600081525090565b6000612c5b612c568461353d565b613518565b90508083825260208201905082856020860282011115612c7a57600080fd5b60005b85811015612caa5781612c908882612cb4565b845260208401935060208301925050600181019050612c7d565b5050509392505050565b600081359050612cc381613999565b92915050565b600082601f830112612cda57600080fd5b8135612cea848260208601612c48565b91505092915050565b600081359050612d02816139b0565b92915050565b600081519050612d17816139b0565b92915050565b600081359050612d2c816139c7565b92915050565b600081519050612d41816139c7565b92915050565b600060208284031215612d5957600080fd5b6000612d6784828501612cb4565b91505092915050565b600080600080600060a08688031215612d8857600080fd5b6000612d9688828901612cb4565b9550506020612da788828901612cb4565b9450506040612db888828901612d1d565b9350506060612dc988828901612d1d565b9250506080612dda88828901612d1d565b9150509295509295909350565b60008060408385031215612dfa57600080fd5b6000612e0885828601612cb4565b9250506020612e1985828601612d1d565b9150509250929050565b600060208284031215612e3557600080fd5b600082013567ffffffffffffffff811115612e4f57600080fd5b612e5b84828501612cc9565b91505092915050565b600060208284031215612e7657600080fd5b6000612e8484828501612cf3565b91505092915050565b600060208284031215612e9f57600080fd5b6000612ead84828501612d08565b91505092915050565b600060208284031215612ec857600080fd5b6000612ed684828501612d1d565b91505092915050565b600060208284031215612ef157600080fd5b6000612eff84828501612d32565b91505092915050565b60008060408385031215612f1b57600080fd5b6000612f2985828601612d1d565b9250506020612f3a85828601612d1d565b9150509250929050565b600080600060608486031215612f5957600080fd5b6000612f6786828701612d1d565b9350506020612f7886828701612d1d565b9250506040612f8986828701612d1d565b9150509250925092565b6000612f9f8383612fab565b60208301905092915050565b612fb4816136c8565b82525050565b612fc3816136c8565b82525050565b6000612fd482613579565b612fde8185613591565b9350612fe983613569565b8060005b8381101561301a5781516130018882612f93565b975061300c83613584565b925050600181019050612fed565b5085935050505092915050565b613030816136da565b82525050565b60006130436018836135a2565b915061304e82613828565b602082019050919050565b60006130666020836135a2565b915061307182613851565b602082019050919050565b60006130896020836135a2565b91506130948261387a565b602082019050919050565b60006130ac601b836135a2565b91506130b7826138a3565b602082019050919050565b60006130cf6012836135a2565b91506130da826138cc565b602082019050919050565b60006130f26017836135a2565b91506130fd826138f5565b602082019050919050565b60006131156015836135a2565b91506131208261391e565b602082019050919050565b60006131386018836135a2565b915061314382613947565b602082019050919050565b600061315b601e836135a2565b915061316682613970565b602082019050919050565b60408201600082015161318760008501826131f5565b50602082015161319a60208501826131f5565b50505050565b6080820160008201516131b66000850182612fab565b5060208201516131c960208501826131f5565b5060408201516131dc60408501826131f5565b5060608201516131ef60608501826131f5565b50505050565b6131fe81613706565b82525050565b61320d81613706565b82525050565b60006020820190506132286000830184612fba565b92915050565b60006040820190506132436000830185612fba565b6132506020830184612fba565b9392505050565b600060608201905061326c6000830186612fba565b6132796020830185612fba565b6132866040830184613204565b949350505050565b600060a0820190506132a36000830188612fba565b6132b06020830187612fba565b6132bd6040830186613204565b6132ca6060830185613204565b6132d76080830184613204565b9695505050505050565b60006040820190506132f66000830185612fba565b6133036020830184613204565b9392505050565b600060208201905081810360008301526133248184612fc9565b905092915050565b60006020820190506133416000830184613027565b92915050565b6000602082019050818103600083015261336081613036565b9050919050565b6000602082019050818103600083015261338081613059565b9050919050565b600060208201905081810360008301526133a08161307c565b9050919050565b600060208201905081810360008301526133c08161309f565b9050919050565b600060208201905081810360008301526133e0816130c2565b9050919050565b60006020820190508181036000830152613400816130e5565b9050919050565b6000602082019050818103600083015261342081613108565b9050919050565b600060208201905081810360008301526134408161312b565b9050919050565b600060208201905081810360008301526134608161314e565b9050919050565b600060408201905061347c6000830184613171565b92915050565b600060808201905061349760008301846131a0565b92915050565b60006020820190506134b26000830184613204565b92915050565b60006040820190506134cd6000830185613204565b6134da6020830184613204565b9392505050565b60006060820190506134f66000830186613204565b6135036020830185613204565b6135106040830184613204565b949350505050565b6000613522613533565b905061352e8282613710565b919050565b6000604051905090565b600067ffffffffffffffff821115613558576135576137e8565b5b602082029050602081019050919050565b6000819050602082019050919050565b600081519050919050565b6000602082019050919050565b600082825260208201905092915050565b600082825260208201905092915050565b60006135be82613706565b91506135c983613706565b9250827fffffffffffffffffffffffffffffffffffffffffffffffffffffffffffffffff038211156135fe576135fd61378a565b5b828201905092915050565b600061361482613706565b915061361f83613706565b92508261362f5761362e6137b9565b5b828204905092915050565b600061364582613706565b915061365083613706565b9250817fffffffffffffffffffffffffffffffffffffffffffffffffffffffffffffffff04831182151516156136895761368861378a565b5b828202905092915050565b600061369f82613706565b91506136aa83613706565b9250828210156136bd576136bc61378a565b5b828203905092915050565b60006136d3826136e6565b9050919050565b60008115159050919050565b600073ffffffffffffffffffffffffffffffffffffffff82169050919050565b6000819050919050565b61371982613817565b810181811067ffffffffffffffff82111715613738576137376137e8565b5b80604052505050565b600061374c82613706565b91507fffffffffffffffffffffffffffffffffffffffffffffffffffffffffffffffff82141561377f5761377e61378a565b5b600182019050919050565b7f4e487b7100000000000000000000000000000000000000000000000000000000600052601160045260246000fd5b7f4e487b7100000000000000000000000000000000000000000000000000000000600052601260045260246000fd5b7f4e487b7100000000000000000000000000000000000000000000000000000000600052604160045260246000fd5b6000601f19601f8301169050919050565b7f546869732069732061207265656e7472792061747461636b0000000000000000600082015250565b7f5468652073616665576974686472617720616d6f756e742069732077726f6e67600082015250565b7f5468652072656665727265722063616e206e6f7420626520796f757273656c66600082015250565b7f546865206d61737465722063616e206e6f742070757263686173650000000000600082015250565b7f546865206c6576656c2069732077726f6e670000000000000000000000000000600082015250565b7f5468652063616c6c6572206973206e6f74206f776e6572000000000000000000600082015250565b7f54686520726566657272616c2073687574646f776e0000000000000000000000600082015250565b7f5468652072656665726572206973206e6f742065786973740000000000000000600082015250565b7f54686520627579657220616464726573732063616e206e6f7420626520300000600082015250565b6139a2816136c8565b81146139ad57600080fd5b50565b6139b9816136da565b81146139c457600080fd5b50565b6139d081613706565b81146139db57600080fd5b5056fea2646970667358221220cf5ffd930760710e1eb57e504f6fa4ce303441d39bd264da2dd8fcbd5caba1d164736f6c63430008010033",
  "linkReferences": {},
  "deployedLinkReferences": {}
}