{
  "_format": "hh-sol-artifact-1",
  "contractName": "Referral",
  "sourceName": "contracts/Referral.sol",
  "abi": [
    {
      "inputs": [],
      "stateMutability": "nonpayable",
      "type": "constructor"
    },
    {
      "anonymous": false,
      "inputs": [
        {
          "indexed": false,
          "internalType": "address",
          "name": "referer",
          "type": "address"
        },
        {
          "indexed": false,
          "internalType": "uint256",
          "name": "nftlevel",
          "type": "uint256"
        }
      ],
      "name": "e_Purchase",
      "type": "event"
    },
    {
      "anonymous": false,
      "inputs": [
        {
          "indexed": false,
          "internalType": "address",
          "name": "buyer",
          "type": "address"
        }
      ],
      "name": "e_approvedOfAddress",
      "type": "event"
    },
    {
      "anonymous": false,
      "inputs": [
        {
          "indexed": false,
          "internalType": "address",
          "name": "buyer",
          "type": "address"
        }
      ],
      "name": "e_balanceOfAddress",
      "type": "event"
    },
    {
      "anonymous": false,
      "inputs": [
        {
          "indexed": false,
          "internalType": "address[]",
          "name": "buyer",
          "type": "address[]"
        }
      ],
      "name": "e_cheapWithdrawFrom",
      "type": "event"
    },
    {
      "anonymous": false,
      "inputs": [
        {
          "indexed": false,
          "internalType": "uint256",
          "name": "amount",
          "type": "uint256"
        }
      ],
      "name": "e_safeWithdraw",
      "type": "event"
    },
    {
      "anonymous": false,
      "inputs": [
        {
          "indexed": false,
          "internalType": "uint256",
          "name": "level",
          "type": "uint256"
        },
        {
          "indexed": false,
          "internalType": "uint256",
          "name": "percent",
          "type": "uint256"
        },
        {
          "indexed": false,
          "internalType": "uint256",
          "name": "saleLimit",
          "type": "uint256"
        }
      ],
      "name": "e_setLevelData",
      "type": "event"
    },
    {
      "anonymous": false,
      "inputs": [
        {
          "indexed": false,
          "internalType": "address",
          "name": "master",
          "type": "address"
        }
      ],
      "name": "e_setMaster",
      "type": "event"
    },
    {
      "anonymous": false,
      "inputs": [
        {
          "indexed": false,
          "internalType": "uint256",
          "name": "level",
          "type": "uint256"
        }
      ],
      "name": "e_setMaxLevel",
      "type": "event"
    },
    {
      "anonymous": false,
      "inputs": [
        {
          "indexed": false,
          "internalType": "address",
          "name": "nft",
          "type": "address"
        }
      ],
      "name": "e_setNFTAddress",
      "type": "event"
    },
    {
      "anonymous": false,
      "inputs": [
        {
          "indexed": false,
          "internalType": "address",
          "name": "token",
          "type": "address"
        }
      ],
      "name": "e_setPaytype",
      "type": "event"
    },
    {
      "anonymous": false,
      "inputs": [
        {
          "indexed": false,
          "internalType": "uint256",
          "name": "nftlevel",
          "type": "uint256"
        },
        {
          "indexed": false,
          "internalType": "uint256",
          "name": "price",
          "type": "uint256"
        }
      ],
      "name": "e_setPrice",
      "type": "event"
    },
    {
      "anonymous": false,
      "inputs": [
        {
          "indexed": false,
          "internalType": "bool",
          "name": "should",
          "type": "bool"
        }
      ],
      "name": "e_setShutdown",
      "type": "event"
    },
    {
      "anonymous": false,
      "inputs": [
        {
          "indexed": false,
          "internalType": "address",
          "name": "user",
          "type": "address"
        },
        {
          "indexed": false,
          "internalType": "address",
          "name": "parent",
          "type": "address"
        },
        {
          "indexed": false,
          "internalType": "uint256",
          "name": "level",
          "type": "uint256"
        },
        {
          "indexed": false,
          "internalType": "uint256",
          "name": "sale",
          "type": "uint256"
        },
        {
          "indexed": false,
          "internalType": "uint256",
          "name": "share",
          "type": "uint256"
        }
      ],
      "name": "e_setUserData",
      "type": "event"
    },
    {
      "anonymous": false,
      "inputs": [],
      "name": "e_shareWithdraw",
      "type": "event"
    },
    {
      "anonymous": false,
      "inputs": [
        {
          "indexed": false,
          "internalType": "address",
          "name": "from",
          "type": "address"
        }
      ],
      "name": "e_withdrawFrom",
      "type": "event"
    },
    {
      "inputs": [
        {
          "internalType": "address",
          "name": "referer",
          "type": "address"
        },
        {
          "internalType": "uint256",
          "name": "nftlevel",
          "type": "uint256"
        }
      ],
      "name": "Purchase",
      "outputs": [
        {
          "internalType": "bool",
          "name": "",
          "type": "bool"
        }
      ],
      "stateMutability": "payable",
      "type": "function"
    },
    {
      "inputs": [
        {
          "internalType": "address[]",
          "name": "buyer",
          "type": "address[]"
        }
      ],
      "name": "cheapWithdrawFrom",
      "outputs": [
        {
          "internalType": "bool",
          "name": "",
          "type": "bool"
        }
      ],
      "stateMutability": "nonpayable",
      "type": "function"
    },
    {
      "inputs": [],
      "name": "fetchAllBuyer",
      "outputs": [
        {
          "internalType": "address[]",
          "name": "",
          "type": "address[]"
        }
      ],
      "stateMutability": "view",
      "type": "function"
    },
    {
      "inputs": [],
      "name": "fetchAllBuyerLength",
      "outputs": [
        {
          "internalType": "uint256",
          "name": "",
          "type": "uint256"
        }
      ],
      "stateMutability": "view",
      "type": "function"
    },
    {
      "inputs": [
        {
          "internalType": "uint256",
          "name": "index",
          "type": "uint256"
        }
      ],
      "name": "fetchBuyerAtIndex",
      "outputs": [
        {
          "internalType": "address",
          "name": "",
          "type": "address"
        }
      ],
      "stateMutability": "view",
      "type": "function"
    },
    {
      "inputs": [
        {
          "internalType": "uint256",
          "name": "level",
          "type": "uint256"
        }
      ],
      "name": "fetchLevelData",
      "outputs": [
        {
          "components": [
            {
              "internalType": "uint256",
              "name": "Percent",
              "type": "uint256"
            },
            {
              "internalType": "uint256",
              "name": "saleLimit",
              "type": "uint256"
            }
          ],
          "internalType": "struct Referral.levelData",
          "name": "",
          "type": "tuple"
        }
      ],
      "stateMutability": "view",
      "type": "function"
    },
    {
      "inputs": [],
      "name": "fetchMasterAddress",
      "outputs": [
        {
          "internalType": "address",
          "name": "",
          "type": "address"
        }
      ],
      "stateMutability": "view",
      "type": "function"
    },
    {
      "inputs": [],
      "name": "fetchMaxLevel",
      "outputs": [
        {
          "internalType": "uint256",
          "name": "",
          "type": "uint256"
        }
      ],
      "stateMutability": "view",
      "type": "function"
    },
    {
      "inputs": [],
      "name": "fetchNFTAddress",
      "outputs": [
        {
          "internalType": "address",
          "name": "",
          "type": "address"
        }
      ],
      "stateMutability": "view",
      "type": "function"
    },
    {
      "inputs": [
        {
          "internalType": "uint256",
          "name": "id",
          "type": "uint256"
        }
      ],
      "name": "fetchNFTLevel",
      "outputs": [
        {
          "internalType": "uint256",
          "name": "",
          "type": "uint256"
        }
      ],
      "stateMutability": "view",
      "type": "function"
    },
    {
      "inputs": [],
      "name": "fetchOwner",
      "outputs": [
        {
          "internalType": "address",
          "name": "",
          "type": "address"
        }
      ],
      "stateMutability": "view",
      "type": "function"
    },
    {
      "inputs": [],
      "name": "fetchPaytype",
      "outputs": [
        {
          "internalType": "address",
          "name": "",
          "type": "address"
        }
      ],
      "stateMutability": "view",
      "type": "function"
    },
    {
      "inputs": [
        {
          "internalType": "uint256",
          "name": "nftlevel",
          "type": "uint256"
        }
      ],
      "name": "fetchPrice",
      "outputs": [
        {
          "internalType": "uint256",
          "name": "",
          "type": "uint256"
        }
      ],
      "stateMutability": "view",
      "type": "function"
    },
    {
      "inputs": [],
      "name": "fetchSafeWithdrawAmount",
      "outputs": [
        {
          "internalType": "uint256",
          "name": "",
          "type": "uint256"
        }
      ],
      "stateMutability": "view",
      "type": "function"
    },
    {
      "inputs": [],
      "name": "fetchShutdown",
      "outputs": [
        {
          "internalType": "bool",
          "name": "",
          "type": "bool"
        }
      ],
      "stateMutability": "view",
      "type": "function"
    },
    {
      "inputs": [
        {
          "internalType": "address",
          "name": "user",
          "type": "address"
        }
      ],
      "name": "fetchUserData",
      "outputs": [
        {
          "components": [
            {
              "internalType": "address",
              "name": "Parent",
              "type": "address"
            },
            {
              "internalType": "uint256",
              "name": "Level",
              "type": "uint256"
            },
            {
              "internalType": "uint256",
              "name": "Sale",
              "type": "uint256"
            },
            {
              "internalType": "uint256",
              "name": "Share",
              "type": "uint256"
            }
          ],
          "internalType": "struct Referral.userData",
          "name": "",
          "type": "tuple"
        }
      ],
      "stateMutability": "view",
      "type": "function"
    },
    {
      "inputs": [
        {
          "internalType": "uint256",
          "name": "amount",
          "type": "uint256"
        }
      ],
      "name": "safeWithdraw",
      "outputs": [
        {
          "internalType": "bool",
          "name": "",
          "type": "bool"
        }
      ],
      "stateMutability": "nonpayable",
      "type": "function"
    },
    {
      "inputs": [
        {
          "internalType": "uint256",
          "name": "level",
          "type": "uint256"
        },
        {
          "internalType": "uint256",
          "name": "percent",
          "type": "uint256"
        },
        {
          "internalType": "uint256",
          "name": "saleLimit",
          "type": "uint256"
        }
      ],
      "name": "setLevelData",
      "outputs": [
        {
          "internalType": "bool",
          "name": "",
          "type": "bool"
        }
      ],
      "stateMutability": "nonpayable",
      "type": "function"
    },
    {
      "inputs": [
        {
          "internalType": "address",
          "name": "master",
          "type": "address"
        }
      ],
      "name": "setMaster",
      "outputs": [
        {
          "internalType": "bool",
          "name": "",
          "type": "bool"
        }
      ],
      "stateMutability": "nonpayable",
      "type": "function"
    },
    {
      "inputs": [
        {
          "internalType": "uint256",
          "name": "level",
          "type": "uint256"
        }
      ],
      "name": "setMaxLevel",
      "outputs": [
        {
          "internalType": "bool",
          "name": "",
          "type": "bool"
        }
      ],
      "stateMutability": "nonpayable",
      "type": "function"
    },
    {
      "inputs": [
        {
          "internalType": "address",
          "name": "nft",
          "type": "address"
        }
      ],
      "name": "setNFTAddress",
      "outputs": [
        {
          "internalType": "bool",
          "name": "",
          "type": "bool"
        }
      ],
      "stateMutability": "nonpayable",
      "type": "function"
    },
    {
      "inputs": [
        {
          "internalType": "address",
          "name": "token",
          "type": "address"
        }
      ],
      "name": "setPaytype",
      "outputs": [
        {
          "internalType": "bool",
          "name": "",
          "type": "bool"
        }
      ],
      "stateMutability": "nonpayable",
      "type": "function"
    },
    {
      "inputs": [
        {
          "internalType": "uint256",
          "name": "nftlevel",
          "type": "uint256"
        },
        {
          "internalType": "uint256",
          "name": "price",
          "type": "uint256"
        }
      ],
      "name": "setPrice",
      "outputs": [
        {
          "internalType": "bool",
          "name": "",
          "type": "bool"
        }
      ],
      "stateMutability": "nonpayable",
      "type": "function"
    },
    {
      "inputs": [
        {
          "internalType": "bool",
          "name": "should",
          "type": "bool"
        }
      ],
      "name": "setShutdown",
      "outputs": [
        {
          "internalType": "bool",
          "name": "",
          "type": "bool"
        }
      ],
      "stateMutability": "nonpayable",
      "type": "function"
    },
    {
      "inputs": [
        {
          "internalType": "address",
          "name": "user",
          "type": "address"
        },
        {
          "internalType": "address",
          "name": "parent",
          "type": "address"
        },
        {
          "internalType": "uint256",
          "name": "level",
          "type": "uint256"
        },
        {
          "internalType": "uint256",
          "name": "sale",
          "type": "uint256"
        },
        {
          "internalType": "uint256",
          "name": "share",
          "type": "uint256"
        }
      ],
      "name": "setUserData",
      "outputs": [
        {
          "internalType": "bool",
          "name": "",
          "type": "bool"
        }
      ],
      "stateMutability": "nonpayable",
      "type": "function"
    },
    {
      "inputs": [],
      "name": "shareWithdraw",
      "outputs": [
        {
          "internalType": "bool",
          "name": "",
          "type": "bool"
        }
      ],
      "stateMutability": "nonpayable",
      "type": "function"
    },
    {
      "inputs": [
        {
          "internalType": "address",
          "name": "from",
          "type": "address"
        }
      ],
      "name": "withdrawFrom",
      "outputs": [
        {
          "internalType": "bool",
          "name": "",
          "type": "bool"
        }
      ],
      "stateMutability": "nonpayable",
      "type": "function"
    }
  ],
  "bytecode": "0x60806040523480156200001157600080fd5b50620000226200002860201b60201c565b6200006b565b33600160006101000a81548173ffffffffffffffffffffffffffffffffffffffff021916908373ffffffffffffffffffffffffffffffffffffffff160217905550565b613789806200007b6000396000f3fe60806040526004361061019c5760003560e01c8063a4377b9f116100ec578063d07de57d1161008a578063f01a5cd811610064578063f01a5cd81461067f578063f714b466146106aa578063f7d97577146106e7578063fb473dcf146107245761019c565b8063d07de57d146105ec578063d963b26614610617578063de1b0486146106425761019c565b8063c48510e4116100c6578063c48510e41461050a578063c6e994d714610547578063c7edb6c314610572578063cc174191146105af5761019c565b8063a4377b9f14610465578063b0fd035b14610490578063c1819eb6146104cd5761019c565b8063344f1ba51161015957806369d037381161013357806369d0373814610383578063725e9130146103c057806373179fee146103eb5780639ed12677146104285761019c565b8063344f1ba5146102de578063400af3401461031b578063461cc813146103465761019c565b80631559f782146101a157806316a68ef8146101de57806320ced446146102095780632499a5331461024657806326fae0d3146102765780632f8407c2146102b3575b600080fd5b3480156101ad57600080fd5b506101c860048036038101906101c39190612d03565b61074f565b6040516101d59190613264565b60405180910390f35b3480156101ea57600080fd5b506101f361076c565b6040516102009190613264565b60405180910390f35b34801561021557600080fd5b50610230600480360381019061022b9190612b94565b610776565b60405161023d9190613249565b60405180910390f35b610260600480360381019061025b9190612c34565b610843565b60405161026d9190613133565b60405180910390f35b34801561028257600080fd5b5061029d60048036038101906102989190612b94565b61120d565b6040516102aa9190613133565b60405180910390f35b3480156102bf57600080fd5b506102c86113f5565b6040516102d5919061301a565b60405180910390f35b3480156102ea57600080fd5b5061030560048036038101906103009190612d03565b61141f565b6040516103129190613133565b60405180910390f35b34801561032757600080fd5b506103306114f8565b60405161033d9190613264565b60405180910390f35b34801561035257600080fd5b5061036d60048036038101906103689190612d03565b611505565b60405161037a919061301a565b60405180910390f35b34801561038f57600080fd5b506103aa60048036038101906103a59190612b94565b611573565b6040516103b79190613133565b60405180910390f35b3480156103cc57600080fd5b506103d5611686565b6040516103e29190613133565b60405180910390f35b3480156103f757600080fd5b50610412600480360381019061040d9190612d91565b61169d565b60405161041f9190613133565b60405180910390f35b34801561043457600080fd5b5061044f600480360381019061044a9190612bbd565b61179f565b60405161045c9190613133565b60405180910390f35b34801561047157600080fd5b5061047a61191f565b6040516104879190613111565b60405180910390f35b34801561049c57600080fd5b506104b760048036038101906104b29190612d03565b6119ad565b6040516104c49190613133565b60405180910390f35b3480156104d957600080fd5b506104f460048036038101906104ef9190612cb1565b611c4c565b6040516105019190613133565b60405180910390f35b34801561051657600080fd5b50610531600480360381019061052c9190612d03565b611d38565b60405161053e9190613264565b60405180910390f35b34801561055357600080fd5b5061055c611d55565b6040516105699190613133565b60405180910390f35b34801561057e57600080fd5b5061059960048036038101906105949190612b94565b611edc565b6040516105a69190613133565b60405180910390f35b3480156105bb57600080fd5b506105d660048036038101906105d19190612d03565b611fef565b6040516105e3919061322e565b60405180910390f35b3480156105f857600080fd5b50610601612030565b60405161060e919061301a565b60405180910390f35b34801561062357600080fd5b5061062c61205a565b604051610639919061301a565b60405180910390f35b34801561064e57600080fd5b5061066960048036038101906106649190612b94565b612084565b6040516106769190613133565b60405180910390f35b34801561068b57600080fd5b50610694612385565b6040516106a19190613264565b60405180910390f35b3480156106b657600080fd5b506106d160048036038101906106cc9190612c70565b61238f565b6040516106de9190613133565b60405180910390f35b3480156106f357600080fd5b5061070e60048036038101906107099190612d55565b612740565b60405161071b9190613133565b60405180910390f35b34801561073057600080fd5b5061073961282d565b604051610746919061301a565b60405180910390f35b600060076000838152602001908152602001600020549050919050565b6000600b54905090565b61077e612a3d565b600460008373ffffffffffffffffffffffffffffffffffffffff1673ffffffffffffffffffffffffffffffffffffffff1681526020019081526020016000206040518060800160405290816000820160009054906101000a900473ffffffffffffffffffffffffffffffffffffffff1673ffffffffffffffffffffffffffffffffffffffff1673ffffffffffffffffffffffffffffffffffffffff16815260200160018201548152602001600282015481526020016003820154815250509050919050565b6000600160149054906101000a900460ff1615610895576040517f08c379a000000000000000000000000000000000000000000000000000000000815260040161088c906131ce565b60405180910390fd5b600860009054906101000a900473ffffffffffffffffffffffffffffffffffffffff1673ffffffffffffffffffffffffffffffffffffffff163373ffffffffffffffffffffffffffffffffffffffff161415610926576040517f08c379a000000000000000000000000000000000000000000000000000000000815260040161091d9061316e565b60405180910390fd5b6000600460008573ffffffffffffffffffffffffffffffffffffffff1673ffffffffffffffffffffffffffffffffffffffff1681526020019081526020016000206001015414156109ac576040517f08c379a00000000000000000000000000000000000000000000000000000000081526004016109a3906131ee565b60405180910390fd5b600060076000848152602001908152602001600020541415610a03576040517f08c379a00000000000000000000000000000000000000000000000000000000081526004016109fa9061318e565b60405180910390fd5b6000806000600960009054906101000a900473ffffffffffffffffffffffffffffffffffffffff1673ffffffffffffffffffffffffffffffffffffffff166323b872dd3330600760008a8152602001908152602001600020546040518463ffffffff1660e01b8152600401610a7a9392919061305e565b602060405180830381600087803b158015610a9457600080fd5b505af1158015610aa8573d6000803e3d6000fd5b505050506040513d601f19601f82011682018060405250810190610acc9190612cda565b50600a60009054906101000a900473ffffffffffffffffffffffffffffffffffffffff1673ffffffffffffffffffffffffffffffffffffffff166340d097c3336040518263ffffffff1660e01b8152600401610b28919061301a565b600060405180830381600087803b158015610b4257600080fd5b505af1158015610b56573d6000803e3d6000fd5b505050508460036000610b696000612857565b815260200190815260200160002081905550610b856000612865565b6000600460003373ffffffffffffffffffffffffffffffffffffffff1673ffffffffffffffffffffffffffffffffffffffff168152602001908152602001600020600101541415610c19576001600460003373ffffffffffffffffffffffffffffffffffffffff1673ffffffffffffffffffffffffffffffffffffffff168152602001908152602001600020600101819055505b600073ffffffffffffffffffffffffffffffffffffffff16600460003373ffffffffffffffffffffffffffffffffffffffff1673ffffffffffffffffffffffffffffffffffffffff16815260200190815260200160002060000160009054906101000a900473ffffffffffffffffffffffffffffffffffffffff1673ffffffffffffffffffffffffffffffffffffffff161415610d395785915085600460003373ffffffffffffffffffffffffffffffffffffffff1673ffffffffffffffffffffffffffffffffffffffff16815260200190815260200160002060000160006101000a81548173ffffffffffffffffffffffffffffffffffffffff021916908373ffffffffffffffffffffffffffffffffffffffff160217905550610d9f565b600460003373ffffffffffffffffffffffffffffffffffffffff1673ffffffffffffffffffffffffffffffffffffffff16815260200190815260200160002060000160009054906101000a900473ffffffffffffffffffffffffffffffffffffffff1691505b5b60fa831015610ff257610dbd60018461287b90919063ffffffff16565b92506000600460008473ffffffffffffffffffffffffffffffffffffffff1673ffffffffffffffffffffffffffffffffffffffff1681526020019081526020016000209050600060026000836001015481526020019081526020016000209050610e356001836002015461287b90919063ffffffff16565b82600201819055505b600b5482600101541015610e9a57600260008360010154815260200190815260200160002060010154826002015410610e9057816001016000815480929190610e8690613508565b9190505550610e95565b610e9a565b610e3e565b600260008360010154815260200190815260200160002090508060000154831015610f3557610f0f6103e8610f01600760008b815260200190815260200160002054610ef387866000015461289190919063ffffffff16565b6128a790919063ffffffff16565b6128bd90919063ffffffff16565b826003016000828254610f22919061337a565b9250508190555080600001549250610f3d565b806000015492505b60026000600b54815260200190815260200160002060000154831415610f64575050610ff2565b600073ffffffffffffffffffffffffffffffffffffffff168260000160009054906101000a900473ffffffffffffffffffffffffffffffffffffffff1673ffffffffffffffffffffffffffffffffffffffff161415610fc4575050610ff2565b8160000160009054906101000a900473ffffffffffffffffffffffffffffffffffffffff1693505050610da0565b6110406103e86110326007600089815260200190815260200160002054611024856103e861289190919063ffffffff16565b6128a790919063ffffffff16565b6128bd90919063ffffffff16565b60046000600860009054906101000a900473ffffffffffffffffffffffffffffffffffffffff1673ffffffffffffffffffffffffffffffffffffffff1673ffffffffffffffffffffffffffffffffffffffff16815260200190815260200160002060030160008282546110b3919061337a565b92505081905550600560003373ffffffffffffffffffffffffffffffffffffffff1673ffffffffffffffffffffffffffffffffffffffff16815260200190815260200160002060009054906101000a900460ff166111c7576001600560003373ffffffffffffffffffffffffffffffffffffffff1673ffffffffffffffffffffffffffffffffffffffff16815260200190815260200160002060006101000a81548160ff0219169083151502179055506006339080600181540180825580915050600190039060005260206000200160009091909190916101000a81548173ffffffffffffffffffffffffffffffffffffffff021916908373ffffffffffffffffffffffffffffffffffffffff1602179055505b7f053c5d59d7260184fb2528f477442d74de71217c757a5e8c340a2d830980832686866040516111f89291906130e8565b60405180910390a16001935050505092915050565b6000600160009054906101000a900473ffffffffffffffffffffffffffffffffffffffff1673ffffffffffffffffffffffffffffffffffffffff163373ffffffffffffffffffffffffffffffffffffffff161461129f576040517f08c379a0000000000000000000000000000000000000000000000000000000008152600401611296906131ae565b60405180910390fd5b600160046000600860009054906101000a900473ffffffffffffffffffffffffffffffffffffffff1673ffffffffffffffffffffffffffffffffffffffff1673ffffffffffffffffffffffffffffffffffffffff1681526020019081526020016000206001018190555081600860006101000a81548173ffffffffffffffffffffffffffffffffffffffff021916908373ffffffffffffffffffffffffffffffffffffffff160217905550600b5460046000600860009054906101000a900473ffffffffffffffffffffffffffffffffffffffff1673ffffffffffffffffffffffffffffffffffffffff1673ffffffffffffffffffffffffffffffffffffffff168152602001908152602001600020600101819055507fb6b84506c65b27dd82d3bbd07c1aa1835f278d78b76836eb187652c5fbcffa5f826040516113e4919061301a565b60405180910390a160019050919050565b6000600160009054906101000a900473ffffffffffffffffffffffffffffffffffffffff16905090565b6000600160009054906101000a900473ffffffffffffffffffffffffffffffffffffffff1673ffffffffffffffffffffffffffffffffffffffff163373ffffffffffffffffffffffffffffffffffffffff16146114b1576040517f08c379a00000000000000000000000000000000000000000000000000000000081526004016114a8906131ae565b60405180910390fd5b81600b819055507fc61df3e970a71753235850dd195e541bada36511a1fe91042b84ad1096cf225a826040516114e79190613264565b60405180910390a160019050919050565b6000600680549050905090565b600060068281548110611541577f4e487b7100000000000000000000000000000000000000000000000000000000600052603260045260246000fd5b9060005260206000200160009054906101000a900473ffffffffffffffffffffffffffffffffffffffff169050919050565b6000600160009054906101000a900473ffffffffffffffffffffffffffffffffffffffff1673ffffffffffffffffffffffffffffffffffffffff163373ffffffffffffffffffffffffffffffffffffffff1614611605576040517f08c379a00000000000000000000000000000000000000000000000000000000081526004016115fc906131ae565b60405180910390fd5b81600a60006101000a81548173ffffffffffffffffffffffffffffffffffffffff021916908373ffffffffffffffffffffffffffffffffffffffff1602179055507fa284800025ed1b3181b996e173d7c5fc02752b2eac143d8d23dcc7deecae9ee982604051611675919061301a565b60405180910390a160019050919050565b6000600160149054906101000a900460ff16905090565b6000600160009054906101000a900473ffffffffffffffffffffffffffffffffffffffff1673ffffffffffffffffffffffffffffffffffffffff163373ffffffffffffffffffffffffffffffffffffffff161461172f576040517f08c379a0000000000000000000000000000000000000000000000000000000008152600401611726906131ae565b60405180910390fd5b60006002600086815260200190815260200160002090508381600001819055508281600101819055507ffb697c2cca069660e3c569eeda13f1db3b3dd1ba3cb0674c08d434cdef4e1a0f85858560405161178b939291906132a8565b60405180910390a160019150509392505050565b6000600160009054906101000a900473ffffffffffffffffffffffffffffffffffffffff1673ffffffffffffffffffffffffffffffffffffffff163373ffffffffffffffffffffffffffffffffffffffff1614611831576040517f08c379a0000000000000000000000000000000000000000000000000000000008152600401611828906131ae565b60405180910390fd5b6000600460008873ffffffffffffffffffffffffffffffffffffffff1673ffffffffffffffffffffffffffffffffffffffff1681526020019081526020016000209050858160000160006101000a81548173ffffffffffffffffffffffffffffffffffffffff021916908373ffffffffffffffffffffffffffffffffffffffff1602179055508481600101819055508381600201819055508281600301819055507f2c1d4f56aea402ae7839630ce023cab834adbfa4081a8a337257da9c97206bed8787878787604051611909959493929190613095565b60405180910390a1600191505095945050505050565b606060068054806020026020016040519081016040528092919081815260200182805480156119a357602002820191906000526020600020905b8160009054906101000a900473ffffffffffffffffffffffffffffffffffffffff1673ffffffffffffffffffffffffffffffffffffffff1681526020019060010190808311611959575b5050505050905090565b6000600160009054906101000a900473ffffffffffffffffffffffffffffffffffffffff1673ffffffffffffffffffffffffffffffffffffffff163373ffffffffffffffffffffffffffffffffffffffff1614611a3f576040517f08c379a0000000000000000000000000000000000000000000000000000000008152600401611a36906131ae565b60405180910390fd5b81600960009054906101000a900473ffffffffffffffffffffffffffffffffffffffff1673ffffffffffffffffffffffffffffffffffffffff166370a08231306040518263ffffffff1660e01b8152600401611a9b919061301a565b60206040518083038186803b158015611ab357600080fd5b505afa158015611ac7573d6000803e3d6000fd5b505050506040513d601f19601f82011682018060405250810190611aeb9190612d2c565b1015611b2c576040517f08c379a0000000000000000000000000000000000000000000000000000000008152600401611b239061314e565b60405180910390fd5b600960009054906101000a900473ffffffffffffffffffffffffffffffffffffffff1673ffffffffffffffffffffffffffffffffffffffff1663a9059cbb33846040518363ffffffff1660e01b8152600401611b899291906130e8565b602060405180830381600087803b158015611ba357600080fd5b505af1158015611bb7573d6000803e3d6000fd5b505050506040513d601f19601f82011682018060405250810190611bdb9190612cda565b50600c548211611c035781600c6000828254611bf7919061345b565b92505081905550611c0c565b6000600c819055505b7ff30620ed766039cf960c3d593cbf85cd6f72229d05f93662c8b2433dd73cce8d82604051611c3b9190613264565b60405180910390a160019050919050565b6000600160009054906101000a900473ffffffffffffffffffffffffffffffffffffffff1673ffffffffffffffffffffffffffffffffffffffff163373ffffffffffffffffffffffffffffffffffffffff1614611cde576040517f08c379a0000000000000000000000000000000000000000000000000000000008152600401611cd5906131ae565b60405180910390fd5b81600160146101000a81548160ff0219169083151502179055507f6f3d78089a010173684596de08a62db9db6c57cd125d4a57afd37e7e0a206ea782604051611d279190613133565b60405180910390a160019050919050565b600060036000838152602001908152602001600020549050919050565b6000600160149054906101000a900460ff1615611da7576040517f08c379a0000000000000000000000000000000000000000000000000000000008152600401611d9e906131ce565b60405180910390fd5b6000600460003373ffffffffffffffffffffffffffffffffffffffff1673ffffffffffffffffffffffffffffffffffffffff1681526020019081526020016000209050600960009054906101000a900473ffffffffffffffffffffffffffffffffffffffff1673ffffffffffffffffffffffffffffffffffffffff1663a9059cbb3383600301546040518363ffffffff1660e01b8152600401611e4b9291906130e8565b602060405180830381600087803b158015611e6557600080fd5b505af1158015611e79573d6000803e3d6000fd5b505050506040513d601f19601f82011682018060405250810190611e9d9190612cda565b50600081600301819055507fb924346509e802f5688589a966c78583059c9fea4f5f29de703fe6d269b95b2360405160405180910390a1600191505090565b6000600160009054906101000a900473ffffffffffffffffffffffffffffffffffffffff1673ffffffffffffffffffffffffffffffffffffffff163373ffffffffffffffffffffffffffffffffffffffff1614611f6e576040517f08c379a0000000000000000000000000000000000000000000000000000000008152600401611f65906131ae565b60405180910390fd5b81600960006101000a81548173ffffffffffffffffffffffffffffffffffffffff021916908373ffffffffffffffffffffffffffffffffffffffff1602179055507fbf693622fd223b281b931bf267bc83534c3e0d707c8a52380e6c574a6e7da6a082604051611fde919061301a565b60405180910390a160019050919050565b611ff7612a7b565b60026000838152602001908152602001600020604051806040016040529081600082015481526020016001820154815250509050919050565b6000600a60009054906101000a900473ffffffffffffffffffffffffffffffffffffffff16905090565b6000600960009054906101000a900473ffffffffffffffffffffffffffffffffffffffff16905090565b6000600160009054906101000a900473ffffffffffffffffffffffffffffffffffffffff1673ffffffffffffffffffffffffffffffffffffffff163373ffffffffffffffffffffffffffffffffffffffff1614612116576040517f08c379a000000000000000000000000000000000000000000000000000000000815260040161210d906131ae565b60405180910390fd5b600073ffffffffffffffffffffffffffffffffffffffff168273ffffffffffffffffffffffffffffffffffffffff161415612186576040517f08c379a000000000000000000000000000000000000000000000000000000000815260040161217d9061320e565b60405180910390fd5b6000612191836128d3565b9050600061219e84612987565b905080821161227757600960009054906101000a900473ffffffffffffffffffffffffffffffffffffffff1673ffffffffffffffffffffffffffffffffffffffff166323b872dd8530856040518463ffffffff1660e01b81526004016122069392919061305e565b602060405180830381600087803b15801561222057600080fd5b505af1158015612234573d6000803e3d6000fd5b505050506040513d601f19601f820116820180604052508101906122589190612cda565b5081600c600082825461226b919061337a565b92505081905550612343565b600960009054906101000a900473ffffffffffffffffffffffffffffffffffffffff1673ffffffffffffffffffffffffffffffffffffffff166323b872dd8530846040518463ffffffff1660e01b81526004016122d69392919061305e565b602060405180830381600087803b1580156122f057600080fd5b505af1158015612304573d6000803e3d6000fd5b505050506040513d601f19601f820116820180604052508101906123289190612cda565b5080600c600082825461233b919061337a565b925050819055505b7fdab6b41c033365ceeaef7fa89bf33ee2f4bb51221b4a6db9596dbf5794f3efdc84604051612372919061301a565b60405180910390a1600192505050919050565b6000600c54905090565b6000600160009054906101000a900473ffffffffffffffffffffffffffffffffffffffff1673ffffffffffffffffffffffffffffffffffffffff163373ffffffffffffffffffffffffffffffffffffffff1614612421576040517f08c379a0000000000000000000000000000000000000000000000000000000008152600401612418906131ae565b60405180910390fd5b60005b82518110156126ff57600061247884838151811061246b577f4e487b7100000000000000000000000000000000000000000000000000000000600052603260045260246000fd5b60200260200101516128d3565b905060006124c58584815181106124b8577f4e487b7100000000000000000000000000000000000000000000000000000000600052603260045260246000fd5b6020026020010151612987565b90508082116125de57600960009054906101000a900473ffffffffffffffffffffffffffffffffffffffff1673ffffffffffffffffffffffffffffffffffffffff166323b872dd868581518110612545577f4e487b7100000000000000000000000000000000000000000000000000000000600052603260045260246000fd5b602002602001015130856040518463ffffffff1660e01b815260040161256d9392919061305e565b602060405180830381600087803b15801561258757600080fd5b505af115801561259b573d6000803e3d6000fd5b505050506040513d601f19601f820116820180604052508101906125bf9190612cda565b5081600c60008282546125d2919061337a565b925050819055506126ea565b600960009054906101000a900473ffffffffffffffffffffffffffffffffffffffff1673ffffffffffffffffffffffffffffffffffffffff166323b872dd868581518110612655577f4e487b7100000000000000000000000000000000000000000000000000000000600052603260045260246000fd5b602002602001015130846040518463ffffffff1660e01b815260040161267d9392919061305e565b602060405180830381600087803b15801561269757600080fd5b505af11580156126ab573d6000803e3d6000fd5b505050506040513d601f19601f820116820180604052508101906126cf9190612cda565b5080600c60008282546126e2919061337a565b925050819055505b505080806126f790613508565b915050612424565b507fe3be3ff4c4b7c765f052cfa41e343b2e51709bdac88894c3a98e6dd96141ccb38260405161272f9190613111565b60405180910390a160019050919050565b6000600160009054906101000a900473ffffffffffffffffffffffffffffffffffffffff1673ffffffffffffffffffffffffffffffffffffffff163373ffffffffffffffffffffffffffffffffffffffff16146127d2576040517f08c379a00000000000000000000000000000000000000000000000000000000081526004016127c9906131ae565b60405180910390fd5b8160076000858152602001908152602001600020819055507f1beaf6aec16e45fb798b77276fc3d06258f22188d254a2ad32e700851df6aa3c838360405161281b92919061327f565b60405180910390a16001905092915050565b6000600860009054906101000a900473ffffffffffffffffffffffffffffffffffffffff16905090565b600081600001549050919050565b6001816000016000828254019250508190555050565b60008183612889919061337a565b905092915050565b6000818361289f919061345b565b905092915050565b600081836128b59190613401565b905092915050565b600081836128cb91906133d0565b905092915050565b6000600960009054906101000a900473ffffffffffffffffffffffffffffffffffffffff1673ffffffffffffffffffffffffffffffffffffffff166370a08231836040518263ffffffff1660e01b8152600401612930919061301a565b60206040518083038186803b15801561294857600080fd5b505afa15801561295c573d6000803e3d6000fd5b505050506040513d601f19601f820116820180604052508101906129809190612d2c565b9050919050565b6000600960009054906101000a900473ffffffffffffffffffffffffffffffffffffffff1673ffffffffffffffffffffffffffffffffffffffff1663dd62ed3e83306040518363ffffffff1660e01b81526004016129e6929190613035565b60206040518083038186803b1580156129fe57600080fd5b505afa158015612a12573d6000803e3d6000fd5b505050506040513d601f19601f82011682018060405250810190612a369190612d2c565b9050919050565b6040518060800160405280600073ffffffffffffffffffffffffffffffffffffffff1681526020016000815260200160008152602001600081525090565b604051806040016040528060008152602001600081525090565b6000612aa8612aa384613304565b6132df565b90508083825260208201905082856020860282011115612ac757600080fd5b60005b85811015612af75781612add8882612b01565b845260208401935060208301925050600181019050612aca565b5050509392505050565b600081359050612b108161370e565b92915050565b600082601f830112612b2757600080fd5b8135612b37848260208601612a95565b91505092915050565b600081359050612b4f81613725565b92915050565b600081519050612b6481613725565b92915050565b600081359050612b798161373c565b92915050565b600081519050612b8e8161373c565b92915050565b600060208284031215612ba657600080fd5b6000612bb484828501612b01565b91505092915050565b600080600080600060a08688031215612bd557600080fd5b6000612be388828901612b01565b9550506020612bf488828901612b01565b9450506040612c0588828901612b6a565b9350506060612c1688828901612b6a565b9250506080612c2788828901612b6a565b9150509295509295909350565b60008060408385031215612c4757600080fd5b6000612c5585828601612b01565b9250506020612c6685828601612b6a565b9150509250929050565b600060208284031215612c8257600080fd5b600082013567ffffffffffffffff811115612c9c57600080fd5b612ca884828501612b16565b91505092915050565b600060208284031215612cc357600080fd5b6000612cd184828501612b40565b91505092915050565b600060208284031215612cec57600080fd5b6000612cfa84828501612b55565b91505092915050565b600060208284031215612d1557600080fd5b6000612d2384828501612b6a565b91505092915050565b600060208284031215612d3e57600080fd5b6000612d4c84828501612b7f565b91505092915050565b60008060408385031215612d6857600080fd5b6000612d7685828601612b6a565b9250506020612d8785828601612b6a565b9150509250929050565b600080600060608486031215612da657600080fd5b6000612db486828701612b6a565b9350506020612dc586828701612b6a565b9250506040612dd686828701612b6a565b9150509250925092565b6000612dec8383612df8565b60208301905092915050565b612e018161348f565b82525050565b612e108161348f565b82525050565b6000612e2182613340565b612e2b8185613358565b9350612e3683613330565b8060005b83811015612e67578151612e4e8882612de0565b9750612e598361334b565b925050600181019050612e3a565b5085935050505092915050565b612e7d816134a1565b82525050565b6000612e90602083613369565b9150612e9b826135ef565b602082019050919050565b6000612eb3601b83613369565b9150612ebe82613618565b602082019050919050565b6000612ed6601283613369565b9150612ee182613641565b602082019050919050565b6000612ef9601783613369565b9150612f048261366a565b602082019050919050565b6000612f1c601583613369565b9150612f2782613693565b602082019050919050565b6000612f3f601883613369565b9150612f4a826136bc565b602082019050919050565b6000612f62601e83613369565b9150612f6d826136e5565b602082019050919050565b604082016000820151612f8e6000850182612ffc565b506020820151612fa16020850182612ffc565b50505050565b608082016000820151612fbd6000850182612df8565b506020820151612fd06020850182612ffc565b506040820151612fe36040850182612ffc565b506060820151612ff66060850182612ffc565b50505050565b613005816134cd565b82525050565b613014816134cd565b82525050565b600060208201905061302f6000830184612e07565b92915050565b600060408201905061304a6000830185612e07565b6130576020830184612e07565b9392505050565b60006060820190506130736000830186612e07565b6130806020830185612e07565b61308d604083018461300b565b949350505050565b600060a0820190506130aa6000830188612e07565b6130b76020830187612e07565b6130c4604083018661300b565b6130d1606083018561300b565b6130de608083018461300b565b9695505050505050565b60006040820190506130fd6000830185612e07565b61310a602083018461300b565b9392505050565b6000602082019050818103600083015261312b8184612e16565b905092915050565b60006020820190506131486000830184612e74565b92915050565b6000602082019050818103600083015261316781612e83565b9050919050565b6000602082019050818103600083015261318781612ea6565b9050919050565b600060208201905081810360008301526131a781612ec9565b9050919050565b600060208201905081810360008301526131c781612eec565b9050919050565b600060208201905081810360008301526131e781612f0f565b9050919050565b6000602082019050818103600083015261320781612f32565b9050919050565b6000602082019050818103600083015261322781612f55565b9050919050565b60006040820190506132436000830184612f78565b92915050565b600060808201905061325e6000830184612fa7565b92915050565b6000602082019050613279600083018461300b565b92915050565b6000604082019050613294600083018561300b565b6132a1602083018461300b565b9392505050565b60006060820190506132bd600083018661300b565b6132ca602083018561300b565b6132d7604083018461300b565b949350505050565b60006132e96132fa565b90506132f582826134d7565b919050565b6000604051905090565b600067ffffffffffffffff82111561331f5761331e6135af565b5b602082029050602081019050919050565b6000819050602082019050919050565b600081519050919050565b6000602082019050919050565b600082825260208201905092915050565b600082825260208201905092915050565b6000613385826134cd565b9150613390836134cd565b9250827fffffffffffffffffffffffffffffffffffffffffffffffffffffffffffffffff038211156133c5576133c4613551565b5b828201905092915050565b60006133db826134cd565b91506133e6836134cd565b9250826133f6576133f5613580565b5b828204905092915050565b600061340c826134cd565b9150613417836134cd565b9250817fffffffffffffffffffffffffffffffffffffffffffffffffffffffffffffffff04831182151516156134505761344f613551565b5b828202905092915050565b6000613466826134cd565b9150613471836134cd565b92508282101561348457613483613551565b5b828203905092915050565b600061349a826134ad565b9050919050565b60008115159050919050565b600073ffffffffffffffffffffffffffffffffffffffff82169050919050565b6000819050919050565b6134e0826135de565b810181811067ffffffffffffffff821117156134ff576134fe6135af565b5b80604052505050565b6000613513826134cd565b91507fffffffffffffffffffffffffffffffffffffffffffffffffffffffffffffffff82141561354657613545613551565b5b600182019050919050565b7f4e487b7100000000000000000000000000000000000000000000000000000000600052601160045260246000fd5b7f4e487b7100000000000000000000000000000000000000000000000000000000600052601260045260246000fd5b7f4e487b7100000000000000000000000000000000000000000000000000000000600052604160045260246000fd5b6000601f19601f8301169050919050565b7f5468652073616665576974686472617720616d6f756e742069732077726f6e67600082015250565b7f546865206d61737465722063616e206e6f742070757263686173650000000000600082015250565b7f546865206c6576656c2069732077726f6e670000000000000000000000000000600082015250565b7f5468652063616c6c6572206973206e6f74206f776e6572000000000000000000600082015250565b7f54686520726566657272616c2073687574646f776e0000000000000000000000600082015250565b7f5468652072656665726572206973206e6f742065786973740000000000000000600082015250565b7f54686520627579657220616464726573732063616e206e6f7420626520300000600082015250565b6137178161348f565b811461372257600080fd5b50565b61372e816134a1565b811461373957600080fd5b50565b613745816134cd565b811461375057600080fd5b5056fea26469706673582212201388d6fb5f20bf8f49eebdf7c1c03f642ac590f7c88b3f0d32fa84c776966e8364736f6c63430008010033",
  "linkReferences": {},
  "deployedLinkReferences": {}
}