{
  "_format": "hh-sol-artifact-1",
  "contractName": "ReferralV3",
  "sourceName": "contracts/ReferralV3.sol",
  "abi": [
    {
      "inputs": [],
      "stateMutability": "nonpayable",
      "type": "constructor"
    },
    {
      "anonymous": false,
      "inputs": [
        {
          "indexed": false,
          "internalType": "address",
          "name": "msgsender",
          "type": "address"
        },
        {
          "indexed": false,
          "internalType": "uint256",
          "name": "nftlevel",
          "type": "uint256"
        }
      ],
      "name": "e_Purchase",
      "type": "event"
    },
    {
      "anonymous": false,
      "inputs": [
        {
          "indexed": false,
          "internalType": "address",
          "name": "buyer",
          "type": "address"
        }
      ],
      "name": "e_approvedOfAddress",
      "type": "event"
    },
    {
      "anonymous": false,
      "inputs": [
        {
          "indexed": false,
          "internalType": "address",
          "name": "buyer",
          "type": "address"
        }
      ],
      "name": "e_balanceOfAddress",
      "type": "event"
    },
    {
      "anonymous": false,
      "inputs": [
        {
          "indexed": false,
          "internalType": "address[]",
          "name": "buyer",
          "type": "address[]"
        }
      ],
      "name": "e_cheapWithdrawFrom",
      "type": "event"
    },
    {
      "anonymous": false,
      "inputs": [
        {
          "indexed": false,
          "internalType": "uint256",
          "name": "amount",
          "type": "uint256"
        }
      ],
      "name": "e_safeWithdraw",
      "type": "event"
    },
    {
      "anonymous": false,
      "inputs": [
        {
          "indexed": false,
          "internalType": "uint256",
          "name": "level",
          "type": "uint256"
        },
        {
          "indexed": false,
          "internalType": "uint256",
          "name": "percent",
          "type": "uint256"
        },
        {
          "indexed": false,
          "internalType": "uint256",
          "name": "saleLimit",
          "type": "uint256"
        }
      ],
      "name": "e_setLevelData",
      "type": "event"
    },
    {
      "anonymous": false,
      "inputs": [
        {
          "indexed": false,
          "internalType": "address",
          "name": "master",
          "type": "address"
        }
      ],
      "name": "e_setMaster",
      "type": "event"
    },
    {
      "anonymous": false,
      "inputs": [
        {
          "indexed": false,
          "internalType": "uint256",
          "name": "maxdepth",
          "type": "uint256"
        }
      ],
      "name": "e_setMaxDepth",
      "type": "event"
    },
    {
      "anonymous": false,
      "inputs": [
        {
          "indexed": false,
          "internalType": "uint256",
          "name": "level",
          "type": "uint256"
        }
      ],
      "name": "e_setMaxLevel",
      "type": "event"
    },
    {
      "anonymous": false,
      "inputs": [
        {
          "indexed": false,
          "internalType": "address",
          "name": "nft",
          "type": "address"
        }
      ],
      "name": "e_setNFTAddress",
      "type": "event"
    },
    {
      "anonymous": false,
      "inputs": [
        {
          "indexed": false,
          "internalType": "address",
          "name": "_owner",
          "type": "address"
        }
      ],
      "name": "e_setOwner",
      "type": "event"
    },
    {
      "anonymous": false,
      "inputs": [
        {
          "indexed": false,
          "internalType": "address",
          "name": "msgsender",
          "type": "address"
        },
        {
          "indexed": false,
          "internalType": "address",
          "name": "parent",
          "type": "address"
        }
      ],
      "name": "e_setParent",
      "type": "event"
    },
    {
      "anonymous": false,
      "inputs": [
        {
          "indexed": false,
          "internalType": "address",
          "name": "token",
          "type": "address"
        },
        {
          "indexed": false,
          "internalType": "uint256",
          "name": "fee",
          "type": "uint256"
        }
      ],
      "name": "e_setPaytype",
      "type": "event"
    },
    {
      "anonymous": false,
      "inputs": [
        {
          "indexed": false,
          "internalType": "uint256",
          "name": "nftlevel",
          "type": "uint256"
        },
        {
          "indexed": false,
          "internalType": "uint256",
          "name": "price",
          "type": "uint256"
        }
      ],
      "name": "e_setPrice",
      "type": "event"
    },
    {
      "anonymous": false,
      "inputs": [
        {
          "indexed": false,
          "internalType": "bool",
          "name": "should",
          "type": "bool"
        }
      ],
      "name": "e_setShutdown",
      "type": "event"
    },
    {
      "anonymous": false,
      "inputs": [
        {
          "indexed": false,
          "internalType": "address",
          "name": "user",
          "type": "address"
        },
        {
          "indexed": false,
          "internalType": "address",
          "name": "parent",
          "type": "address"
        },
        {
          "indexed": false,
          "internalType": "uint256",
          "name": "level",
          "type": "uint256"
        },
        {
          "indexed": false,
          "internalType": "uint256",
          "name": "sale",
          "type": "uint256"
        },
        {
          "indexed": false,
          "internalType": "uint256",
          "name": "share",
          "type": "uint256"
        }
      ],
      "name": "e_setUserData",
      "type": "event"
    },
    {
      "anonymous": false,
      "inputs": [],
      "name": "e_shareWithdraw",
      "type": "event"
    },
    {
      "anonymous": false,
      "inputs": [
        {
          "indexed": false,
          "internalType": "address",
          "name": "from",
          "type": "address"
        }
      ],
      "name": "e_withdrawFrom",
      "type": "event"
    },
    {
      "inputs": [
        {
          "internalType": "uint256",
          "name": "nftlevel",
          "type": "uint256"
        }
      ],
      "name": "Purchase",
      "outputs": [
        {
          "internalType": "bool",
          "name": "",
          "type": "bool"
        }
      ],
      "stateMutability": "nonpayable",
      "type": "function"
    },
    {
      "inputs": [
        {
          "internalType": "address[]",
          "name": "buyer",
          "type": "address[]"
        }
      ],
      "name": "cheapWithdrawFrom",
      "outputs": [
        {
          "internalType": "bool",
          "name": "",
          "type": "bool"
        }
      ],
      "stateMutability": "nonpayable",
      "type": "function"
    },
    {
      "inputs": [],
      "name": "fetchAllBuyer",
      "outputs": [
        {
          "internalType": "address[]",
          "name": "",
          "type": "address[]"
        }
      ],
      "stateMutability": "view",
      "type": "function"
    },
    {
      "inputs": [],
      "name": "fetchAllBuyerLength",
      "outputs": [
        {
          "internalType": "uint256",
          "name": "",
          "type": "uint256"
        }
      ],
      "stateMutability": "view",
      "type": "function"
    },
    {
      "inputs": [
        {
          "internalType": "uint256",
          "name": "index",
          "type": "uint256"
        }
      ],
      "name": "fetchBuyerAtIndex",
      "outputs": [
        {
          "internalType": "address",
          "name": "",
          "type": "address"
        }
      ],
      "stateMutability": "view",
      "type": "function"
    },
    {
      "inputs": [],
      "name": "fetchFeePercent",
      "outputs": [
        {
          "internalType": "uint256",
          "name": "",
          "type": "uint256"
        }
      ],
      "stateMutability": "view",
      "type": "function"
    },
    {
      "inputs": [
        {
          "internalType": "uint256",
          "name": "level",
          "type": "uint256"
        }
      ],
      "name": "fetchLevelData",
      "outputs": [
        {
          "components": [
            {
              "internalType": "uint256",
              "name": "Percent",
              "type": "uint256"
            },
            {
              "internalType": "uint256",
              "name": "saleLimit",
              "type": "uint256"
            }
          ],
          "internalType": "struct ReferralV3.levelData",
          "name": "",
          "type": "tuple"
        }
      ],
      "stateMutability": "view",
      "type": "function"
    },
    {
      "inputs": [],
      "name": "fetchMasterAddress",
      "outputs": [
        {
          "internalType": "address",
          "name": "",
          "type": "address"
        }
      ],
      "stateMutability": "view",
      "type": "function"
    },
    {
      "inputs": [],
      "name": "fetchMaxDepth",
      "outputs": [
        {
          "internalType": "uint256",
          "name": "",
          "type": "uint256"
        }
      ],
      "stateMutability": "view",
      "type": "function"
    },
    {
      "inputs": [],
      "name": "fetchMaxLevel",
      "outputs": [
        {
          "internalType": "uint256",
          "name": "",
          "type": "uint256"
        }
      ],
      "stateMutability": "view",
      "type": "function"
    },
    {
      "inputs": [],
      "name": "fetchNFTAddress",
      "outputs": [
        {
          "internalType": "address",
          "name": "",
          "type": "address"
        }
      ],
      "stateMutability": "view",
      "type": "function"
    },
    {
      "inputs": [
        {
          "internalType": "uint256",
          "name": "id",
          "type": "uint256"
        }
      ],
      "name": "fetchNFTLevel",
      "outputs": [
        {
          "internalType": "uint256",
          "name": "",
          "type": "uint256"
        }
      ],
      "stateMutability": "view",
      "type": "function"
    },
    {
      "inputs": [],
      "name": "fetchOwner",
      "outputs": [
        {
          "internalType": "address",
          "name": "",
          "type": "address"
        }
      ],
      "stateMutability": "view",
      "type": "function"
    },
    {
      "inputs": [],
      "name": "fetchPaytype",
      "outputs": [
        {
          "internalType": "address",
          "name": "",
          "type": "address"
        }
      ],
      "stateMutability": "view",
      "type": "function"
    },
    {
      "inputs": [
        {
          "internalType": "uint256",
          "name": "nftlevel",
          "type": "uint256"
        }
      ],
      "name": "fetchPrice",
      "outputs": [
        {
          "internalType": "uint256",
          "name": "",
          "type": "uint256"
        }
      ],
      "stateMutability": "view",
      "type": "function"
    },
    {
      "inputs": [],
      "name": "fetchSafeWithdrawAmount",
      "outputs": [
        {
          "internalType": "uint256",
          "name": "",
          "type": "uint256"
        }
      ],
      "stateMutability": "view",
      "type": "function"
    },
    {
      "inputs": [],
      "name": "fetchShutdown",
      "outputs": [
        {
          "internalType": "bool",
          "name": "",
          "type": "bool"
        }
      ],
      "stateMutability": "view",
      "type": "function"
    },
    {
      "inputs": [
        {
          "internalType": "address",
          "name": "user",
          "type": "address"
        }
      ],
      "name": "fetchUserData",
      "outputs": [
        {
          "components": [
            {
              "internalType": "address",
              "name": "Parent",
              "type": "address"
            },
            {
              "internalType": "uint256",
              "name": "Level",
              "type": "uint256"
            },
            {
              "internalType": "uint256",
              "name": "Sale",
              "type": "uint256"
            },
            {
              "internalType": "uint256",
              "name": "Share",
              "type": "uint256"
            }
          ],
          "internalType": "struct ReferralV3.userData",
          "name": "",
          "type": "tuple"
        }
      ],
      "stateMutability": "view",
      "type": "function"
    },
    {
      "inputs": [
        {
          "internalType": "uint256",
          "name": "amount",
          "type": "uint256"
        }
      ],
      "name": "safeWithdraw",
      "outputs": [
        {
          "internalType": "bool",
          "name": "",
          "type": "bool"
        }
      ],
      "stateMutability": "nonpayable",
      "type": "function"
    },
    {
      "inputs": [
        {
          "internalType": "uint256",
          "name": "level",
          "type": "uint256"
        },
        {
          "internalType": "uint256",
          "name": "percent",
          "type": "uint256"
        },
        {
          "internalType": "uint256",
          "name": "saleLimit",
          "type": "uint256"
        }
      ],
      "name": "setLevelData",
      "outputs": [
        {
          "internalType": "bool",
          "name": "",
          "type": "bool"
        }
      ],
      "stateMutability": "nonpayable",
      "type": "function"
    },
    {
      "inputs": [
        {
          "internalType": "address",
          "name": "master",
          "type": "address"
        }
      ],
      "name": "setMaster",
      "outputs": [
        {
          "internalType": "bool",
          "name": "",
          "type": "bool"
        }
      ],
      "stateMutability": "nonpayable",
      "type": "function"
    },
    {
      "inputs": [
        {
          "internalType": "uint256",
          "name": "maxdepth",
          "type": "uint256"
        }
      ],
      "name": "setMaxDepth",
      "outputs": [
        {
          "internalType": "bool",
          "name": "",
          "type": "bool"
        }
      ],
      "stateMutability": "nonpayable",
      "type": "function"
    },
    {
      "inputs": [
        {
          "internalType": "uint256",
          "name": "level",
          "type": "uint256"
        }
      ],
      "name": "setMaxLevel",
      "outputs": [
        {
          "internalType": "bool",
          "name": "",
          "type": "bool"
        }
      ],
      "stateMutability": "nonpayable",
      "type": "function"
    },
    {
      "inputs": [
        {
          "internalType": "address",
          "name": "nft",
          "type": "address"
        }
      ],
      "name": "setNFTAddress",
      "outputs": [
        {
          "internalType": "bool",
          "name": "",
          "type": "bool"
        }
      ],
      "stateMutability": "nonpayable",
      "type": "function"
    },
    {
      "inputs": [
        {
          "internalType": "address",
          "name": "_owner",
          "type": "address"
        }
      ],
      "name": "setOwner",
      "outputs": [
        {
          "internalType": "bool",
          "name": "",
          "type": "bool"
        }
      ],
      "stateMutability": "nonpayable",
      "type": "function"
    },
    {
      "inputs": [
        {
          "internalType": "address",
          "name": "parent",
          "type": "address"
        }
      ],
      "name": "setParent",
      "outputs": [
        {
          "internalType": "bool",
          "name": "",
          "type": "bool"
        }
      ],
      "stateMutability": "nonpayable",
      "type": "function"
    },
    {
      "inputs": [
        {
          "internalType": "address",
          "name": "token",
          "type": "address"
        },
        {
          "internalType": "uint256",
          "name": "fee",
          "type": "uint256"
        }
      ],
      "name": "setPaytype",
      "outputs": [
        {
          "internalType": "bool",
          "name": "",
          "type": "bool"
        }
      ],
      "stateMutability": "nonpayable",
      "type": "function"
    },
    {
      "inputs": [
        {
          "internalType": "uint256",
          "name": "nftlevel",
          "type": "uint256"
        },
        {
          "internalType": "uint256",
          "name": "price",
          "type": "uint256"
        }
      ],
      "name": "setPrice",
      "outputs": [
        {
          "internalType": "bool",
          "name": "",
          "type": "bool"
        }
      ],
      "stateMutability": "nonpayable",
      "type": "function"
    },
    {
      "inputs": [
        {
          "internalType": "bool",
          "name": "should",
          "type": "bool"
        }
      ],
      "name": "setShutdown",
      "outputs": [
        {
          "internalType": "bool",
          "name": "",
          "type": "bool"
        }
      ],
      "stateMutability": "nonpayable",
      "type": "function"
    },
    {
      "inputs": [
        {
          "internalType": "address",
          "name": "user",
          "type": "address"
        },
        {
          "internalType": "address",
          "name": "parent",
          "type": "address"
        },
        {
          "internalType": "uint256",
          "name": "level",
          "type": "uint256"
        },
        {
          "internalType": "uint256",
          "name": "sale",
          "type": "uint256"
        },
        {
          "internalType": "uint256",
          "name": "share",
          "type": "uint256"
        }
      ],
      "name": "setUserData",
      "outputs": [
        {
          "internalType": "bool",
          "name": "",
          "type": "bool"
        }
      ],
      "stateMutability": "nonpayable",
      "type": "function"
    },
    {
      "inputs": [],
      "name": "shareWithdraw",
      "outputs": [
        {
          "internalType": "bool",
          "name": "",
          "type": "bool"
        }
      ],
      "stateMutability": "nonpayable",
      "type": "function"
    },
    {
      "inputs": [
        {
          "internalType": "address",
          "name": "from",
          "type": "address"
        }
      ],
      "name": "withdrawFrom",
      "outputs": [
        {
          "internalType": "bool",
          "name": "",
          "type": "bool"
        }
      ],
      "stateMutability": "nonpayable",
      "type": "function"
    }
  ],
  "bytecode": "0x60806040523480156200001157600080fd5b50620000226200002860201b60201c565b6200006b565b33600160006101000a81548173ffffffffffffffffffffffffffffffffffffffff021916908373ffffffffffffffffffffffffffffffffffffffff160217905550565b614073806200007b6000396000f3fe608060405234801561001057600080fd5b50600436106101f05760003560e01c80639ed126771161010f578063d963b266116100a2578063f01a5cd811610071578063f01a5cd814610681578063f714b4661461069f578063f7d97577146106cf578063fb473dcf146106ff576101f0565b8063d963b266146105e5578063de1b048614610603578063e2aeb2ae14610633578063efbb7adc14610663576101f0565b8063c48510e4116100de578063c48510e414610549578063c6e994d714610579578063cc17419114610597578063d07de57d146105c7576101f0565b80639ed126771461049b578063a4377b9f146104cb578063b0fd035b146104e9578063c1819eb614610519576101f0565b80633079f1be1161018757806369d037381161015657806369d03738146103ed578063725e91301461041d57806373179fee1461043b5780638b6863fb1461046b576101f0565b80633079f1be1461033f578063344f1ba51461036f578063400af3401461039f578063461cc813146103bd576101f0565b80631e907827116101c35780631e907827146102a357806320ced446146102c157806326fae0d3146102f15780632f8407c214610321576101f0565b806313af4035146101f55780631499c592146102255780631559f7821461025557806316a68ef814610285575b600080fd5b61020f600480360381019061020a919061325c565b61071d565b60405161021c9190613887565b60405180910390f35b61023f600480360381019061023a919061325c565b610830565b60405161024c9190613887565b60405180910390f35b61026f600480360381019061026a91906133cb565b610b9c565b60405161027c9190613a38565b60405180910390f35b61028d610bb9565b60405161029a9190613a38565b60405180910390f35b6102ab610bc3565b6040516102b89190613a38565b60405180910390f35b6102db60048036038101906102d6919061325c565b610bcd565b6040516102e89190613a1d565b60405180910390f35b61030b6004803603810190610306919061325c565b610c9a565b6040516103189190613887565b60405180910390f35b610329610ed9565b604051610336919061376e565b60405180910390f35b610359600480360381019061035491906132fc565b610f03565b6040516103669190613887565b60405180910390f35b610389600480360381019061038491906133cb565b611020565b6040516103969190613887565b60405180910390f35b6103a76110f9565b6040516103b49190613a38565b60405180910390f35b6103d760048036038101906103d291906133cb565b611106565b6040516103e4919061376e565b60405180910390f35b6104076004803603810190610402919061325c565b611174565b6040516104149190613887565b60405180910390f35b610425611287565b6040516104329190613887565b60405180910390f35b61045560048036038101906104509190613459565b61129e565b6040516104629190613887565b60405180910390f35b610485600480360381019061048091906133cb565b6113a0565b6040516104929190613887565b60405180910390f35b6104b560048036038101906104b09190613285565b611479565b6040516104c29190613887565b60405180910390f35b6104d36115f9565b6040516104e09190613865565b60405180910390f35b61050360048036038101906104fe91906133cb565b611687565b6040516105109190613887565b60405180910390f35b610533600480360381019061052e9190613379565b611926565b6040516105409190613887565b60405180910390f35b610563600480360381019061055e91906133cb565b611a12565b6040516105709190613a38565b60405180910390f35b610581611a2f565b60405161058e9190613887565b60405180910390f35b6105b160048036038101906105ac91906133cb565b611c3b565b6040516105be9190613a02565b60405180910390f35b6105cf611c7c565b6040516105dc919061376e565b60405180910390f35b6105ed611ca6565b6040516105fa919061376e565b60405180910390f35b61061d6004803603810190610618919061325c565b611cd0565b60405161062a9190613887565b60405180910390f35b61064d600480360381019061064891906133cb565b612049565b60405161065a9190613887565b60405180910390f35b61066b6129cb565b6040516106789190613a38565b60405180910390f35b6106896129d5565b6040516106969190613a38565b60405180910390f35b6106b960048036038101906106b49190613338565b6129df565b6040516106c69190613887565b60405180910390f35b6106e960048036038101906106e4919061341d565b612e08565b6040516106f69190613887565b60405180910390f35b610707612ef5565b604051610714919061376e565b60405180910390f35b6000600160009054906101000a900473ffffffffffffffffffffffffffffffffffffffff1673ffffffffffffffffffffffffffffffffffffffff163373ffffffffffffffffffffffffffffffffffffffff16146107af576040517f08c379a00000000000000000000000000000000000000000000000000000000081526004016107a6906139a2565b60405180910390fd5b81600160006101000a81548173ffffffffffffffffffffffffffffffffffffffff021916908373ffffffffffffffffffffffffffffffffffffffff1602179055507ffdd8f913d76d87c69733297d206591d108f08c09451875bad16fa5282395c2988260405161081f919061376e565b60405180910390a160019050919050565b6000600160159054906101000a900460ff1615610882576040517f08c379a0000000000000000000000000000000000000000000000000000000008152600401610879906139c2565b60405180910390fd5b600860009054906101000a900473ffffffffffffffffffffffffffffffffffffffff1673ffffffffffffffffffffffffffffffffffffffff163373ffffffffffffffffffffffffffffffffffffffff161415610913576040517f08c379a000000000000000000000000000000000000000000000000000000000815260040161090a906138e2565b60405180910390fd5b3373ffffffffffffffffffffffffffffffffffffffff168273ffffffffffffffffffffffffffffffffffffffff161415610982576040517f08c379a000000000000000000000000000000000000000000000000000000000815260040161097990613902565b60405180910390fd5b600073ffffffffffffffffffffffffffffffffffffffff16600460003373ffffffffffffffffffffffffffffffffffffffff1673ffffffffffffffffffffffffffffffffffffffff16815260200190815260200160002060000160009054906101000a900473ffffffffffffffffffffffffffffffffffffffff1673ffffffffffffffffffffffffffffffffffffffff1614610a53576040517f08c379a0000000000000000000000000000000000000000000000000000000008152600401610a4a90613962565b60405180910390fd5b6000600460008473ffffffffffffffffffffffffffffffffffffffff1673ffffffffffffffffffffffffffffffffffffffff168152602001908152602001600020600101541415610ad9576040517f08c379a0000000000000000000000000000000000000000000000000000000008152600401610ad090613942565b60405180910390fd5b81600460003373ffffffffffffffffffffffffffffffffffffffff1673ffffffffffffffffffffffffffffffffffffffff16815260200190815260200160002060000160006101000a81548173ffffffffffffffffffffffffffffffffffffffff021916908373ffffffffffffffffffffffffffffffffffffffff1602179055507fc584c51c88f3d53bbcaba55fb1c4a22ff010cf16b3362dd895519628251e8ae83383604051610b8b929190613789565b60405180910390a160019050919050565b600060076000838152602001908152602001600020549050919050565b6000600c54905090565b6000600a54905090565b610bd5613105565b600460008373ffffffffffffffffffffffffffffffffffffffff1673ffffffffffffffffffffffffffffffffffffffff1681526020019081526020016000206040518060800160405290816000820160009054906101000a900473ffffffffffffffffffffffffffffffffffffffff1673ffffffffffffffffffffffffffffffffffffffff1673ffffffffffffffffffffffffffffffffffffffff16815260200160018201548152602001600282015481526020016003820154815250509050919050565b6000600160009054906101000a900473ffffffffffffffffffffffffffffffffffffffff1673ffffffffffffffffffffffffffffffffffffffff163373ffffffffffffffffffffffffffffffffffffffff1614610d2c576040517f08c379a0000000000000000000000000000000000000000000000000000000008152600401610d23906139a2565b60405180910390fd5b600073ffffffffffffffffffffffffffffffffffffffff16600860009054906101000a900473ffffffffffffffffffffffffffffffffffffffff1673ffffffffffffffffffffffffffffffffffffffff1614610ded57600160046000600860009054906101000a900473ffffffffffffffffffffffffffffffffffffffff1673ffffffffffffffffffffffffffffffffffffffff1673ffffffffffffffffffffffffffffffffffffffff168152602001908152602001600020600101819055505b81600860006101000a81548173ffffffffffffffffffffffffffffffffffffffff021916908373ffffffffffffffffffffffffffffffffffffffff160217905550600c5460046000600860009054906101000a900473ffffffffffffffffffffffffffffffffffffffff1673ffffffffffffffffffffffffffffffffffffffff1673ffffffffffffffffffffffffffffffffffffffff168152602001908152602001600020600101819055507fb6b84506c65b27dd82d3bbd07c1aa1835f278d78b76836eb187652c5fbcffa5f82604051610ec8919061376e565b60405180910390a160019050919050565b6000600160009054906101000a900473ffffffffffffffffffffffffffffffffffffffff16905090565b6000600160009054906101000a900473ffffffffffffffffffffffffffffffffffffffff1673ffffffffffffffffffffffffffffffffffffffff163373ffffffffffffffffffffffffffffffffffffffff1614610f95576040517f08c379a0000000000000000000000000000000000000000000000000000000008152600401610f8c906139a2565b60405180910390fd5b82600960006101000a81548173ffffffffffffffffffffffffffffffffffffffff021916908373ffffffffffffffffffffffffffffffffffffffff16021790555081600a819055507fd0ec83f5725c03283b28fc0b86d6bc76fdcaffe4f9c756a1c4976ddad588a042838360405161100e92919061383c565b60405180910390a16001905092915050565b6000600160009054906101000a900473ffffffffffffffffffffffffffffffffffffffff1673ffffffffffffffffffffffffffffffffffffffff163373ffffffffffffffffffffffffffffffffffffffff16146110b2576040517f08c379a00000000000000000000000000000000000000000000000000000000081526004016110a9906139a2565b60405180910390fd5b81600c819055507fc61df3e970a71753235850dd195e541bada36511a1fe91042b84ad1096cf225a826040516110e89190613a38565b60405180910390a160019050919050565b6000600680549050905090565b600060068281548110611142577f4e487b7100000000000000000000000000000000000000000000000000000000600052603260045260246000fd5b9060005260206000200160009054906101000a900473ffffffffffffffffffffffffffffffffffffffff169050919050565b6000600160009054906101000a900473ffffffffffffffffffffffffffffffffffffffff1673ffffffffffffffffffffffffffffffffffffffff163373ffffffffffffffffffffffffffffffffffffffff1614611206576040517f08c379a00000000000000000000000000000000000000000000000000000000081526004016111fd906139a2565b60405180910390fd5b81600b60006101000a81548173ffffffffffffffffffffffffffffffffffffffff021916908373ffffffffffffffffffffffffffffffffffffffff1602179055507fa284800025ed1b3181b996e173d7c5fc02752b2eac143d8d23dcc7deecae9ee982604051611276919061376e565b60405180910390a160019050919050565b6000600160159054906101000a900460ff16905090565b6000600160009054906101000a900473ffffffffffffffffffffffffffffffffffffffff1673ffffffffffffffffffffffffffffffffffffffff163373ffffffffffffffffffffffffffffffffffffffff1614611330576040517f08c379a0000000000000000000000000000000000000000000000000000000008152600401611327906139a2565b60405180910390fd5b60006002600086815260200190815260200160002090508381600001819055508281600101819055507ffb697c2cca069660e3c569eeda13f1db3b3dd1ba3cb0674c08d434cdef4e1a0f85858560405161138c93929190613a7c565b60405180910390a160019150509392505050565b6000600160009054906101000a900473ffffffffffffffffffffffffffffffffffffffff1673ffffffffffffffffffffffffffffffffffffffff163373ffffffffffffffffffffffffffffffffffffffff1614611432576040517f08c379a0000000000000000000000000000000000000000000000000000000008152600401611429906139a2565b60405180910390fd5b81600d819055507f33b65923a0cd39d8b918f2d856f7cd3746d95c908db4064bef5587b101f8729e826040516114689190613a38565b60405180910390a160019050919050565b6000600160009054906101000a900473ffffffffffffffffffffffffffffffffffffffff1673ffffffffffffffffffffffffffffffffffffffff163373ffffffffffffffffffffffffffffffffffffffff161461150b576040517f08c379a0000000000000000000000000000000000000000000000000000000008152600401611502906139a2565b60405180910390fd5b6000600460008873ffffffffffffffffffffffffffffffffffffffff1673ffffffffffffffffffffffffffffffffffffffff1681526020019081526020016000209050858160000160006101000a81548173ffffffffffffffffffffffffffffffffffffffff021916908373ffffffffffffffffffffffffffffffffffffffff1602179055508481600101819055508381600201819055508281600301819055507f2c1d4f56aea402ae7839630ce023cab834adbfa4081a8a337257da9c97206bed87878787876040516115e39594939291906137e9565b60405180910390a1600191505095945050505050565b6060600680548060200260200160405190810160405280929190818152602001828054801561167d57602002820191906000526020600020905b8160009054906101000a900473ffffffffffffffffffffffffffffffffffffffff1673ffffffffffffffffffffffffffffffffffffffff1681526020019060010190808311611633575b5050505050905090565b6000600160009054906101000a900473ffffffffffffffffffffffffffffffffffffffff1673ffffffffffffffffffffffffffffffffffffffff163373ffffffffffffffffffffffffffffffffffffffff1614611719576040517f08c379a0000000000000000000000000000000000000000000000000000000008152600401611710906139a2565b60405180910390fd5b81600960009054906101000a900473ffffffffffffffffffffffffffffffffffffffff1673ffffffffffffffffffffffffffffffffffffffff166370a08231306040518263ffffffff1660e01b8152600401611775919061376e565b60206040518083038186803b15801561178d57600080fd5b505afa1580156117a1573d6000803e3d6000fd5b505050506040513d601f19601f820116820180604052508101906117c591906133f4565b1015611806576040517f08c379a00000000000000000000000000000000000000000000000000000000081526004016117fd906138c2565b60405180910390fd5b600960009054906101000a900473ffffffffffffffffffffffffffffffffffffffff1673ffffffffffffffffffffffffffffffffffffffff1663a9059cbb33846040518363ffffffff1660e01b815260040161186392919061383c565b602060405180830381600087803b15801561187d57600080fd5b505af1158015611891573d6000803e3d6000fd5b505050506040513d601f19601f820116820180604052508101906118b591906133a2565b50600e5482116118dd5781600e60008282546118d19190613c2f565b925050819055506118e6565b6000600e819055505b7ff30620ed766039cf960c3d593cbf85cd6f72229d05f93662c8b2433dd73cce8d826040516119159190613a38565b60405180910390a160019050919050565b6000600160009054906101000a900473ffffffffffffffffffffffffffffffffffffffff1673ffffffffffffffffffffffffffffffffffffffff163373ffffffffffffffffffffffffffffffffffffffff16146119b8576040517f08c379a00000000000000000000000000000000000000000000000000000000081526004016119af906139a2565b60405180910390fd5b81600160156101000a81548160ff0219169083151502179055507f6f3d78089a010173684596de08a62db9db6c57cd125d4a57afd37e7e0a206ea782604051611a019190613887565b60405180910390a160019050919050565b600060036000838152602001908152602001600020549050919050565b6000600160159054906101000a900460ff1615611a81576040517f08c379a0000000000000000000000000000000000000000000000000000000008152600401611a78906139c2565b60405180910390fd5b600160149054906101000a900460ff1615611ad1576040517f08c379a0000000000000000000000000000000000000000000000000000000008152600401611ac8906138a2565b60405180910390fd5b60018060146101000a81548160ff0219169083151502179055506000600460003373ffffffffffffffffffffffffffffffffffffffff1673ffffffffffffffffffffffffffffffffffffffff1681526020019081526020016000209050600960009054906101000a900473ffffffffffffffffffffffffffffffffffffffff1673ffffffffffffffffffffffffffffffffffffffff1663a9059cbb3383600301546040518363ffffffff1660e01b8152600401611b8f92919061383c565b602060405180830381600087803b158015611ba957600080fd5b505af1158015611bbd573d6000803e3d6000fd5b505050506040513d601f19601f82011682018060405250810190611be191906133a2565b50600081600301819055507fb924346509e802f5688589a966c78583059c9fea4f5f29de703fe6d269b95b2360405160405180910390a160019150506000600160146101000a81548160ff02191690831515021790555090565b611c43613143565b60026000838152602001908152602001600020604051806040016040529081600082015481526020016001820154815250509050919050565b6000600b60009054906101000a900473ffffffffffffffffffffffffffffffffffffffff16905090565b6000600960009054906101000a900473ffffffffffffffffffffffffffffffffffffffff16905090565b6000600160009054906101000a900473ffffffffffffffffffffffffffffffffffffffff1673ffffffffffffffffffffffffffffffffffffffff163373ffffffffffffffffffffffffffffffffffffffff1614611d62576040517f08c379a0000000000000000000000000000000000000000000000000000000008152600401611d59906139a2565b60405180910390fd5b600073ffffffffffffffffffffffffffffffffffffffff168273ffffffffffffffffffffffffffffffffffffffff161415611dd2576040517f08c379a0000000000000000000000000000000000000000000000000000000008152600401611dc9906139e2565b60405180910390fd5b6000611ddd83612f1f565b90506000611dea84612fd3565b9050808211611eff57600960009054906101000a900473ffffffffffffffffffffffffffffffffffffffff1673ffffffffffffffffffffffffffffffffffffffff166323b872dd8530856040518463ffffffff1660e01b8152600401611e52939291906137b2565b602060405180830381600087803b158015611e6c57600080fd5b505af1158015611e80573d6000803e3d6000fd5b505050506040513d601f19601f82011682018060405250810190611ea491906133a2565b50611ee26103e8611ed4611ec5600a546103e861308990919063ffffffff16565b8561309f90919063ffffffff16565b6130b590919063ffffffff16565b600e6000828254611ef39190613b4e565b92505081905550612007565b600960009054906101000a900473ffffffffffffffffffffffffffffffffffffffff1673ffffffffffffffffffffffffffffffffffffffff166323b872dd8530846040518463ffffffff1660e01b8152600401611f5e939291906137b2565b602060405180830381600087803b158015611f7857600080fd5b505af1158015611f8c573d6000803e3d6000fd5b505050506040513d601f19601f82011682018060405250810190611fb091906133a2565b50611fee6103e8611fe0611fd1600a546103e861308990919063ffffffff16565b8461309f90919063ffffffff16565b6130b590919063ffffffff16565b600e6000828254611fff9190613b4e565b925050819055505b7fdab6b41c033365ceeaef7fa89bf33ee2f4bb51221b4a6db9596dbf5794f3efdc84604051612036919061376e565b60405180910390a1600192505050919050565b6000600160159054906101000a900460ff161561209b576040517f08c379a0000000000000000000000000000000000000000000000000000000008152600401612092906139c2565b60405180910390fd5b600160149054906101000a900460ff16156120eb576040517f08c379a00000000000000000000000000000000000000000000000000000000081526004016120e2906138a2565b60405180910390fd5b60018060146101000a81548160ff021916908315150217905550600073ffffffffffffffffffffffffffffffffffffffff16600460003373ffffffffffffffffffffffffffffffffffffffff1673ffffffffffffffffffffffffffffffffffffffff16815260200190815260200160002060000160009054906101000a900473ffffffffffffffffffffffffffffffffffffffff1673ffffffffffffffffffffffffffffffffffffffff1614156121d7576040517f08c379a00000000000000000000000000000000000000000000000000000000081526004016121ce90613922565b60405180910390fd5b60006007600084815260200190815260200160002054141561222e576040517f08c379a000000000000000000000000000000000000000000000000000000000815260040161222590613982565b60405180910390fd5b600080600460003373ffffffffffffffffffffffffffffffffffffffff1673ffffffffffffffffffffffffffffffffffffffff16815260200190815260200160002060000160009054906101000a900473ffffffffffffffffffffffffffffffffffffffff1690506000600960009054906101000a900473ffffffffffffffffffffffffffffffffffffffff1673ffffffffffffffffffffffffffffffffffffffff166323b872dd3330600760008a8152602001908152602001600020546040518463ffffffff1660e01b815260040161230a939291906137b2565b602060405180830381600087803b15801561232457600080fd5b505af1158015612338573d6000803e3d6000fd5b505050506040513d601f19601f8201168201806040525081019061235c91906133a2565b50600b60009054906101000a900473ffffffffffffffffffffffffffffffffffffffff1673ffffffffffffffffffffffffffffffffffffffff166340d097c3336040518263ffffffff1660e01b81526004016123b8919061376e565b602060405180830381600087803b1580156123d257600080fd5b505af11580156123e6573d6000803e3d6000fd5b505050506040513d601f19601f8201168201806040525081019061240a91906133a2565b5061241560006130cb565b846003600061242460006130e1565b8152602001908152602001600020819055506000600460003373ffffffffffffffffffffffffffffffffffffffff1673ffffffffffffffffffffffffffffffffffffffff1681526020019081526020016000206001015414156124ca576001600460003373ffffffffffffffffffffffffffffffffffffffff1673ffffffffffffffffffffffffffffffffffffffff168152602001908152602001600020600101819055505b5b600d5483101561275a576124e96001846130ef90919063ffffffff16565b92506000600460008473ffffffffffffffffffffffffffffffffffffffff1673ffffffffffffffffffffffffffffffffffffffff1681526020019081526020016000209050600060026000836001015481526020019081526020016000209050612561600183600201546130ef90919063ffffffff16565b82600201819055505b600c54826001015410156125c6576002600083600101548152602001908152602001600020600101548260020154106125bc578160010160008154809291906125b290613cdc565b91905055506125c1565b6125c6565b61256a565b60026000836001015481526020019081526020016000209050806000015483101561269d576126776103e86126696126446103e8612636612614600a546103e861308990919063ffffffff16565b600760008f81526020019081526020016000205461309f90919063ffffffff16565b6130b590919063ffffffff16565b61265b87866000015461308990919063ffffffff16565b61309f90919063ffffffff16565b6130b590919063ffffffff16565b82600301600082825461268a9190613b4e565b92505081905550806000015492506126a5565b806000015492505b60026000600c548152602001908152602001600020600001548314156126cc57505061275a565b600073ffffffffffffffffffffffffffffffffffffffff168260000160009054906101000a900473ffffffffffffffffffffffffffffffffffffffff1673ffffffffffffffffffffffffffffffffffffffff16141561272c57505061275a565b8160000160009054906101000a900473ffffffffffffffffffffffffffffffffffffffff16935050506124cb565b6127e46103e86127d66127b36103e86127a5612783600a546103e861308990919063ffffffff16565b600760008d81526020019081526020016000205461309f90919063ffffffff16565b6130b590919063ffffffff16565b6127c8856103e861308990919063ffffffff16565b61309f90919063ffffffff16565b6130b590919063ffffffff16565b60046000600860009054906101000a900473ffffffffffffffffffffffffffffffffffffffff1673ffffffffffffffffffffffffffffffffffffffff1673ffffffffffffffffffffffffffffffffffffffff16815260200190815260200160002060030160008282546128579190613b4e565b92505081905550600560003373ffffffffffffffffffffffffffffffffffffffff1673ffffffffffffffffffffffffffffffffffffffff16815260200190815260200160002060009054906101000a900460ff1661296b576001600560003373ffffffffffffffffffffffffffffffffffffffff1673ffffffffffffffffffffffffffffffffffffffff16815260200190815260200160002060006101000a81548160ff0219169083151502179055506006339080600181540180825580915050600190039060005260206000200160009091909190916101000a81548173ffffffffffffffffffffffffffffffffffffffff021916908373ffffffffffffffffffffffffffffffffffffffff1602179055505b7f053c5d59d7260184fb2528f477442d74de71217c757a5e8c340a2d8309808326338660405161299c92919061383c565b60405180910390a1600193505050506000600160146101000a81548160ff021916908315150217905550919050565b6000600d54905090565b6000600e54905090565b6000600160009054906101000a900473ffffffffffffffffffffffffffffffffffffffff1673ffffffffffffffffffffffffffffffffffffffff163373ffffffffffffffffffffffffffffffffffffffff1614612a71576040517f08c379a0000000000000000000000000000000000000000000000000000000008152600401612a68906139a2565b60405180910390fd5b60005b8251811015612dc7576000612ac8848381518110612abb577f4e487b7100000000000000000000000000000000000000000000000000000000600052603260045260246000fd5b6020026020010151612f1f565b90506000612b15858481518110612b08577f4e487b7100000000000000000000000000000000000000000000000000000000600052603260045260246000fd5b6020026020010151612fd3565b9050808211612c6a57600960009054906101000a900473ffffffffffffffffffffffffffffffffffffffff1673ffffffffffffffffffffffffffffffffffffffff166323b872dd868581518110612b95577f4e487b7100000000000000000000000000000000000000000000000000000000600052603260045260246000fd5b602002602001015130856040518463ffffffff1660e01b8152600401612bbd939291906137b2565b602060405180830381600087803b158015612bd757600080fd5b505af1158015612beb573d6000803e3d6000fd5b505050506040513d601f19601f82011682018060405250810190612c0f91906133a2565b50612c4d6103e8612c3f612c30600a546103e861308990919063ffffffff16565b8561309f90919063ffffffff16565b6130b590919063ffffffff16565b600e6000828254612c5e9190613b4e565b92505081905550612db2565b600960009054906101000a900473ffffffffffffffffffffffffffffffffffffffff1673ffffffffffffffffffffffffffffffffffffffff166323b872dd868581518110612ce1577f4e487b7100000000000000000000000000000000000000000000000000000000600052603260045260246000fd5b602002602001015130846040518463ffffffff1660e01b8152600401612d09939291906137b2565b602060405180830381600087803b158015612d2357600080fd5b505af1158015612d37573d6000803e3d6000fd5b505050506040513d601f19601f82011682018060405250810190612d5b91906133a2565b50612d996103e8612d8b612d7c600a546103e861308990919063ffffffff16565b8461309f90919063ffffffff16565b6130b590919063ffffffff16565b600e6000828254612daa9190613b4e565b925050819055505b50508080612dbf90613cdc565b915050612a74565b507fe3be3ff4c4b7c765f052cfa41e343b2e51709bdac88894c3a98e6dd96141ccb382604051612df79190613865565b60405180910390a160019050919050565b6000600160009054906101000a900473ffffffffffffffffffffffffffffffffffffffff1673ffffffffffffffffffffffffffffffffffffffff163373ffffffffffffffffffffffffffffffffffffffff1614612e9a576040517f08c379a0000000000000000000000000000000000000000000000000000000008152600401612e91906139a2565b60405180910390fd5b8160076000858152602001908152602001600020819055507f1beaf6aec16e45fb798b77276fc3d06258f22188d254a2ad32e700851df6aa3c8383604051612ee3929190613a53565b60405180910390a16001905092915050565b6000600860009054906101000a900473ffffffffffffffffffffffffffffffffffffffff16905090565b6000600960009054906101000a900473ffffffffffffffffffffffffffffffffffffffff1673ffffffffffffffffffffffffffffffffffffffff166370a08231836040518263ffffffff1660e01b8152600401612f7c919061376e565b60206040518083038186803b158015612f9457600080fd5b505afa158015612fa8573d6000803e3d6000fd5b505050506040513d601f19601f82011682018060405250810190612fcc91906133f4565b9050919050565b6000600960009054906101000a900473ffffffffffffffffffffffffffffffffffffffff1673ffffffffffffffffffffffffffffffffffffffff1663dd62ed3e83306040518363ffffffff1660e01b8152600401613032929190613789565b60206040518083038186803b15801561304a57600080fd5b505afa15801561305e573d6000803e3d6000fd5b505050506040513d601f19601f8201168201806040525081019061308291906133f4565b9050919050565b600081836130979190613c2f565b905092915050565b600081836130ad9190613bd5565b905092915050565b600081836130c39190613ba4565b905092915050565b6001816000016000828254019250508190555050565b600081600001549050919050565b600081836130fd9190613b4e565b905092915050565b6040518060800160405280600073ffffffffffffffffffffffffffffffffffffffff1681526020016000815260200160008152602001600081525090565b604051806040016040528060008152602001600081525090565b600061317061316b84613ad8565b613ab3565b9050808382526020820190508285602086028201111561318f57600080fd5b60005b858110156131bf57816131a588826131c9565b845260208401935060208301925050600181019050613192565b5050509392505050565b6000813590506131d881613ff8565b92915050565b600082601f8301126131ef57600080fd5b81356131ff84826020860161315d565b91505092915050565b6000813590506132178161400f565b92915050565b60008151905061322c8161400f565b92915050565b60008135905061324181614026565b92915050565b60008151905061325681614026565b92915050565b60006020828403121561326e57600080fd5b600061327c848285016131c9565b91505092915050565b600080600080600060a0868803121561329d57600080fd5b60006132ab888289016131c9565b95505060206132bc888289016131c9565b94505060406132cd88828901613232565b93505060606132de88828901613232565b92505060806132ef88828901613232565b9150509295509295909350565b6000806040838503121561330f57600080fd5b600061331d858286016131c9565b925050602061332e85828601613232565b9150509250929050565b60006020828403121561334a57600080fd5b600082013567ffffffffffffffff81111561336457600080fd5b613370848285016131de565b91505092915050565b60006020828403121561338b57600080fd5b600061339984828501613208565b91505092915050565b6000602082840312156133b457600080fd5b60006133c28482850161321d565b91505092915050565b6000602082840312156133dd57600080fd5b60006133eb84828501613232565b91505092915050565b60006020828403121561340657600080fd5b600061341484828501613247565b91505092915050565b6000806040838503121561343057600080fd5b600061343e85828601613232565b925050602061344f85828601613232565b9150509250929050565b60008060006060848603121561346e57600080fd5b600061347c86828701613232565b935050602061348d86828701613232565b925050604061349e86828701613232565b9150509250925092565b60006134b483836134c0565b60208301905092915050565b6134c981613c63565b82525050565b6134d881613c63565b82525050565b60006134e982613b14565b6134f38185613b2c565b93506134fe83613b04565b8060005b8381101561352f57815161351688826134a8565b975061352183613b1f565b925050600181019050613502565b5085935050505092915050565b61354581613c75565b82525050565b6000613558601883613b3d565b915061356382613dc3565b602082019050919050565b600061357b602083613b3d565b915061358682613dec565b602082019050919050565b600061359e601d83613b3d565b91506135a982613e15565b602082019050919050565b60006135c1602283613b3d565b91506135cc82613e3e565b604082019050919050565b60006135e4602383613b3d565b91506135ef82613e8d565b604082019050919050565b6000613607602183613b3d565b915061361282613edc565b604082019050919050565b600061362a601683613b3d565b915061363582613f2b565b602082019050919050565b600061364d601283613b3d565b915061365882613f54565b602082019050919050565b6000613670601783613b3d565b915061367b82613f7d565b602082019050919050565b6000613693601583613b3d565b915061369e82613fa6565b602082019050919050565b60006136b6601e83613b3d565b91506136c182613fcf565b602082019050919050565b6040820160008201516136e26000850182613750565b5060208201516136f56020850182613750565b50505050565b60808201600082015161371160008501826134c0565b5060208201516137246020850182613750565b5060408201516137376040850182613750565b50606082015161374a6060850182613750565b50505050565b61375981613ca1565b82525050565b61376881613ca1565b82525050565b600060208201905061378360008301846134cf565b92915050565b600060408201905061379e60008301856134cf565b6137ab60208301846134cf565b9392505050565b60006060820190506137c760008301866134cf565b6137d460208301856134cf565b6137e1604083018461375f565b949350505050565b600060a0820190506137fe60008301886134cf565b61380b60208301876134cf565b613818604083018661375f565b613825606083018561375f565b613832608083018461375f565b9695505050505050565b600060408201905061385160008301856134cf565b61385e602083018461375f565b9392505050565b6000602082019050818103600083015261387f81846134de565b905092915050565b600060208201905061389c600083018461353c565b92915050565b600060208201905081810360008301526138bb8161354b565b9050919050565b600060208201905081810360008301526138db8161356e565b9050919050565b600060208201905081810360008301526138fb81613591565b9050919050565b6000602082019050818103600083015261391b816135b4565b9050919050565b6000602082019050818103600083015261393b816135d7565b9050919050565b6000602082019050818103600083015261395b816135fa565b9050919050565b6000602082019050818103600083015261397b8161361d565b9050919050565b6000602082019050818103600083015261399b81613640565b9050919050565b600060208201905081810360008301526139bb81613663565b9050919050565b600060208201905081810360008301526139db81613686565b9050919050565b600060208201905081810360008301526139fb816136a9565b9050919050565b6000604082019050613a1760008301846136cc565b92915050565b6000608082019050613a3260008301846136fb565b92915050565b6000602082019050613a4d600083018461375f565b92915050565b6000604082019050613a68600083018561375f565b613a75602083018461375f565b9392505050565b6000606082019050613a91600083018661375f565b613a9e602083018561375f565b613aab604083018461375f565b949350505050565b6000613abd613ace565b9050613ac98282613cab565b919050565b6000604051905090565b600067ffffffffffffffff821115613af357613af2613d83565b5b602082029050602081019050919050565b6000819050602082019050919050565b600081519050919050565b6000602082019050919050565b600082825260208201905092915050565b600082825260208201905092915050565b6000613b5982613ca1565b9150613b6483613ca1565b9250827fffffffffffffffffffffffffffffffffffffffffffffffffffffffffffffffff03821115613b9957613b98613d25565b5b828201905092915050565b6000613baf82613ca1565b9150613bba83613ca1565b925082613bca57613bc9613d54565b5b828204905092915050565b6000613be082613ca1565b9150613beb83613ca1565b9250817fffffffffffffffffffffffffffffffffffffffffffffffffffffffffffffffff0483118215151615613c2457613c23613d25565b5b828202905092915050565b6000613c3a82613ca1565b9150613c4583613ca1565b925082821015613c5857613c57613d25565b5b828203905092915050565b6000613c6e82613c81565b9050919050565b60008115159050919050565b600073ffffffffffffffffffffffffffffffffffffffff82169050919050565b6000819050919050565b613cb482613db2565b810181811067ffffffffffffffff82111715613cd357613cd2613d83565b5b80604052505050565b6000613ce782613ca1565b91507fffffffffffffffffffffffffffffffffffffffffffffffffffffffffffffffff821415613d1a57613d19613d25565b5b600182019050919050565b7f4e487b7100000000000000000000000000000000000000000000000000000000600052601160045260246000fd5b7f4e487b7100000000000000000000000000000000000000000000000000000000600052601260045260246000fd5b7f4e487b7100000000000000000000000000000000000000000000000000000000600052604160045260246000fd5b6000601f19601f8301169050919050565b7f546869732069732061207265656e7472792061747461636b0000000000000000600082015250565b7f5468652073616665576974686472617720616d6f756e742069732077726f6e67600082015250565b7f546865206d61737465722063616e206e6f742073657420706172656e74000000600082015250565b7f596f752063616e206e6f742073657420796f757273656c66206173207061726560008201527f6e74000000000000000000000000000000000000000000000000000000000000602082015250565b7f596f752063616e206e6f7420707572636861736520776974686f75742070617260008201527f656e740000000000000000000000000000000000000000000000000000000000602082015250565b7f5468652072656665726572206c6576656c2063616e206e6f74206265207a657260008201527f6f00000000000000000000000000000000000000000000000000000000000000602082015250565b7f596f7520616c72656164792073657420706172656e7400000000000000000000600082015250565b7f546865206c6576656c2069732077726f6e670000000000000000000000000000600082015250565b7f5468652063616c6c6572206973206e6f74206f776e6572000000000000000000600082015250565b7f54686520726566657272616c2073687574646f776e0000000000000000000000600082015250565b7f54686520627579657220616464726573732063616e206e6f7420626520300000600082015250565b61400181613c63565b811461400c57600080fd5b50565b61401881613c75565b811461402357600080fd5b50565b61402f81613ca1565b811461403a57600080fd5b5056fea264697066735822122002dd2a8b1ea62268ba7824939575e6d20a93de765b25dfa40894161e2519a3a864736f6c63430008010033",
  "linkReferences": {},
  "deployedLinkReferences": {}
}